:020000040800F2
:10000000680400209D010008671800080F18000808
:1000100065180008B70800082D1D00080000000042
:1000200000000000000000000000000009190008A6
:10003000B908000800000000891800080B19000822
:10004000B7010008B7010008B7010008B7010008B0
:10005000B7010008B7010008B7010008B7010008A0
:10006000B7010008B7010008B7010008B701000890
:10007000B7010008B7010008B7010008B701000880
:10008000B7010008B7010008B7010008B701000870
:10009000B7010008B7010008B7010008B701000860
:1000A000B7010008B7010008B7010008B701000850
:1000B000B7010008A1190008B7010008B70100083E
:1000C000B7010008B7010008B7010008B701000830
:1000D000B7010008B7010008B7010008B701000820
:1000E000B7010008B7010008B7010008B701000810
:1000F000B7010008B7010008B7010008B701000800
:10010000B7010008B7010008B7010008B7010008EF
:10011000B7010008B7010008B7010008B7010008DF
:10012000B7010008B7010008B7010008B7010008CF
:10013000B7010008B7010008B7010008B7010008BF
:10014000B7010008B7010008B7010008B7010008AF
:10015000B7010008B7010008B7010008B70100089F
:10016000B7010008B7010008B7010008B70100088F
:10017000B7010008B7010008B7010008000000003F
:10018000B7010008B7010008DFF80CD000F044FB0D
:1001900000480047BD2F000868040020064880473B
:1001A00006480047FEE7FEE7FEE7FEE7FEE7FEE75C
:1001B000FEE7FEE7FEE7FEE75D190008890100089B
:1001C000D2B201E000F8012B491EFBD27047002299
:1001D000F6E710B513460A4604461946FFF7F0FF46
:1001E000204610BD2DE9FE4F804681EA0300C00F76
:1001F0000C46009021F0004123F00045B8EB0200CE
:10020000A94105D24046214690461C460B4602466F
:1002100023F00040104347D0270DC7F30A00C3F373
:100220000A510290401A019040286BDAC3F3130080
:1002300040F4801B0098924620B10023D2EB030AC1
:1002400063EB0B0B01985946C0F14002504600F099
:10025000EEF906460D4650465946019A00F006FA58
:1002600010EB08006141002487EA115284EAE77329
:100270001A4340D0009A62B3019A012A4FEA07520A
:1002800015DC001B61EB02014FF0004202EA07524D
:10029000CDE90042001C41F5801132462B4600F0AA
:1002A0003DFA03B000F045B840462146F9E7001B8F
:1002B00061EB0201001C41F5801300185B4120181E
:1002C000A2F5001747EB030140EAD570B6196D415E
:1002D00011E06D084FEA360645EAC0754FEA07524D
:1002E000001B61EB0201001C41F5801149084FEA37
:1002F00030000019514132462B4603B000F01CB8C3
:1003000000F0FDB90098012240000023D0EB02026A
:1003100063EBE073009821464FEAE074B8EB00000D
:1003200061EB0401E9E783F000435BE781F0004102
:1003300058E730BCBDE8C08F30BCBDE8C04FFFF708
:10034000DFBF2DE9FE4F81EA030404F0004421F0F1
:10035000004100944FF0000B23F0004350EA0104E9
:100360005ED052EA03045BD0C3F30A54C1F30A55CA
:100370002C44A4F2F3340194A0FB0254C1F3130102
:1003800041F48011C3F3130343F4801301FB0244CF
:1003900000FB034E840A970A44EA815447EA8357D4
:1003A000A4FB076802958D0A05FB07854FEA932C8D
:1003B00004FB0C542705029D4FEA065847EA1637FE
:1003C000B5EB08056EEB070C870E920E47EA811716
:1003D00042EA8312A7FB0201B6EB0B0164EB0004B7
:1003E0002B0D43EA0C335E1844EB1C50DA465146A1
:1003F000E7FB0201C5F313044FEA0B3343EA14533E
:100400004FEA0432019C43EA0603A4F10C0402946F
:10041000009CCDE900B400F081F903B000F003B80E
:1004200000200146F9E730BCBDE8C08F2DE9F04D52
:1004300081EA030404F0004B21F0004514464FF01C
:10044000000A23F0004150EA050220D054EA0102DC
:100450001DD0C5F30A570246C5F31303C1F31300B9
:10046000C1F30A5640F4801543F48013A7EB060845
:10047000101BD64608F2FD3873EB050002D308F1D5
:10048000010801E092185B41B8F1000F03DA002087
:100490000146BDE8F08D00204FF4801106468446E9
:1004A0000EE0171B73EB050705D3121B63EB050367
:1004B00006434CEA010C49084FEA300092185B41B0
:1004C00050EA0107EDD152EA030012D082EA04009B
:1004D00083EA0501084305D0101BAB4106D2012277
:1004E000002306E000224FF0004302E06FF001021B
:1004F00053101AEB06004CEB085110EB0A0041EBCD
:100500000B01BDE8F04D00F0FAB8C1F30A5210B586
:10051000C1F3130140F2FF3341F480119A4201DA32
:10052000002010BD40F233439A42A2F2334203DC72
:10053000524200F08BF810BD904010BD00F0004218
:1005400030F000400AD0C10D01F56071C0F3160013
:1005500042EA0151C208400711437047002001469A
:10056000704701F0004330B421F0004150EA01022D
:1005700006D00A0DA2F56072C1F31301002A02DC55
:1005800030BC00207047440F44EAC104C100E018A9
:1005900030BC00EBC25000F07BB830B50B460146D2
:1005A00000202022012409E021FA02F59D4205D312
:1005B00003FA02F5491B04FA02F52844151EA2F1BC
:1005C0000102F1DC30BD2DE9F05F054600209246C6
:1005D0009B4688460646814640241BE02846414605
:1005E0004746224600F032F853465A46C01A914117
:1005F00010D311461846224600F019F82D1A67EB61
:1006000001084F4622460120002100F010F817EBA8
:1006100000094E41201EA4F10104DFDC48463146AA
:100620002A46434600F000B830BCBDE8C09F202AEF
:1006300004DB203A00FA02F1002070479140C2F139
:10064000200320FA03F3194390407047202A04DB6B
:10065000203A21FA02F00021704721FA02F3D0403B
:10066000C2F120029140084319467047202A06DB58
:10067000CB17203A41FA02F043EAE07306E041FA70
:1006800002F3D040C2F1200291400843194670475E
:100690000029A8BF7047401C490008BF20F0010096
:1006A000704710B4B0FA80FC00FA0CF050EA010474
:1006B00004BF10BC704749B1CCF1200421FA04F406
:1006C00011FA0CF118BF012121430843A3EB0C01DF
:1006D000CB1D4FEA00614FEA102042BF002010BC42
:1006E000704700EBC35010440029A4BF10BC7047F2
:1006F000401C490008BF20F0010010BC704710B535
:10070000141E73F1000408DA401C41F10001921834
:100710005B411A4301D120F0010010BD2DE9F04DDD
:1007200092469B4611B1B1FA81F202E0B0FA80F232
:1007300020329046FFF77BFF04460F4640EA0A004E
:1007400041EA0B0153465A46084313D0114653EA77
:10075000010019D0C8F140025046FFF777FF054667
:100760000E46504659464246FFF761FF084305D002
:10077000012004E020463946BDE8F08D0020054305
:1007800046EAE0762C4337430A986305E40AA0EB77
:1007900008000022FD0A44EA47540A3002D500202E
:1007A0000146E9E7010510196941DDE9084500192D
:1007B0006941BDE8F04DA2E7C1F30A52C1F313014C
:1007C00040F2FF3341F480119A4202DA00200146E0
:1007D000704740F233439A42A2F2334202DC524263
:1007E000FFF734BFFFF723BF30B5041E71F10004DB
:1007F00004DB4FF00044404264EB0101141E73F12E
:10080000000405DB1C464FF00043524263EB040337
:10081000994208BF904230BD064C074D06E0E068A3
:1008200040F0010394E8070098471034AC42F6D337
:10083000FFF7AEFC98310008B83100080EB5C10FC3
:1008400080EAE0700844CA07002140F233438DE893
:100850000E000A460B46FFF761FF03B000BD0EB560
:1008600040F2334102910021CDE900110A460B46C6
:10087000FFF754FF03B000BD70B5C1F30A5201F099
:1008800000450024C1F3130140F2FF3341F480110D
:100890009A4201DA002070BD40F233439A42A2F23C
:1008A000334203DC5242FFF7D1FE00E090402C437C
:1008B000F1D0404270BDFEE770472DE9F047044695
:1008C000407900270E4601280BD04FF0010984F82B
:1008D000059002202071306802F01005042803D032
:1008E00043E00220BDE8F0874FF0030802BB00F0B0
:1008F000E1F9074604E000F0DDF9C01B01280FD83C
:100900002068406B0004F6D4012000F0DEF8216876
:10091000B069086416E000F0CDF9C01B012807D9C2
:10092000206940F00800206184F804800320D9E7A2
:100930002068406B0028EEDB012000F0C6F821683B
:10094000B06948642068816C40F2FF32AA4091434C
:10095000F269AA40114381642068C16CFF22AA4059
:100960009143326AAA401143C1643069012808D119
:100970002268916B1F20A84081437069A8400843FA
:1009800090632268D16B0720A8408143B368306828
:100990001843F3681843A8400843D06320680168EF
:1009A0004FF48042AA40914301602268116840F6EA
:1009B000FC70A84081437068A8400843106020681C
:1009C0000168C022AA409143016084F8049000208D
:1009D000607187E770B5040003D02079002510B15D
:1009E00005E0012070BD6571204600F007F8022087
:1009F0002071256101202071002070BD10B586B0E6
:100A0000044614216846FFF7E2FB1149206888423A
:100A10001BD11048816D41F000518165816D01F05D
:100A200000510591C16C41F00101C164C06C69467F
:100A300000F001000590202000900320019000208C
:100A400002904FF0904000F04FF806B010BD00004B
:100A5000007400400010024018B50468009400685B
:100A6000104421B1143000900360002018BD0830FC
:100A7000F9E770B54279012A14D0012242710223AC
:100A8000037103681D6801F0100602FA06F425439D
:100A90001D60002901680B6806D0C3F38343012B56
:100AA0000AD00DE0022070BDC3F38303012B07D1F0
:100AB0004B6843F0010302E04B6843F002034B60D4
:100AC000027100214171084670BD70B5044600F006
:100AD000F1F80546601C00D0641C00F0EBF8401BE8
:100AE000A042FAD370BD00002DE9F84FDFF898B1AD
:100AF00000234FF0010C4FF0030A4FF00F090BF1E8
:100B0000040EB9E00CFA03F4224070D04D68022DB7
:100B100001D0122D0ED1DD0800EB8508D8F8205049
:100B20005E07F70E09FA07F6B5430E69BE402E437D
:100B3000C8F8206007685E0091F804800AFA06F59C
:100B400008F00308AF4308FA06F848EA0708C0F8B7
:100B500000804F68012F05D0022F03D0112F01D044
:100B6000122F13D1D0F80880CF6828EA0508B740C3
:100B700047EA08078760D0F804800F7928EA04085C
:100B8000C7F300179F4047EA08074760D1F8048081
:100B90006FEA0807BF0706D1C76AA743C8F3C004B6
:100BA0009C403C43C462C468AC438D68B540254357
:100BB000C5604C68E4005ED5344C256E45F00105F7
:100BC0002566246E23F0030504F001040094304CE4
:100BD0002E19B4689D072F0F09FA07F5AC43B0F141
:100BE000904F05D02B4DA84204D101251CE042E0D6
:100BF000002519E0284DA84201D1022514E0274D17
:100C0000A84201D103250FE0254DA84201D10425BA
:100C10000AE0244DA84201D1052505E0224DA84255
:100C200001D1062500E00725BD402543B560DBF86E
:100C300000405D464E689443F60300D514432C6093
:100C4000DEF8004075464E689443B60300D5144361
:100C50002C600D4D08352C684E689443F60200D583
:100C600014432C60084D0C352C684E689443B60232
:100C700000D514432C605B1C0A6832FA03F57FF43C
:100C800041AF00F013B80000000401400010024022
:100C9000000001400004004800080048000C004823
:100CA00000100048001400480018004818BCBDE8B7
:100CB000E08F000001480068704700000400002039
:100CC00002480168491C01607047000004000020D0
:100CD00010B50024032000F065F8002000F008F8AB
:100CE00008B1012401E000F01BF8204610BD00000F
:100CF00070B5054609484FF47A7100240068B0FBCE
:100D0000F1F000F0ADFB08B1012404E00022294617
:100D1000501E00F027F8204670BD0000080000209B
:100D2000094808B5016E41F001010166016E01F04C
:100D300001010091816D41F080518165806D00F06D
:100D40008050009008BD00000010024000F01F021B
:100D5000012191404009800000F1E020C0F800111D
:100D600070470000F0B40E4B1B680C46C3F302231F
:100D7000C3F10705042D00D90425191D072901D247
:100D8000002300E0DB1E012606FA05F1491E214082
:100D900099409E40761E16403143F0BC00F064BD81
:100DA0000CED00E0064900F0070208684FF6FF036B
:100DB000184040EA0220034A1043086070470000D0
:100DC0000CED00E00000FA051649B0F5007F086858
:100DD000C0F3412009D0022805D0086820F4C06083
:100DE00040F480600860002070470128FBD008684C
:100DF00020F4C06040F4007008600B4832220068A4
:100E000050430A4AB0FBF2F0401C00E0401E4A6921
:100E1000520501D50028F9D148694005E3D50320E2
:100E200070470000007000400800002040420F00A2
:100E30000248006800F4C060704700000070004085
:100E40002DE9F0470F46050058D03F4E306800F0BE
:100E50000700B84209D2306820F0070038433060FC
:100E6000306800F00700B84248D12878374CC007F6
:100E70002CD06868032811D0022812D0216898B1BC
:100E8000490500293ADAA16821F003010143A16074
:100E9000FFF710FF804641F2883910E02168890190
:100EA000EFE721688903ECE78907EAE7FFF702FF2C
:100EB000A0EB0801494502D90320BDE8F087A068EE
:100EC000696800F00C00B0EB810FEFD12878800743
:100ED00005D5A068A96820F0F0000843A06030683C
:100EE00000F00700B8420BD9306820F00700384303
:100EF0003060306800F00700B84201D00120DCE724
:100F00002878400705D5A068E96820F4E060084328
:100F1000A0602878000706D5A068296920F46050F1
:100F200040EAC100A06000F017F8A168084AC1F3C8
:100F30000311515C01F01F01C84006490860BDE87B
:100F4000F0470020FFF7D4BE00200240001002400E
:100F5000383000080800002070B5254900231846E5
:100F60008A68CC6812F00C0204F00306214C4FEAA8
:100F7000640509D00C2A05D0042A26D0082A00D1FD
:100F8000284670BD012E10D10B681B0704D4D1F880
:100F90009430C3F3032302E00B68C3F30313164E2C
:100FA00056F823307AB10C2AEBD1C86800F003025E
:100FB000C868C0F30210401C022A08D0032A09D0D6
:100FC000B3FBF0F008E0184670BD204670BDB4FBDE
:100FD000F0F001E0B5FBF0F0CA68C968C2F3062280
:100FE0005043C1F34161491C4900B0FBF1F070BDB1
:100FF000001002400024F400483000082DE9F843B6
:1010000005007CD0FD4CA06800F00C06E06800F004
:1010100003072878C00661D576B10C2E01D1012FC7
:101020000AD0A8690028206878D040F0010020602C
:10103000FFF740FE804659E02068800702D5A86986
:101040000028DED0286A2168090703D5216801F04D
:10105000F00104E0D4F89410F02202EA1111884261
:1010600015D900F013FC002849D1206840F0080091
:1010700020602068296A20F0F00008432060606842
:10108000E96920F47F4040EA0120606015E02068B3
:1010900040F0080020602068296A20F0F000084332
:1010A00020606068E96920F47F4040EA01206060C8
:1010B000286A00F0EBFB0028D6D1FFF74DFFA168AE
:1010C000CF4AC1F30311515C01F01F01C840CD4963
:1010D00008600020FFF70CFE00287DD12FE000BF44
:1010E000FFF7E8FDA0EB0800022876D8206880070B
:1010F000F6D5206840F008002060206801E0BBE0E1
:101100000CE0296A20F0F000084320606068E9697B
:1011100020F47F4040EA0120606010E020F00100F0
:101120002060FFF7C7FD804606E000BFFFF7C2FD65
:10113000A0EB08000228D8D820688007F6D42878C9
:10114000C00740D0082E18D00C2E01D1032F14D088
:101150006868B0F5803F17D0B0F5A02F206817D091
:1011600020F480302060206820F4802020606868AF
:10117000E0B1FFF79FFD804614E02068800322D590
:101180006868002878D01EE0206840F48030EDE7E1
:1011900040F480202060F7E7FFF78CFDA0EB08000B
:1011A0006428A2D820688003F6D50CE0FFF782FD02
:1011B000804605E0FFF77EFDA0EB0800642894D888
:1011C00020688003F6D4287880073BD5042E11D000
:1011D0000C2E04D1022F01E036E1A1E00AD0E8682C
:1011E000002820681ED040F480702060FFF762FD68
:1011F00007460CE0206840050CD5E8680028C1D0FF
:1012000008E000BFFFF756FDC01B022893D82068F6
:101210004005F7D56068297C20F0F85040EA01606D
:1012200060600FE020F480702060FFF743FD074608
:1012300005E000BFFFF73EFDC01B022870D8206804
:101240004005F7D42878000729D568690028D4F824
:10125000940012D040F00100C4F89400FFF72AFD7A
:10126000074604E0FFF726FDC01B022858D8D4F833
:1012700094008007F6D512E0EDE020F00100C4F8FC
:101280009400FFF717FD074605E000BFFFF712FDCA
:10129000C01B022844D8D4F894008007F6D42878DC
:1012A000400768D5A06D0027C00008D4A06D40F0AD
:1012B0008050A065A06D012700F08050009052483A
:1012C0000168C90512D40168814641F4807101604A
:1012D000FFF7F0FC804605E0FFF7ECFCA0EB080010
:1012E00002281DD8D9F80000C005F5D5A868012846
:1012F00017D00528D4F8900018D020F00100C4F8C9
:101300009000D4F8900020F0040000BFC4F89000D2
:10131000A86841F28839D0B1FFF7CCFC804611E0D3
:101320006BE0D4F8900040F00100EFE740F00400DB
:10133000C4F89000F5E700BFFFF7BCFCA0EB080184
:1013400049455AD8D4F890008007F5D50EE0FFF74C
:10135000B1FC804606E000BFFFF7ACFCA0EB080143
:10136000494570D8D4F890008007F5D41FB1A06D1E
:1013700020F08050A065A86AF0B30C2E6BD0022834
:10138000206820F08070206004D0206810F0205F7A
:1013900047D04AE0FFF78EFC064604E0FFF78AFCE0
:1013A000801B02284FD820688001F7D4286BE96A97
:1013B000000110380843696BAA6B0902120941EA5F
:1013C00042410843A98F114A490802EB41510843A1
:1013D00095F840104908120102EB41610843E060B2
:1013E000206840F080702060E06840F08070E0602D
:1013F000FFF760FC054610E02BE024E000100240FF
:101400003830000808000020007000400000E0FFB5
:10141000FFF750FC401B022815D820688001F7D543
:1014200017E0E06820F00300E060E0680B49084046
:10143000E060FFF73FFC054608E000BFFFF73AFC1D
:10144000401B022802D90320BDE8F88320688001F0
:10145000F4D40020F8E70120F6E70000FFFFEEFEDD
:1014600010B5401EB0F1807F01D3012010BD4FF0B8
:10147000E02460610F21601700F0F6F90020A06100
:1014800007202061002010BD7047704770470000A2
:1014900070B590F83C20012A24D0012480F83C400B
:1014A000022280F83D200268536895680E4EB242D1
:1014B00002D00E4EB24203D123F470064B68334380
:1014C00023F070060B688968334325F080052943B3
:1014D00053600268916080F83D40002180F83C1024
:1014E000084670BD022070BD002C01400034014050
:1014F00010B5040003D094F83D0010B107E00120BE
:1015000010BD002084F83C00204600F00DF80220B9
:1015100084F83D00211D206800F04CFA012084F879
:101520003D00002010BD000008B500680B4988424E
:1015300012D10B48816D41F002018165806D00225E
:1015400000F00200009011461D20FFF70BFCBDE8E3
:1015500008401D20FFF7FABB08BD00000004004052
:10156000001002400168CA6842F00102CA600068C7
:10157000826807490A40062A08D082680A40B2F504
:10158000803F03D0016841F00101016000207047F5
:101590000700010070B5044690F83C00012817D000
:1015A000012584F83C50022084F83D0020688268C0
:1015B000324E324022F47F4282600868502839D08F
:1015C0000DDC202855D005DC98B3102843D150E01D
:1015D000022070BD30284CD040283CD141E060282A
:1015E00030D070280CD0B0F5805F03D0B0F5005F2C
:1015F00031D112E020688168204A7032114016E033
:10160000CB68D1E90121206800F034FA21688868AC
:10161000304040F0770088601DE0CB68D1E90121BF
:10162000206800F027FA2068816841F480418160D9
:1016300011E01EE0CA684968206800F02DFA5021C8
:10164000206806E0CA684968206800F036FA602120
:10165000206800F019FA84F83D50002084F83C001E
:1016600070BDCA684968206800F016FA40212068F9
:10167000EFE7226801461046EBE7000088FFFEFF17
:10168000704770B50446006801694FF00005C94312
:10169000890715D4C168C943890711D4E91E0161BE
:1016A00001202077206880698007204602D0FFF75C
:1016B000E7FF04E000F0A7F8204600F0A5F8257742
:1016C00020680169C943490717D4C168C94349075C
:1016D00013D46FF004010161022020772068806933
:1016E00010F4407F204602D0FFF7CAFF04E000F06C
:1016F0008AF8204600F088F8257720680169C943F8
:10170000090716D4C168C943090712D46FF008014C
:101710000161042020772068C0698007204602D03C
:10172000FFF7AEFF04E000F06EF8204600F06CF822
:10173000257720680169C943C90617D4C168C94320
:10174000C90613D46FF010010161082020772068CA
:10175000C06910F4407F204602D0FFF791FF04E0FB
:1017600000F051F8204600F04FF825772068016915
:10177000C943C90708D1C168C943C90704D1891E33
:101780000161204600F041F820680169C94309065B
:1017900009D4C168C943090605D46FF0800101610D
:1017A0002046FFF772FE20680169C943C90509D4C4
:1017B000C168C943090605D46FF4807101612046F0
:1017C000FFF762FE20680169C943490609D4C16870
:1017D000C943490605D46FF040010161204600F07D
:1017E00015F820680169C94389060BD4C168C9434B
:1017F000890607D46FF0200101612046BDE87040E2
:10180000FFF744BE70BD7047704770477047FEE7F2
:1018100010B588B0002412480094019402940394F7
:10182000049405940D490694016040F28F11C0E9BB
:1018300001140A21C0E903148461FFF759FE4FF433
:101840008050009069460648FFF7A4FE049404A95E
:1018500003480694FFF71CFE08B010BD00040040CA
:1018600024000020FEE770470907090E002806DA69
:1018700000F00F0000F1E02080F8141D704700F127
:10188000E02080F80014704770470000F8B51C4D48
:1018900006460024A86DC00002D5FFF7C9FA0DE086
:1018A000A86D40F08050A865A86D00F080500090B1
:1018B000FFF7BEFAA96D21F08051A965B0F5007F50
:1018C00004D0802E07D94FF003040AE0802E08D9F7
:1018D000A02E01D804E001D1022402E0702E00D134
:1018E00001240848016821F00701214301600068D4
:1018F00000F00700A04201D00120F8BD0020F8BD93
:1019000000100240002002407047FFF7D9B910B51F
:1019100096B044216846FEF75AFC142111A8FEF740
:1019200056FC1020009000240120CDE90604602020
:1019300008900A946846FFF761FB0F20CDE9110477
:1019400013941494002111A81594FFF779FA4FF419
:101950000070FFF739FA16B010BD00000D4801689D
:1019600041F4700101600C48016841F0010101601F
:10197000002181600268094B1A4002608214C26033
:10198000026822F48022026081610249C00380392A
:101990000860704788ED00E000100240FFFFF6EAA3
:1019A00010B50348FFF76DFEBDE8104000F06CB9BC
:1019B000240000202DE9F0470268264B264D274ED3
:1019C000274F284C4FF0804A984209D0504507D005
:1019D000A84205D0B04203D0B84201D0A04204D101
:1019E00022F0700C4A6842EA0C02DFF87CC0DFF893
:1019F0007C80DFF87C9098420FD050450DD0A842F3
:101A00000BD0B04209D0B84207D0A04205D0604503
:101A100003D0404501D0484503D122F44075CA683F
:101A20002A434D6922F080022A4302608A68C2621A
:101A30000A688262984207D0A04205D0604503D070
:101A4000404501D0484501D1096901630121416147
:101A5000BDE8F087002C0140000400400008004071
:101A6000000C0040003401400040014000440140AF
:101A70000048014010B5846842EA032224F47F4400
:101A80000A432243826010BD826822F070020A433A
:101A900042F007018160704710B5036A046A24F0C0
:101AA00001040462846924F0F00444EA021423F07F
:101AB0000A020A438461026210BD10B5036A23F072
:101AC000100303628369046A23F4704343EA023219
:101AD00024F0A00343EA01118261016210BD0000FD
:101AE0001448C16C41F00801C1641348016821F435
:101AF00070510160016841F4205101600E482030AE
:101B0000016841F0EE6101600B480830016841F462
:101B100070510160001D016821F47051016001687D
:101B200041F4A05101600448001D016821F06001EA
:101B30000160704700100240000C00480A4800B5E0
:101B400050F8581F41F400310160016B21F00C0185
:101B50000163016B41F004010163FFF7C1FF03481A
:101B60005DF804EB00F00CB80010024000440040A7
:101B7000642148430721B0FBF1F0401EFDD17047BE
:101B8000016821F001010160016821F0102101606C
:101B9000016821F400410160416821F44051416035
:101BA00042F28D01C160016841F00C0101601B4AE5
:101BB0001B4990421CD1016841F02001016001687D
:101BC00021F040010160016821F01001016001680D
:101BD00021F080010160016821F4807101600168D9
:101BE00021F040010160016821F0010101600AE07B
:101BF000884208D1016A41F04001016209490A683E
:101C000042F0C0020A60016841F001010160C1694F
:101C10008902FCD5C1694902FCD57047004C0040DF
:101C200000440040083801400FB44FF4807100B503
:101C3000C1B043AB6846429A00F07AF8694603485F
:101C400000F006F841B05DF814FB000000440040CD
:101C500070B50D4602464FF4807400234FF496761B
:101C6000E85C48B1D1690906FCD510853046FFF71C
:101C70007FFF5B1CA342F3D3D0694006FCD5D0693B
:101C800020F04000D06170BD10B51E4C2DED028BD0
:101C90002068FEF753FC9FED1C1B53EC112BFEF745
:101CA000A1FAFEF75EFC2060FEF748FC41EC100B49
:101CB00000F06EF89FED168B51EC100B53EC182BC7
:101CC000FEF73FFB53EC182BFEF78CFAFEF749FCAE
:101CD000FEF734FC9FED101B53EC112BFEF7A6FB17
:101CE0009FED0F1B53EC112BFEF72BFBFEF70DFCAA
:101CF000BDEC028BC3B20822BDE8104010210A4897
:101D0000FEF7AABE000000207B14AE47E17A843FB4
:101D1000666666666666FA3F6666666666660A4078
:101D20000000000000E06F4010000020FEE700000F
:101D30007CB5044600201D46164600290BD0491EDE
:101D4000CDE90041044B6A462946304600F084FD47
:101D5000009A002111707CBD8D2F000803B40198FA
:101D60004100009850EAC12018BF04204A0D18BF56
:101D700040F0010040F2FF72B2EB515F08BF40F04B
:101D80000200012808BF052002B0704700000000D3
:101D900010B52F499FED2C1B2DED020B84B005983B
:101DA00020F000408842DCBF00209DED040B32DDB6
:101DB0002849884209D1049840B94FF0010000F049
:101DC0007FFC00F04DFC06B010BD05DB9DED040B63
:101DD00000F03AFC06B010BD68469DED040B00F023
:101DE0003BF810F0030011D0012818D09DED021B24
:101DF0009DED000B02281AD000F04EFA51EC100BAA
:101E000081F0004106B041EC100B10BD9DED021BAE
:101E10009DED000B012000F073FB06B010BD9DEDA1
:101E2000021B9DED000B00F037FA06B010BD01203B
:101E300000F066FB51EC100B81F0004106B041EC64
:101E4000100B10BD000000000000000000000000AA
:101E5000FB21E93F0000F07F2DE9F14F04462DED15
:101E6000020B2DED088B8AB09FEDE70B80ED020B86
:101E7000139EE74826F0004585420ADC9DED120BD3
:101E8000002084ED000B0AB0BDEC088B03B000F01D
:101E9000FFB9E0489FEDE0AB9FEDE1BBA84247DD15
:101EA000E14F9FEDE39B9FEDE48B9DED120B53EC17
:101EB0001A2B51EC100B002E1CDDFEF734FA41EC0E
:101EC000100BBD4208D053EC1B2B51EC100BFEF74E
:101ED0002AFAC4E900010BE053EC192B51EC100B6A
:101EE000FEF721FA53EC182BFEF71DFAC4E90001A6
:101EF0000120C8E7FEF776F941EC100BBD4208D08F
:101F000053EC1B2B51EC100BFEF76CF9C4E90001EC
:101F10000BE053EC192B51EC100BFEF763F953EC6B
:101F2000182BFEF75FF9C4E900014FF0FF30AAE774
:101F3000C348A84279DB9DED120B51EC100B01F068
:101F400030F841EC180B9FEDC00B53EC102BFEF753
:101F5000F8F99FEDBF1B53EC112BFEF743F9FEF789
:101F60008BFC0746FEF76AFC41EC190B53EC1A2B6D
:101F7000FEF7E7F953EC182BFEF7D8F941EC180BF4
:101F800053EC1B2B51EC190BFEF7DBF9DFF8C8A261
:101F900041EC100B4FEA15580125FA4453EC102B75
:101FA00051EC180BFEF7BFF9032DC4E900013DD039
:101FB000C1F30A5005EB4511A8EB0000113981422D
:101FC00034DA0AEB051BB0EE48AA9BED000BF0EEED
:101FD00068AA53EC102B51EC190BFEF7B2F941EC47
:101FE0001B0B51EC1A0B53EC1B2BFEF79CF941EC2D
:101FF000180B51EC1A0B53EC182BFEF794F953EC19
:102000001B2BFEF790F99BED020B41EC1A0B53ECE6
:10201000102B51EC190BFEF794F953EC1A2BFEF729
:1020200082F941EC100B6D1CB8E70EE0002EA8BF42
:102030003846BFF628AF94ED000B51EC100B81F041
:102040000041C4E9000178421DE7C6F3130040F4E3
:10205000801EC6F30A50A0F2F530471100F01F05AC
:10206000C5F12000DDF848B00890002006900790E8
:102070000520EC467949002D07EB0002794408BFA2
:1020800051F8221009D051F8223001EB8201AB4007
:102090004A68089922FA01F11943A1FB0E26A1FB17
:1020A0000B131A449A4234BF0123002303EB0608A2
:1020B0000CEB8003D3E901A60E448E4234BF01210C
:1020C000002192448A4411B1924502D903E092451D
:1020D00001D2012100E00021C3E901A641444CF8EE
:1020E0002010011EA0F10100C4DC029800F1005094
:1020F000850F0298DDE903678000DDF81480FEF7A4
:102100009DFB41EC1A0B3046FEF7A9FB9FED541BDB
:1021100053EC112BFEF715F941EC1B0B3846FEF77B
:102120009EFB9FED511B53EC112BFEF70AF941EC7E
:10213000180B4046FEF793FB9FED4D1B53EC112B04
:10214000FEF7FFF841EC190B51EC180B53EC192B6F
:10215000FEF748F853EC1B2BFEF744F853EC1A2B10
:10216000FEF740F8CDE90801002008909DED080B2E
:1021700053EC1A2B51EC100BFEF7D5F853EC1B2B3C
:10218000FEF7D1F853EC182BFEF7CDF853EC192BD2
:10219000FEF7CCF89FED381B53EC112BFEF7D1F86E
:1021A0009FED370B41EC180B53EC102B9DED080BFA
:1021B00051EC100BFEF7C5F853EC182BFEF712F894
:1021C0009FED310B41EC180B53EC102B9DED080BE0
:1021D00051EC100BFEF7B5F853EC182BFEF702F894
:1021E00041EC100B139810F0004F06D06D4251ECEB
:1021F000100B81F0004141EC100B284684ED000BE0
:1022000041E60000000000000000000000000000A7
:10221000FB21E93F7CD9024000004054FB21F93FFB
:102220003163621A61B4D03DFB21F93F0000000028
:102230000000601A61B4D03D7370032E8A19A33B6D
:10224000FB2139410000000083C8C96D305FE43FC5
:10225000000000000000E03F0A11000058100000DC
:10226000000000000000103E000000000000103CD4
:10227000000000000000103A182D4454FB21F93DE5
:102280003326A611460B113C00000054FB21F93DFA
:1022900030BCBDE8C08F000010B52DED040B2DED56
:1022A000088B82B0B0EE419AF0EE619A0B9820F064
:1022B00000449FED4BABB4F1795F11DA9DED0A0B51
:1022C00051EC100BFEF7D8FA002801BFB0EE4A0A15
:1022D000F0EE6A0A02B0BDEC088B04BF04B010BD7A
:1022E0009DED0A0B53EC102B51EC100BFEF729F867
:1022F00041EC180B3C480621B0EE480AF0EE680AA3
:10230000784400F081F853EC182B51EC100BFEF7D9
:1023100018F89DED0A0B41EC1B0B53EC192B51ECFB
:10232000100BFEF70EF841EC190B53EC1B2B51EC84
:10233000180BFEF706F853EC192BFDF7F4FF9FED91
:102340002C0B41EC190B53EC102B51EC180BFDF737
:10235000F8FF41EC100B2848844210DA53EC192B9B
:1023600051EC100BFDF7DFFF53EC1A2BFDF7DEFFEE
:1023700041EC100B02B0BDEC088B04B010BD1F483F
:10238000A042BCBF9FED1E1B8DED001B06DBA4F51C
:1023900000100190002000909DED001B51EC100BEF
:1023A00053EC112BFDF7BFFF9DED000B41EC180B1B
:1023B00053EC102B51EC1A0BFDF7B5FF41EC1A0B47
:1023C00053EC192B51EC180BFDF7ADFF53EC1A2B06
:1023D000FDF7ACFF41EC100BCCE700000000000063
:1023E000000000000000F03F740D0000000000003D
:1023F000000000000000E03F3333D33F0000E93F1E
:10240000000000000000D23F70B504462DED028BA5
:102410004D1E00EBC500B0EE408AF0EE608A90EDF4
:10242000000B35F0060017D053EC182B51EC100BB5
:10243000FDF787FF41EC100B6D1E04EBC50090ED1E
:10244000001B51EC100B53EC112BFDF7CBFE41ECB4
:10245000100B35F00600E7D1022D36D0042D1CD02C
:10246000062D1CBFBDEC028B70BD53EC182B51EC3C
:10247000100BFDF766FF94ED0A1B53EC112BFDF7D3
:10248000B1FE53EC182BFDF75CFF94ED081B53ECE9
:10249000112BFDF7A7FE41EC100B53EC182B51EC60
:1024A000100BFDF74EFF94ED061B53EC112BFDF7BF
:1024B00099FE53EC182BFDF744FF94ED040B53ECFD
:1024C000102BFDF78FFE41EC100B53EC182B51EC49
:1024D000100BFDF736FF94ED021B53EC112BFDF7AB
:1024E00081FE53EC182BFDF72CFF94ED001B53ECF1
:1024F000112BFDF777FEBDEC028B41EC100B70BD8C
:1025000031B504462DED040B2DED0A8BB0EE41BA2A
:10251000F0EE61BA0B989DED0A0B20F00040B0F18F
:10252000795F0DDA51EC100BFFF718FC042808BF97
:1025300000F0A6F89DED0A0B00F07AB805B030BDAA
:1025400053EC102B51EC100BFDF7FBFE41EC180B7C
:102550009DED0A0B53EC182B51EC100BFDF7F1FE1F
:1025600041EC190B2C48B0EE480AF0EE680A052140
:102570007844FFF749FF9FED2ACBB0EE40AAF0EE7A
:1025800060AA9CB353EC1C2B51EC190BFDF7D9FE40
:1025900041EC1C0B53EC1A2B51EC190BFDF7D1FE3F
:1025A0009FED210B41EC190B53EC102B51EC1B0B45
:1025B000FDF7C7FE53EC192BFDF7B5FE53EC182BB6
:1025C000FDF7BFFE53EC1B2BFDF7ADFE53EC1C2BB0
:1025D000FDF7A9FE9DED0A1B53EC112BFDF7A6FE9E
:1025E00000F02CB805B041EC100B30BDFFE753EC08
:1025F0001A2B51EC180BFDF7A4FE53EC1C2BFDF726
:10260000F1FD53EC192BFDF79CFE9DED0A1B53ECDD
:10261000112BFDF7E7FDE3E7FC0B000000000000D5
:10262000495555555555C5BF000000000000E03F15
:10263000BDEC088BBDEC02CBFFF780BFBDEC088B77
:10264000BDEC02CBFFF7CEBF10B553EC102B51EC15
:10265000100BFDF7C7FD41EC100B10BD0000000092
:102660009FED050B10B553EC102B51EC100BFDF743
:10267000DDFE41EC100B10BD00000000000000006A
:102680009FED050B10B553EC102B51EC100BFDF723
:1026900058FE41EC100B10BD0000000000000010BF
:1026A00002E008C8121F08C1002AFAD1704770471B
:1026B000002001E001C1121F002AFBD17047000079
:1026C00001490860704700000C0000202DE9FF5F01
:1026D00082B00021DDE90430020DDDF840B0034393
:1026E00018D044F61050A2F2FF324243151411984C
:1026F00001281FD0A5EB0B00401C5FEA000A4FF039
:1027000000064E4FDFF83891B046504615D5CAF155
:10271000000413E0119801244AA3012801D16FEAB3
:102720000B010298119AC0E90031C0E9024206B0DB
:1027300000F08EB8CBF10000DFE704460021404AEC
:10274000491842EB0450CDE9001012E0E00707D031
:1027500032463B4640464946FDF7F3FD80468946F2
:1027600032463B4610461946FDF7EBFD06460F463E
:102770006410002CEAD1DDE90401DDE90023BAF19F
:10278000000F06DAFDF7DDFD42464B46FDF7D9FDA9
:1027900005E0FDF74BFE42464B46FDF747FE04467B
:1027A0000E460022284BFEF71FF803D84FF0FF30EB
:1027B000014607E00022254B20463146FDF712FD79
:1027C000FDF7FAFF102409E0002C0ADB0A2200239F
:1027D000FDF7F9FE039B30321A55641E50EA0102E0
:1027E000F2D1641C039AC4F111031444119A012A12
:1027F00003D0012208430DD10AE0084304D0002091
:102800004FF0110B119072E7A3EB0B056D1E0DE05D
:102810005B4504DD4FF0000205F1010504E003DA39
:102820004FF00002A5F10105002AECD002981199A1
:10283000C0E90231C0E9004579E70000000014401A
:102840000000F03F300000000000F0430000E03FD7
:1028500030BCBDE8C09F00002DE9FF4F95B09B46FE
:102860008946064600250FE2252877D10024274611
:10287000F84A0121059400E0044316F8013F203B8B
:1028800001FA03F01042F7D130782A2811D06FF006
:102890002F033078A0F13002092A16D8059A44F0A7
:1028A000020402EB820203EB42021044761C059004
:1028B000EFE759F8042B0592002A03DA504244F45A
:1028C0000054059044F00204761C30782E2816D16E
:1028D00016F8010F44F004042A280DD06FF02F02DF
:1028E0003078A0F13003092B09D807EB870302EBFE
:1028F0004303C718761CF3E759F8047B761C30783D
:102900006C280FD006DC4C2817D068280DD06A2818
:1029100014D104E0742810D07A280FD10DE044F4CB
:1029200000140AE044F4801401E044F44014727886
:10293000824202D104F58014761C761C3078662819
:102940000BD013DC582877D009DC002875D0452837
:10295000F6D04628F4D047281AD19DE118E0632824
:1029600035D0642879D0652812D195E1702873D0CC
:1029700008DC6728F1D069286FD06E280DD06F2849
:1029800006D1B5E073282CD0752875D0782874D07E
:102990005A46179990476D1C75E1C4F302500228FE
:1029A00009D003280DD0D9F8001004280DD00D60EF
:1029B00009F1040967E1D9F80010EA17C1E90052EA
:1029C000F6E7D9F800100D80F2E70D70F0E719F87E
:1029D000041B8DF8001000208DF80100EA4601204C
:1029E00003E059F804AB4FF0FF3061074FF00001EE
:1029F00002D40DE008F101018846B9420FDA8045A2
:102A0000F8DB1AF808100029F4D108E008F10101F8
:102A100088468142FADB1AF808100029F6D1059899
:102A20005B46A0EB080721463846179A00F097FA54
:102A3000284400EB080507E04DE029E10DE01AF815
:102A4000010B5A4617999047B8F10108F7D25B4637
:102A500021463846179A13E142E00A220092C4F355
:102A600002524FF0000A022A08D059F804CB032A78
:102A70004FEAEC710AD00DE029E02AE009F10701E4
:102A800021F00702F2E802C1914609E00FFA8CFC3E
:102A90004FEAEC71042A03D14FFA8CFC4FEAEC7137
:102AA000002907DA0A460021DCF1000C61EB020183
:102AB0002D2202E0220504D52B228DF804200122CC
:102AC00003E0E20701D02022F7E7904659E00A210F
:102AD00002E010220DE010214FF0000A00910BE0FF
:102AE00010224FF0000A44F004040827009203E08B
:102AF00008224FF0000A0092C4F30252022A05D0C5
:102B000059F804CB0021032A08D009E009F1070194
:102B100021F00702F2E802C1914605E01FFA8CFCA1
:102B2000042A01D10CF0FF0C4FF00008220728D531
:102B3000702806D0009B83F0100353EA0A0305D0E7
:102B40000EE040228DF80420012208E05CEA010238
:102B500006D030228DF804208DF805000222904620
:102B6000009B83F0080353EA0A030AD15CEA0102DE
:102B700001D1620705D530228DF804204FF00108FD
:102B80007F1E582804D034A003900EA802900DE0B8
:102B900036A0F9E753466046009AFDF714FD8446D7
:102BA0000398825C0298401E029002705CEA010069
:102BB000F0D1029806A9081A00F1200A600702D590
:102BC00024F4803400E00127574502DDA7EB0A001A
:102BD00000E0002000EB0A01009005984144401AF3
:102BE0000590E00306D45B462146179A059800F04D
:102BF000B6F90544002706E001A85A46C05D1799BA
:102C000090476D1C7F1C4745F6DBE0030CD55B4607
:102C10002146179A059800F0A2F9054404E03020F7
:102C20005A46179990476D1C0099481E009000293C
:102C3000F5DC08E0029802995A460078491C029196
:102C4000179990476D1CBAF10001AAF1010AF1DC55
:102C500065E1000009280100303132333435363760
:102C600038396162636465660000000030313233D8
:102C70003435363738394142434445460000000078
:102C800000F05BF90544761C307800287FF4ECAD49
:102C900019B0284600F04EB9620700D4062709F1A2
:102CA000070222F0070CFCE80223E14603F000488B
:102CB0005FEA080C02D00FF2702C0DE05FEA045CB2
:102CC00002D50FF2682C07E05FEAC47C02D00FF255
:102CD000602C01E0AFF2700C4FF0FF3823F000439E
:102CE000CDF850C065280CD006DC452809D0462810
:102CF0001DD047283DD13DE0662818D067287ED1F9
:102D000038E00021112F01DB112000E0781CCDE913
:102D1000000106A90EA8FFF7D9FCDDE90F010E9A04
:102D200003910021009207F1010A04914DE04FF058
:102D300000400097CDE9011006A90EA8FFF7C6FCD8
:102D4000DDE90F0203920E9B11990022DDF80CA021
:102D50000093049211B9791C00EB010AB7EB0A0049
:102D600004D4C0F1FF3007F1010A0490AAEB070078
:102D7000019044E0012F00DA01270021112F01DD2D
:102D8000112000E03846CDE9000106A90EA8FFF7A2
:102D90009DFCDDE90F010E9A039100210491009240
:102DA000BA4621070CD40399514500DA8A46BAF194
:102DB000010F05DD009AAAF10101515C302908D00C
:102DC000B84202DA10F1040F06DA0121CDE9011050
:102DD00015E0AAF10101E9E7002805DC04990144A6
:102DE0000491AAEB000102E0411C514500DD8A4636
:102DF0000499401A401C01904FF0004002902007B7
:102E000004D40198504501DBCDF8048000208DF8F2
:102E10004F0002980DF14F07B0F1004F25D02B2045
:102E20000E9002984FF0020800280CDA40420290FF
:102E30002D200E9007E00A210298FDF7AEFB3031FD
:102E4000029007F8011DB8F10001A8F10108F2DCB9
:102E500002980028EFD1791E0E980870307800F0A3
:102E6000200040F0450007F8020D12A8C01B00F139
:102E700007081498007800B1012000EB0A010198BE
:102E800001EBE07105984144401A401E0590E003B3
:102E900006D45B462146179A059800F060F8054471
:102EA0001498007818B15A46179990476D1CE003A2
:102EB00024D55B462146179A059800F050F8054442
:102EC0001CE00498002807DBDDE90301884203DDEC
:102ED0000098405C179901E0179930205A469047B6
:102EE000049805F10105401C04900198401E0190D2
:102EF00004D12E205A46179990476D1CBAF1000153
:102F0000AAF1010ADDDC05E017F8010B5A46179912
:102F100090476D1CB8F10001A8F10108F4DC5B4694
:102F20002146179A0598ABE62D0000002B00000003
:102F30002000000030BCBDE8C08F2DE9F041044600
:102F400000251E461746880404D405E03946202093
:102F5000B0476D1C641EF9D52846BDE8F0812DE907
:102F6000F041044600251E469046C80301D530278F
:102F700000E02027880404D505E041463846B047E4
:102F80006D1C641EF9D52846BDE8F0814A68002A08
:102F900006D00A68531C0B6010704868401E4860D9
:102FA000704782B0CDE9000121F0004001909DED15
:102FB000000B02B051EC100B704700008AB0FDF717
:102FC00087FEFEF7A4FC1748C16C41F00101C16403
:102FD000C06C242100F0010000906846FDF7F7F86E
:102FE0001249114808600846FDF7F4FC00200090E3
:102FF0000190029003900490102269460B48FDF75F
:103000005CFCFEF705FCFEF799FD10210748FDF773
:1030100030FD06481430FEF7A5FA05A0FEF704FEC1
:10302000FEE7000000100240007400401000002085
:10303000546573742E0000000000000000000000C2
:103040000102030406070809A0860100400D0300E1
:10305000801A060000350C0040420F0080841E00DC
:1030600000093D0000127A000024F40000366E01D1
:103070000048E801006CDC024C5555555555A53FFC
:103080007751C1166CC156BF9015CB19A001FA3EFD
:10309000AD529C804F7E92BEC4B1B4BD9EEE213E27
:1030A000D43888BEE9FAA8BD00004054FB21F93F9E
:1030B0003163621A61B4D03D0000601A61B4D03D42
:1030C0007370032E8A19A33B0000002E8A19A33BBC
:1030D000C14920259A837B390000000000000000D0
:1030E0006E83F9A22915444ED15727FCC0DD34F573
:1030F000999562DB4190433CAB6351FE61C5BBDEF9
:103100003A6E24B7E0D24D42EA2E49061C92D1090C
:103110001CEB1DFE3EA729B1F53582E88444BB2E89
:1031200026709CE9417E5FB439D69139F4395383D6
:103130008B5F849C3B28F9BDFF97F81F0F9805DE35
:103140008B112FEF1F6D0A5ACF7E366DB709CB2733
:10315000663F464F2DEA5F9EC7BA27757BF1E5EBC8
:10316000F739073DEA92528AB15FFB6B085D8D1F0C
:10317000A6F810111111813FD561C119A0012ABF14
:103180007DFEB157E31DC73EEB9C2B8AE6E55ABE98
:103190007CD5CF5A3AD9E53DB8310008000000206F
:1031A00010000000A0260008C83100081000002010
:1031B00058040000B02600080000000000000000D5
:0831C00000093D0000000000C1
:040000050800018965
:00000001FF
