:020000040800F2
:10000000300500209D010008EB1F0008131F0008A9
:10001000E91F000885080008792C0008000000008E
:10002000000000000000000000000000C1220008E5
:1000300087080008000000000D200008C322000807
:10004000B7010008B7010008B7010008B7010008B0
:10005000B7010008B7010008B7010008B7010008A0
:10006000B7010008B7010008B7010008B701000890
:10007000B7010008B7010008B7010008B701000880
:10008000B7010008B7010008B7010008B701000870
:10009000B7010008B7010008B7010008B701000860
:1000A000B7010008B7010008B7010008B701000850
:1000B000B70100086D230008B7010008B701000868
:1000C000B7010008B7010008B7010008B701000830
:1000D000B7010008B701000811290008B70100089E
:1000E000B7010008B7010008B7010008B701000810
:1000F000B7010008B7010008B7010008B701000800
:10010000B7010008B7010008B7010008B7010008EF
:10011000B7010008B7010008B7010008B7010008DF
:10012000B7010008B7010008B7010008B7010008CF
:10013000B7010008B7010008B7010008B7010008BF
:10014000B7010008B7010008B7010008B7010008AF
:10015000B7010008B7010008B7010008B70100089F
:10016000B7010008B7010008B7010008B70100088F
:10017000B7010008B7010008B7010008000000003F
:10018000B7010008B7010008DFF80CD000F038FB19
:10019000004800470D400008300500200648804711
:1001A00006480047FEE7FEE7FEE7FEE7FEE7FEE75C
:1001B000FEE7FEE7FEE7FEE72923000889010008C5
:1001C0002DE9F05F0546002092469B46884606468C
:1001D000814640241BE0284641464746224600F01F
:1001E00032FA53465A46C01A914110D31146184666
:1001F000224600F019FA2D1A67EB01084F462246F5
:100200000120002100F010FA17EB00094E41201EDA
:10021000A4F10104DFDC484631462A46434600F09B
:1002200000B830BCBDE8C09FD2B201E000F8012B9D
:10023000491EFBD270470022F6E710B513460A4666
:1002400004461946FFF7F0FF204610BD421C10F887
:10025000011B0029FBD1801A70472DE9FE4F804613
:1002600081EA0300C00F0C46009021F0004123F00A
:100270000045B8EB0200A94105D240462146904610
:100280001C460B46024623F00040104347D0270D82
:10029000C7F30A00C3F30A510290401A01904028A4
:1002A0006BDAC3F3130040F4801B0098924620B130
:1002B0000023D2EB030A63EB0B0B01985946C0F104
:1002C0004002504600F0B0F906460D4650465946E9
:1002D000019A00F0C8F910EB08006141002487EA98
:1002E000115284EAE7731A4340D0009A62B3019A2C
:1002F000012A4FEA075215DC001B61EB02014FF0A7
:10030000004202EA0752CDE90042001C41F580118B
:1003100032462B4600F0C8F903B000F045B840461D
:100320002146F9E7001B61EB0201001C41F5801337
:1003300000185B412018A2F5001747EB030140EAC3
:10034000D570B6196D4111E06D084FEA360645EAE1
:10035000C0754FEA0752001B61EB0201001C41F51A
:10036000801149084FEA30000019514132462B46AE
:1003700003B000F01CB800F088B9009801224000DA
:100380000023D0EB020263EBE073009821464FEAB2
:10039000E074B8EB000061EB0401E9E783F000438F
:1003A0005BE781F0004158E730BCBDE8C08F30BC4E
:1003B000BDE8C04FFFF7DFBF2DE9FE4F81EA030420
:1003C00004F0004421F0004100944FF0000B23F0B2
:1003D000004350EA01045ED052EA03045BD0C3F349
:1003E0000A54C1F30A552C44A4F2F3340194A0FB3F
:1003F0000254C1F3130141F48011C3F3130343F416
:10040000801301FB024400FB034E840A970A44EA6E
:10041000815447EA8357A4FB076802958D0A05FBC0
:1004200007854FEA932C04FB0C542705029D4FEAE5
:10043000065847EA1637B5EB08056EEB070C870E32
:10044000920E47EA811742EA8312A7FB0201B6EB3C
:100450000B0164EB00042B0D43EA0C335E1844EBF4
:100460001C50DA465146E7FB0201C5F313044FEA7C
:100470000B3343EA14534FEA0432019C43EA060368
:10048000A4F10C040294009CCDE900B400F00CF936
:1004900003B000F003B800200146F9E730BCBDE826
:1004A000C08F2DE9F04D81EA030404F0004B21F0E8
:1004B000004514464FF0000A23F0004150EA0502BF
:1004C00020D054EA01021DD0C5F30A570246C5F3F5
:1004D0001303C1F31300C1F30A5640F4801543F42B
:1004E0008013A7EB0608101BD64608F2FD3873EB05
:1004F000050002D308F1010801E092185B41B8F150
:10050000000F03DA00200146BDE8F08D00204FF413
:100510008011064684460EE0171B73EB050705D3D2
:10052000121B63EB050306434CEA010C49084FEA32
:10053000300092185B4150EA0107EDD152EA030006
:1005400012D082EA040083EA0501084305D0101B9B
:10055000AB4106D20122002306E000224FF0004307
:1005600002E06FF0010253101AEB06004CEB085149
:1005700010EB0A0041EB0B01BDE8F04D00F085B82F
:100580000EB540F2334102910021CDE900110A4637
:100590000B4600F089F803B000BDC1F30A5210B554
:1005A000C1F3130140F2FF3341F480119A4201DAA2
:1005B000002010BD40F233439A42A2F2334203DCE2
:1005C000524200F040F810BD904010BD30B5041EFE
:1005D00071F1000404DB4FF00044404264EB010180
:1005E000141E73F1000405DB1C464FF00043524219
:1005F00063EB0403994208BF904230BD30B50B460F
:10060000014600202022012409E021FA02F59D4242
:1006100005D303FA02F5491B04FA02F52844151E16
:10062000A2F10102F1DC30BD202A04DB203A00FAFD
:1006300002F1002070479140C2F1200320FA03F339
:10064000194390407047202A04DB203A21FA02F037
:100650000021704721FA02F3D040C2F120029140FC
:10066000084319467047202A06DBCB17203A41FA87
:1006700002F043EAE07306E041FA02F3D040C2F12F
:100680002002914008431946704710B5141E73F1BB
:10069000000408DA401C41F1000192185B411A4342
:1006A00001D120F0010010BD2DE9F04D92469B468E
:1006B00011B1B1FA81F202E0B0FA80F22032904634
:1006C000FFF7B2FF04460F4640EA0A0041EA0B0179
:1006D00053465A46084313D0114653EA010019D035
:1006E000C8F140025046FFF7AEFF05460E465046A1
:1006F00059464246FFF798FF084305D0012004E021
:1007000020463946BDE8F08D0020054346EAE076F4
:100710002C4337430A986305E40AA0EB0800002243
:10072000FD0A44EA47540A3002D500200146E9E7B1
:10073000010510196941DDE9084500196941BDE865
:10074000F04DA2E72DE9FE4FC3F30A5701F0004533
:100750000024C1F30A56C3F31303C1F3130143F496
:10076000801312EB020AA64641F48011009543EB78
:10077000030CA7F1010B16E0B0EB0A0061EB0C01D2
:10078000071E71F1000707DA4FF00008D0EB0800F0
:1007900085F0004568EB0101171A73EB0107EBD3F5
:1007A000761E001849415E45F6DA50EA010209D08A
:1007B000CDE900E5002213460296FFF775FF03B06E
:1007C00000F003B820460099F9E730BCBDE8C08FBF
:1007D000C1F30A52C1F3130140F2FF3341F4801117
:1007E0009A4202DA00200146704740F233439A42AF
:1007F000A2F2334202DC5242FFF725BFFFF714BFDB
:10080000064C074D06E0E06840F0010394E807005D
:1008100098471034AC42F6D3FFF7BAFC48420008C0
:10082000684200080EB5C10F80EAE0700844CA07AC
:10083000002140F233438DE80E000A460B46FFF7D5
:1008400033FF03B000BD70B5C1F30A5201F000459B
:100850000024C1F3130140F2FF3341F480119A42A6
:1008600001DA002070BD40F233439A42A2F23342D3
:1008700003DC5242FFF7E7FE00E090402C43F1D04A
:10088000404270BDFEE770472DE9F04704464079CD
:1008900000270E4601280BD04FF0010984F805907F
:1008A00002202071306802F01005042803D043E0D4
:1008B0000220BDE8F0874FF0030802BB00F008FA01
:1008C000074604E000F004FAC01B01280FD8206896
:1008D000406B0004F6D4012000F006F92168B069ED
:1008E000086416E000F0F4F9C01B012807D920695C
:1008F00040F00800206184F804800320D9E72068D4
:10090000406B0028EEDB012000F0EEF82168B069B2
:1009100048642068816C40F2FF32AA409143F2693A
:10092000AA40114381642068C16CFF22AA40914310
:10093000326AAA401143C1643069012808D1226893
:10094000916B1F20A84081437069A84008439063C1
:100950002268D16B0720A8408143B36830681843F0
:10096000F3681843A8400843D063206801684FF437
:100970008042AA40914301602268116840F6FC70F1
:10098000A84081437068A84008431060206801684F
:10099000C022AA409143016084F804900020607155
:1009A00087E770B5040003D02079002510B105E079
:1009B000012070BD6571204600F008F8022020710A
:1009C000256101202071002070BD000010B586B0A7
:1009D000044614216846FFF72EFC1149206888421E
:1009E0001BD11048816D41F000518165816D01F08E
:1009F00000510591C16C41F00101C164C06C6946B0
:100A000000F00100059020200090032001900020BC
:100A100002904FF0904000F075F806B010BD000055
:100A2000007400400010024018B50468009400688B
:100A3000104421B1143000900360002018BD08302C
:100A4000F9E770B54279012A14D0012242710223DC
:100A5000037103681D6801F0100602FA06F42543CD
:100A60001D60002901680B6806D0C3F38343012B86
:100A70000AD00DE0022070BDC3F38303012B07D120
:100A80004B6843F0010302E04B6843F002034B6004
:100A9000027100214171084670BD10B590F8251013
:100AA0000024022903D00421C16301241AE0016853
:100AB0000A6822F00E020A6001680A6822F0010248
:100AC0000A6090F84410036C01F01C02012101FA45
:100AD00002F25A6080F82510002180F82410816B02
:100AE00001B18847204610BD70B5044600F0F0F80B
:100AF0000546601C00D0641C00F0EAF8401BA042D0
:100B0000FAD370BD2DE9F84FDFF898B100234FF00C
:100B1000010C4FF0030A4FF00F090BF1040EB9E07E
:100B20000CFA03F4224070D04D68022D01D0122D32
:100B30000ED1DD0800EB8508D8F820505E07F70ECF
:100B400009FA07F6B5430E69BE402E43C8F8206087
:100B500007685E0091F804800AFA06F508F00308B9
:100B6000AF4308FA06F848EA0708C0F800804F6863
:100B7000012F05D0022F03D0112F01D0122F13D136
:100B8000D0F80880CF6828EA0508B74047EA080788
:100B90008760D0F804800F7928EA0408C7F30017AB
:100BA0009F4047EA08074760D1F804806FEA0807CA
:100BB000BF0706D1C76AA743C8F3C0049C403C43A3
:100BC000C462C468AC438D68B5402543C5604C68B9
:100BD000E4005ED5344C256E45F001052566246E93
:100BE00023F0030504F001040094304C2E19B4687E
:100BF0009D072F0F09FA07F5AC43B0F1904F05D0D0
:100C00002B4DA84204D101251CE042E0002519E04B
:100C1000284DA84201D1022514E0274DA84201D158
:100C200003250FE0254DA84201D104250AE0244DFB
:100C3000A84201D1052505E0224DA84201D1062593
:100C400000E00725BD402543B560DBF800405D4668
:100C50004E689443F60300D514432C60DEF8004040
:100C600075464E689443B60300D514432C600D4D71
:100C700008352C684E689443F60200D514432C6066
:100C8000084D0C352C684E689443B60200D51443C9
:100C90002C605B1C0A6832FA03F57FF441AF00F068
:100CA00013B80000000401400010024000000140A1
:100CB0000004004800080048000C004800100048EC
:100CC000001400480018004818BCBDE8E08F000080
:100CD00001480068704700001800002002480168C1
:100CE000491C0160704700001800002010B5002466
:100CF000032000F065F8002000F008F808B1012496
:100D000001E000F01BF8204610BD000070B505465C
:100D100009484FF47A7100240068B0FBF1F000F04C
:100D2000A9FD08B1012404E000222946501E00F06C
:100D300027F8204670BD00001C000020094808B5B7
:100D4000016E41F001010166016E01F001010091A7
:100D5000816D41F080518165806D00F08050009080
:100D600008BD00000010024000F01F020121914068
:100D70004009800000F1E020C0F800117047000039
:100D8000F0B40E4B1B680C46C3F30223C3F10705F6
:100D9000042D00D90425191D072901D2002300E0E4
:100DA000DB1E012606FA05F1491E214099409E40AE
:100DB000761E16403143F0BC01F018B90CED00E08E
:100DC000064900F0070208684FF6FF03184040EAA2
:100DD0000220034A10430860704700000CED00E059
:100DE0000000FA051649B0F5007F0868C0F34120FD
:100DF00009D0022805D0086820F4C06040F4806063
:100E00000860002070470128FBD0086820F4C0600B
:100E100040F4007008600B483222006850430A4AD0
:100E2000B0FBF2F0401C00E0401E4A69520501D5BB
:100E30000028F9D148694005E3D503207047000038
:100E4000007000401C00002040420F000248006873
:100E500000F4C06070470000007000402DE9F84FBA
:100E6000044600270088E54D3E46010504F1200BAD
:100E70001DD5606E78B1B0F5800F11D0B0F5000FC0
:100E800004D0B0F5400F22D001270FE0E86840F40D
:100E90008030E8601BE00021201D01F0B9F803E07C
:100EA0000021584601F04AF9070010D03E4620883C
:100EB000C00426D5A06EC0B1B0F1807F1AD0B0F1C9
:100EC000007F0DD0B0F1407F19D0012718E0D5F890
:100ED0008800616E20F440000843C5F88800E6E70A
:100EE000E86840F48030E86009E00021201D01F04E
:100EF0008FF803E00021584601F020F90746F7B1CA
:100F00003E46206880033AD5A86D4FF00008C00027
:100F100009D4A86D40F08050A865A86D4FF0010875
:100F200000F080500090DFF8D8A2DAF8001041F409
:100F30008071CAF80010FFF7CBFE814610E0D5F8AB
:100F40008800A16E20F040700843C5F88800D8E7FB
:100F5000FFF7BEFEA0EB0900022801D9032705E038
:100F6000DAF80000C005F3D5002F7CD04FEA070661
:100F7000B8F1000F03D0A86D20F08050A86520784C
:100F8000C00707D0D5F88800A16B20F00300084304
:100F9000C5F888002078800707D5D5F88800E16B70
:100FA00020F00C000843C5F888002078400707D5DA
:100FB000D5F88800216C20F030000843C5F888007F
:100FC0002078000707D5D5F88800616C20F0C000B4
:100FD0000843C5F888002078C00607D5D5F88800F2
:100FE000A16C20F440700843C5F888002078800682
:100FF00007D5D5F88800E16C20F440600843C5F8B7
:1010000088002088800507D5D5F88800E16D20F498
:1010100040200843C5F888002088400507D5D5F84A
:101020008800216E20F440100843C5F8880020781D
:10103000400607D5D5F88800216D20F440500843BC
:10104000C5F888002078000607D5D5F88800616DBE
:1010500020F440400843C5F888002088C00509D521
:10106000D5F8880000E01CE0A16D20F44030084372
:10107000C5F8880020884FF0006780044FF0806832
:101080004FD5D5F88800E16E20F040600843C5F8E0
:101090008800E06EB8423CD1E86840F48010E86017
:1010A0003FE0D5F8900010F4407015D0D4F88410CB
:1010B000814211D0D5F89000D5F8901020F44070FE
:1010C00041F48031C5F89010D5F8901021F48031AA
:1010D000C5F89010C5F89000C00710D0FFF7F8FDD4
:1010E000074641F2883906E0FFF7F2FDC11B49458A
:1010F00001D903263CE7D5F890008007F4D5D5F850
:101100009000D4F8841020F440700843C5F8900093
:101110002EE7404505D10121201D00F079FF00B1E7
:1011200006462068000317D5D5F88800216F20F007
:1011300040600843C5F88800206FB84204D1E868D1
:1011400040F48010E86007E0404505D10121201DF2
:1011500000F05EFF00B106462068400317D5D5F8C1
:101160008800616F20F040600843C5F88800606F18
:10117000B84204D1E86840F48010E86007E04045D8
:1011800005D10121201D00F043FF00B10646208853
:1011900040041AD5D5F88800A16F20F040500843CC
:1011A000C5F88800A06FB0F1805F03D0B0F1005F98
:1011B00005D00AE00221201D00F02AFF03E00221F1
:1011C000584600F0BBFF00B106462088000407D552
:1011D000D5F88800E16F20F080400843C5F888000A
:1011E0002068C00307D555F8880FD4F8801020F088
:1011F000004008432860304600F004B80010024068
:101200000070004018BCBDE8E08F00002DE9F047F9
:101210000F46050058D03F4E306800F00700B84236
:1012200009D2306820F0070038433060306800F0A1
:101230000700B84248D12878374CC0072CD06868DE
:10124000032811D0022812D0216898B1490500293D
:101250003ADAA16821F003010143A160FFF738FDEC
:10126000804641F2883910E021688901EFE7216862
:101270008903ECE78907EAE7FFF72AFDA0EB0801FD
:10128000494502D90320BDE8F087A068696800F0ED
:101290000C00B0EB810FEFD12878800705D5A0684E
:1012A000A96820F0F0000843A060306800F0070053
:1012B000B8420BD9306820F00700384330603068FE
:1012C00000F00700B84201D00120DCE72878400791
:1012D00005D5A068E96820F4E0600843A06028789C
:1012E000000706D5A068296920F4605040EAC100D3
:1012F000A06000F03BF8A168084AC1F30311515CFB
:1013000001F01F01C84006490860BDE8F047002011
:10131000FFF7FCBC0020024000100240E040000843
:101320001C0000200548064900688968054AC1F389
:101330000221515C01F01F01C84070471C000020D1
:1013400000100240204100080548064900688968ED
:10135000054AC1F3C221515C01F01F01C84070472A
:101360001C000020001002402041000870B52549F3
:10137000002318468A68CC6812F00C0204F00306B9
:10138000214C4FEA640509D00C2A05D0042A26D046
:10139000082A00D1284670BD012E10D10B681B070A
:1013A00004D4D1F89430C3F3032302E00B68C3F3F1
:1013B0000313164E56F823307AB10C2AEBD1C868C5
:1013C00000F00302C868C0F30210401C022A08D0D3
:1013D000032A09D0B3FBF0F008E0184670BD2046A0
:1013E00070BDB4FBF0F001E0B5FBF0F0CA68C9686D
:1013F000C2F306225043C1F34161491C4900B0FBCE
:10140000F1F070BD001002400024F400F04000082C
:101410002DE9F84305007CD0FD4CA06800F00C06D7
:10142000E06800F003072878C00661D576B10C2E7D
:1014300001D1012F0AD0A8690028206878D040F097
:1014400001002060FFF744FC804659E020688007D7
:1014500002D5A8690028DED0286A2168090703D5CB
:10146000216801F0F00104E0D4F89410F02202EABF
:101470001111884215D900F0E5FE002849D12068F5
:1014800040F0080020602068296A20F0F00008433E
:1014900020606068E96920F47F4040EA01206060D4
:1014A00015E0206840F0080020602068296A20F0DC
:1014B000F000084320606068E96920F47F4040EA5A
:1014C00001206060286A00F0BDFE0028D6D1FFF739
:1014D0004DFFA168CF4AC1F30311515C01F01F0118
:1014E000C840CD4908600020FFF710FC00287DD1DE
:1014F0002FE000BFFFF7ECFBA0EB0800022876D836
:1015000020688007F6D5206840F008002060206839
:1015100001E0BBE00CE0296A20F0F0000843206005
:101520006068E96920F47F4040EA0120606010E0D3
:1015300020F001002060FFF7CBFB804606E000BFF3
:10154000FFF7C6FBA0EB08000228D8D82068800768
:10155000F6D42878C00740D0082E18D00C2E01D120
:10156000032F14D06868B0F5803F17D0B0F5A02FD6
:10157000206817D020F480302060206820F480207C
:1015800020606868E0B1FFF7A3FB804614E02068A4
:10159000800322D56868002878D01EE0206840F4D7
:1015A0008030EDE740F480202060F7E7FFF790FB04
:1015B000A0EB08006428A2D820688003F6D50CE0D0
:1015C000FFF786FB804605E0FFF782FBA0EB0800F3
:1015D000642894D820688003F6D4287880073BD507
:1015E000042E11D00C2E04D1022F01E036E1A1E02F
:1015F0000AD0E868002820681ED040F4807020607F
:10160000FFF766FB07460CE0206840050CD5E8684C
:101610000028C1D008E000BFFFF75AFBC01B02281A
:1016200093D820684005F7D56068297C20F0F850F1
:1016300040EA016060600FE020F480702060FFF7F6
:1016400047FB074605E000BFFFF742FBC01B02282F
:1016500070D820684005F7D42878000729D5686934
:101660000028D4F8940012D040F00100C4F894008F
:10167000FFF72EFB074604E0FFF72AFBC01B0228FA
:1016800058D8D4F894008007F6D512E0EDE020F0A9
:101690000100C4F89400FFF71BFB074605E000BFFC
:1016A000FFF716FBC01B022844D8D4F8940080072B
:1016B000F6D42878400768D5A06D0027C00008D46C
:1016C000A06D40F08050A065A06D012700F0805013
:1016D000009052480168C90512D40168814641F45E
:1016E00080710160FFF7F4FA804605E0FFF7F0FA39
:1016F000A0EB080002281DD8D9F80000C005F5D5D8
:10170000A868012817D00528D4F8900018D020F038
:101710000100C4F89000D4F8900020F0040000BF4D
:10172000C4F89000A86841F28839D0B1FFF7D0FA28
:10173000804611E06BE0D4F8900040F00100EFE744
:1017400040F00400C4F89000F5E700BFFFF7C0FACE
:10175000A0EB080149455AD8D4F890008007F5D588
:101760000EE0FFF7B5FA804606E000BFFFF7B0FADB
:10177000A0EB0801494570D8D4F890008007F5D453
:101780001FB1A06D20F08050A065A86AF0B30C2EA8
:101790006BD00228206820F08070206004D0206880
:1017A00010F0205F47D04AE0FFF792FA064604E0C7
:1017B000FFF78EFA801B02284FD820688001F7D4EB
:1017C000286BE96A000110380843696BAA6B0902AB
:1017D000120941EA42410843A98F114A490802EB24
:1017E0004151084395F840104908120102EB41614C
:1017F0000843E060206840F080702060E06840F0BE
:101800008070E060FFF764FA054610E02BE024E00A
:1018100000100240E04000081C0000200070004062
:101820000000E0FFFFF754FA401B022815D820689B
:101830008001F7D517E0E06820F00300E060E06881
:101840000B490840E060FFF743FA054608E000BF97
:10185000FFF73EFA401B022802D90320BDE8F883B7
:1018600020688001F4D40020F8E70120F6E70000AA
:10187000FFFFEEFE10B5401EB0F1807F01D30120C6
:1018800010BD4FF0E02460610F21601700F0AEFB47
:101890000020A06107202061002010BD7047704724
:1018A0007047000070B590F83C20012A24D0012434
:1018B00080F83C40022280F83D2002685368956819
:1018C0000E4EB24202D00E4EB24203D123F4700645
:1018D0004B68334323F070060B688968334325F067
:1018E0008005294353600268916080F83D400021E3
:1018F00080F83C10084670BD022070BD002C0140ED
:101900000034014010B5040003D094F83D0010B13C
:1019100007E0012010BD002084F83C00204600F0C4
:101920000DF8022084F83D00211D206800F02CFDF8
:10193000012084F83D00002010BD000008B50168BA
:101940001048B1F1804F14D00F4A914219D1816DE6
:1019500041F002018165806D002200F002000090DC
:1019600011461D20FFF70CFABDE808401D20FFF7C7
:10197000FBB9816D41F001018165806D00F00100CE
:10198000009008BD00100240000400400168CA68D1
:1019900042F00102CA600068826807490A40062ACC
:1019A00008D082680A40B2F5803F03D0016841F058
:1019B00001010160002070470700010070B5044676
:1019C00090F83C00012817D0012584F83C500220F3
:1019D00084F83D0020688268324E324022F47F4213
:1019E00082600868502839D00DDC202855D005DCED
:1019F00098B3102843D150E0022070BD30284CD05D
:101A000040283CD141E0602830D070280CD0B0F59F
:101A1000805F03D0B0F5005F31D112E020688168AB
:101A2000204A7032114016E0CB68D1E901212068CC
:101A300000F00AFD21688868304040F07700886037
:101A40001DE0CB68D1E90121206800F0FDFC206891
:101A5000816841F48041816011E01EE0CA684968F4
:101A6000206800F003FD5021206806E0CA6849683C
:101A7000206800F00CFD6021206800F0EFFC84F885
:101A80003D50002084F83C0070BDCA684968206859
:101A900000F0ECFC40212068EFE722680146104688
:101AA000EBE7000088FFFEFF704770B50446006852
:101AB00001694FF00005C943890715D4C168C943BE
:101AC000890711D4E91E016101202077206880690F
:101AD0008007204602D0FFF7E7FF04E000F0A7F8F8
:101AE000204600F0A5F8257720680169C943490719
:101AF00017D4C168C943490713D46FF004010161C9
:101B0000022020772068806910F4407F204602D0B0
:101B1000FFF7CAFF04E000F08AF8204600F088F8DA
:101B2000257720680169C943090716D4C168C943EC
:101B3000090712D46FF008010161042020772068A2
:101B4000C0698007204602D0FFF7AEFF04E000F036
:101B50006EF8204600F06CF8257720680169C943CB
:101B6000C90617D4C168C943C90613D46FF0100160
:101B70000161082020772068C06910F4407F20466A
:101B800002D0FFF791FF04E000F051F8204600F08A
:101B90004FF8257720680169C943C90708D1C16892
:101BA000C943C90704D1891E0161204600F041F8EC
:101BB00020680169C943090609D4C168C9430906F7
:101BC00005D46FF0800101612046FFF768FE2068B0
:101BD0000169C943C90509D4C168C943090605D4C7
:101BE0006FF4807101612046FFF758FE206801699B
:101BF000C943490609D4C168C943490605D46FF0F1
:101C000040010161204600F015F820680169C943D0
:101C100089060BD4C168C943890607D46FF0200137
:101C200001612046BDE87040FFF73ABE70BD7047C5
:101C30007047704770477047704700002DE9F041CA
:101C400002680446D0691168936810F00F0F4FF0D6
:101C500000055BD003F0010601F49077374369D0AB
:101C6000C70707D0CF0505D501271762626F42F07D
:101C700001026267820708D5DA0706D027680222C8
:101C80003A62626F42F004026267420708D5DA07DF
:101C900006D0236804221A62626F42F00202626771
:101CA00002070AD501F02002324306D02368082239
:101CB0001A62626F42F008026267626F002A32D0D5
:101CC000800605D5880603D5216E09B120468847D0
:101CD000606F000703D420688068400625D5204641
:101CE00000F083FC20688168490619D5816821F0DD
:101CF00040018160E06E98B120498163E06EFEF79B
:101D0000CCFE00280FD0E06E816B06E0860611D570
:101D10008E060FD5216E1EE02046BDE8F041084733
:101D20002046FFF789FFBDE8F0812046FFF784FFDA
:101D30006567F8E7C60209D55B0207D54FF4801046
:101D400010622046BDE8F041FFF775BF030605D5D8
:101D50000B0603D5616E0029DED1E4E74006E2D52B
:101D60004806E0D51168204621F04001116020218D
:101D700084F87110656600F0CBF8D4E7D725000829
:101D800010B5040003D094F8710010B107E00120F1
:101D900010BD002084F87000204600F027F82420B1
:101DA00084F871002068016821F00101016020467B
:101DB00000F02CFC0128EBD0606A10B1204600F046
:101DC00078FB2068416821F4904141602068816877
:101DD00021F02A0181602068016841F00101016061
:101DE0002046BDE8104000F0C8BB000010B586B02A
:101DF000044614216846FEF71EFA164920688842F8
:101E000026D11548816D41F400318165816D01F461
:101E100000310591C16C41F00801C164C06C694694
:101E200000F0080005906020009002200190002042
:101E3000029003200390072004900848FEF762FEFA
:101E4000002211462620FEF79BFF2620FEF78CFF7E
:101E500006B010BD0044004000100240000C0048D5
:101E60002DE9F843044690F871001F4616460D46CA
:101E700020284BD1C5B1BEB194F87000012845D0DF
:101E8000012084F870004FF00008C4F8748021200D
:101E900084F87100FEF71CFFA4F850608146A4F896
:101EA00052604FF4805615E00120BDE8F883802190
:101EB000204600F0FBFCD8B9A068B04201D12069EF
:101EC000C0B115F8010B21680885B4F85200401E16
:101ED000A4F85200B4F852004B464FF000020097AD
:101EE0000028E4D14FF04001204600F0DFFC30B183
:101EF0000320DAE735F8020BC0F30800E3E72020FF
:101F000084F8710084F870800020CEE70220CCE7CE
:101F10007047FEE710B588B0002412480094019481
:101F200002940394049405944FF080410694016058
:101F300040F69F71C0E9011444F62061C0E9031422
:101F40008461FFF7DFFC4FF480500090694605483C
:101F5000FFF734FD049404A902480694FFF7A2FC9D
:101F600008B010BD3800002010B588B00024124819
:101F70000094019402940394049405940D490694EA
:101F8000016040F28F11C0E901140A21C0E9031475
:101F90008461FFF7B7FC4FF4805000906946064813
:101FA000FFF70CFD049404A903480694FFF77AFC9C
:101FB00008B010BD0004004078000020094808491E
:101FC00001604FF4E1314160002181600C22C16069
:101FD000C0E904128161C16101624162FFF7D0BEB4
:101FE00000440040B8000020FEE770470907090ED2
:101FF000002806DA00F00F0000F1E02080F8141D40
:10200000704700F1E02080F800147047704700002E
:102010002DE9F041444C05468846E06800268107DA
:1020200028680DD0E16801F00301814216D1A8B102
:10203000E0686968C0F30210401C88420ED120E0BD
:10204000012804D0022805D0032807D108E0216820
:10205000890701E021684905002907DB01265FE0C7
:102060002168890302D421684903F5E7E1686A68B9
:102070006FF00F0321F0730103EB021211430143D0
:10208000E160206820F080602060FEF721FE0746B6
:1020900005E000BFFEF71CFEC01B022837D82068F1
:1020A0000001F7D4B8F1000F18D0B8F1010F1ED01D
:1020B000287D4FF07E41400801EB4060A96840EA6E
:1020C00001202169194A114008432061206840F02D
:1020D00080602060FEF7FCFD07461AE0A868E9680A
:1020E0000002090940EA41402169114AEBE7288AC8
:1020F0001049400801EB4050A96840EA01202169DD
:102100000D4AE0E7FEF7E4FDC01B022801D90326D3
:1021100006E020680001F5D52069A969084320611F
:102120003046BDE8F081000000100240FF80FFF95A
:10213000FF80FDFF0000E0FFFF809FFF2DE9F041E1
:102140003D4C06468846E0680025810730680DD082
:10215000E16801F00301814216D1A8B1E06871681D
:10216000C0F30210401C88420ED120E0012804D0A8
:10217000022805D0032807D108E02168890701E07B
:1021800021684905002907DB012551E02168890301
:1021900002D421684903F5E7E16872686FF00F0324
:1021A00021F0730103EB021211430143E160206847
:1021B00020F080502060FEF78BFD074605E000BF51
:1021C000FEF786FDC01B022829D820688000F7D4BE
:1021D000B8F1000F15D0307C4FF07E41400801EB84
:1021E0004060B16840EA01206169144A1140084327
:1021F0006061206840F080502060FEF769FD07466E
:102200000FE0B068F1680002090940EA41406169E5
:102210000B4AEBE7FEF75CFDC01B022801D9032542
:1022200006E020688000F5D5606971690843606147
:102230002846BDE8F081000000100240FF80FFF951
:10224000FF80FDFFF8B51C4D06460024A86DC000B8
:1022500002D5FEF7FBFD0DE0A86D40F08050A865AB
:10226000A86D00F080500090FEF7F0FDA96D21F000
:102270008051A965B0F5007F04D0802E07D94FF0BA
:1022800003040AE0802E08D9A02E01D804E001D171
:10229000022402E0702E00D101240848016821F0D8
:1022A000070121430160006800F00700A04201D04F
:1022B0000120F8BD0020F8BD0010024000200240BF
:1022C0007047FEF70BBD10B5B8B0442122A8FDF74A
:1022D000B2FF142133A8FDF7AEFF88216846FDF751
:1022E000AAFF1020229000240120CDE928046020BC
:1022F0002A902C9422A8FFF78BF80F20CDE9330405
:1023000035943694002133A83794FEF77FFF0220DE
:102310000F9400906846FEF7A1FD4FF40070FEF7A1
:1023200061FD38B010BD00000D48016841F4700136
:1023300001600C48016841F00101016000218160E9
:102340000268094B1A4002608214C260026822F4DB
:102350008022026081610249C003803908607047B1
:1023600088ED00E000100240FFFFF6EA10B50548D6
:10237000FFF79BFB4FF08040406ABDE8104000F043
:10238000E5BA0000780000202DE9F0470268264BEE
:10239000264D274E274F284C4FF0804A984209D0AF
:1023A000504507D0A84205D0B04203D0B84201D072
:1023B000A04204D122F0700C4A6842EA0C02DFF815
:1023C0007CC0DFF87C80DFF87C9098420FD05045CD
:1023D0000DD0A8420BD0B04209D0B84207D0A042DD
:1023E00005D0604503D0404501D0484503D122F4D3
:1023F0004075CA682A434D6922F080022A43026070
:102400008A68C2620A688262984207D0A04205D0F8
:10241000604503D0404501D0484501D109690163B9
:1024200001214161BDE8F087002C0140000400401B
:1024300000080040000C0040003401400040014012
:10244000004401400048014010B5846842EA03227C
:1024500024F47F440A432243826010BD826822F044
:1024600070020A4342F007018160704710B5036AA9
:10247000046A24F001040462846924F0F00444EA4C
:10248000021423F00A020A438461026210BD10B5EF
:10249000036A23F0100303628369046A23F4704320
:1024A00043EA023224F0A00343EA0111826101628F
:1024B00010BD90F82410C90706D001684A68836AE5
:1024C00022F400321A434A6090F82410890706D596
:1024D00001684A68C36A22F480321A434A6090F85D
:1024E0002410490706D501684A68036B22F480224C
:1024F0001A434A6090F82410090706D501684A6813
:10250000436B22F400421A434A6090F82410C90633
:1025100006D501688A68836B22F480521A438A6068
:1025200090F82410890606D501688A68C36B22F4E6
:1025300000521A438A6090F82410490611D50168A8
:102540004A68036C22F480121A434A60016CB1F5A8
:10255000801F06D101684A68436C22F4C0021A4306
:102560004A6090F82410090606D501684A68806C14
:1025700022F4002202434A607047F8B50026044660
:102580004667FEF7A5FB0546206800686FF07E47AA
:10259000000708D52B4600224FF400112046009773
:1025A00000F084F960B92068006840070AD52B461E
:1025B00000224FF480012046009700F077F908B11F
:1025C0000320F8BD202084F8710084F8720084F89C
:1025D00070600020F8BD10B5806A0021A0F85A1084
:1025E000A0F85210FFF728FB10BD01680A6822F41A
:1025F00090720A6001688A6822F001028A602021D4
:1026000080F8721000210166704700002DE9F0414A
:102610000446016880682369E669184363691025E8
:10262000002733431843954A0B68954E33400343C4
:102630000B6020684168E36821F440511943416010
:102640002168A069914201D0236A18438B6823F462
:10265000306303438B608B4B21688B4899420DD1CB
:10266000D0F8880010F0030006D001285AD00228C4
:1026700056D0032859D157E0012556E0834B9942A3
:102680000BD1D0F8880010F00C0047D0042849D0B6
:10269000082845D00C2848D146E07D4B99420BD103
:1026A000D0F8880010F0300038D010283AD0202818
:1026B00036D0302839D137E0764B99420BD1D0F85B
:1026C000880010F0C00029D040282BD0802827D0C7
:1026D000C0282AD128E0704B99420ED1D0F888004A
:1026E00010F440701AD0B0F5807F1BD0B0F5007F99
:1026F00016D0B0F5407F18D116E0914215D1D0F830
:10270000880010F4406009D0B0F5806F0AD0B0F5B1
:10271000006F05D0B0F5406F07D105E0002504E05B
:10272000022502E0042500E008255C4B00264FF45A
:10273000004091423DD135B1022D07D0042D07D084
:10274000082D10D107E0FEF7EDFD03E0184602E08A
:10275000FEF70CFEA8B3626802EB4201814202D888
:10276000B0EB023F01D9012775E0DFF834815DB19C
:10277000022D0CD0042D13D0082DF4D150082905BA
:10278000401846F1000105E0FEF7CCFD0AE05008D4
:102790004449F5E70023FDF713FDA0F5407156E02D
:1027A000FEF7E4FD6268010E03025008181871413B
:1027B000F0E7E1694FF6EF7881422FD1092DD2D2AF
:1027C00000E048E0DFE805F00609200523050505DF
:1027D0002600C8E7FEF7A6FD01E0FEF7B5FD4100C3
:1027E000D4F8040001EB5001B1FBF0F080B2A0F18D
:1027F00010014145B7D84FF6F0710140C0F34200D7
:1028000001432068C16026E027496068EAE7FEF7D7
:10281000ADFDE4E74FF480316068E3E7092DA2D213
:10282000DFE805F006091E052205050525009AE7E3
:10283000FEF778FD01E0FEF787FD0146606801EBD9
:10284000500100BFB1FBF0F080B2A0F11001414592
:1028500089D82168C860266638466666BDE8F0817A
:10286000606803EB5001EDE7FEF780FDE5E7616886
:1028700000EB5100B0FBF1F0E6E700000080004003
:10288000F369FFEF003801400010024000440040AF
:1028900000480040004C0040005000400024F4007C
:1028A000FFFC0F00000024F40048E8012DE9F0418E
:1028B000984617460E460446069D1DE0681C1BD030
:1028C0002DB1FEF705FAA0EB0800A84214D9206844
:1028D000016821F4D07101602068816821F0010154
:1028E0008160202084F8710084F87200002084F850
:1028F00070000320BDE8F0812068C06936EA00005E
:1029000004D00020B842D9D00020F3E70120F9E735
:102910000148FFF793B90000B80000200FB46E2102
:1029200000B59DB01FAB68461E9A00F0A7F9684637
:10293000FDF78CFC82B2642369460348FFF790FAE6
:102940001DB05DF814FB0000B800002070B505460E
:102950002DED0E8B9FEDABAB0146AC4CACA0FFF761
:10296000DDFF9FEDAD8B2846FDF70AFE9FEDAC1B0A
:1029700053EC112BFDF795FD94ED020B41EC190B77
:1029800053EC1A2B51EC100BFDF720FE01D284ED15
:1029900002AB20789FEDA4BB9FEDA5CB032808D008
:1029A00004282BD09FEDA4BB02287AD0012879D02F
:1029B000EBE094ED020B53EC1C2B51EC100BFDF7EC
:1029C000FBFC41EC180B53EC1B2B51EC190BFDF7E6
:1029D000F3FC94ED041B53EC112BFDF7EDFC41ECE3
:1029E000100B00F0FDF953EC182B51EC100BFDF718
:1029F000E3FC53EC182BFDF730FCC4E094ED020B24
:102A000053EC1C2B51EC100BFDF7D6FC41EC1C0BCE
:102A100053EC1B2B51EC190BFDF7CEFC94ED041B72
:102A200053EC112BFDF7C8FC41EC180B9FED849B78
:102A300053EC192BFDF7C0FC41EC100B00F0D0F962
:102A400053EC192B51EC100BFDF72BFD41EC1E0B39
:102A50009FED7D9B51EC180B53EC192BFDF7ACFC53
:102A600041EC100B00F0BCF953EC192B51EC100B9E
:102A7000FDF717FD41EC1D0B9FED759B51EC180BFD
:102A800053EC192BFDF798FC41EC100B00F0A8F962
:102A900053EC192B51EC100BFDF703FD41EC1B0B14
:102AA00001E031E089E09FED6C9B51EC180B53EC99
:102AB000192BFDF781FC41EC100B00F091F953EC60
:102AC000192B51EC100BFDF7ECFC41EC190BB0EE9F
:102AD000480AF0EE680A00F083F953EC192B51EC28
:102AE000100BFDF7BAFB53EC1B2BFDF7B6FB53ECB9
:102AF0001D2BFDF7B2FB53EC1E2BFDF7AEFB41EC9B
:102B0000100B53EC1C2B3AE094ED040B51EC1B0B17
:102B100053EC102BFDF7C5FC41EC1D0BB0EE490A40
:102B2000F0EE690AB0EE4D1AF0EE6D1A00F0D4F82E
:102B3000B0EE408AF0EE608A53EC1C2B51EC1D0B7A
:102B4000FDF73AFC0E4646EC110B054653EC182BEC
:102B500051EC110BFDF73AFD46EC105B51EC180BF4
:102B600053EC102B41D3FDF79CFC53EC1B2BFDF7D2
:102B700015FC94ED021B41EC100B53EC112B51ECA6
:102B8000100BFDF719FC41EC180B53EC1A2B51EC10
:102B9000180BFDF786FC9FED321B53EC112BFDF754
:102BA0000BFCFDF7FAFC00F061B8C3B2082210215B
:102BB000BDE870402C48FDF737BF94ED040B51EC95
:102BC0001B0B53EC102BFDF76CFC41EC180BB0EE1B
:102BD000490AF0EE690AB0EE481AF0EE681A00F001
:102BE0007BF853EC182B51EC100BFDF75AFC94EDCD
:102BF000028B53EC182BFDF7DFFB53EC182BFDF782
:102C0000D0FBC0E76666666666660A400000002084
:102C100025640A0D00000000000000000000000014
:102C2000000000000088D3401F85EB51B81E1940FA
:102C3000000000000000E03F000000000000F03F46
:102C400000000000000022400000000000001C40C6
:102C500000000000000014400000000000000840D8
:102C60000000000000E06F4024000020BDEC088B55
:102C7000BDEC06CBFFF799BFFEE700007CB504462C
:102C800000201D46164600290BD0491ECDE9004103
:102C9000044B6A462946304600F006FE009A0021A1
:102CA00011707CBDDD3F000803B40198410000981D
:102CB00050EAC12018BF04204A0D18BF40F001009F
:102CC00040F2FF72B2EB515F08BF40F002000128F2
:102CD00008BF052002B0704710B52DED040B86B07B
:102CE0009DED060B10EE100A10EE901A8DED000B04
:102CF000002818BF0120084320F00040C0F17F6089
:102D000000F1E040C00F21D19DED080B10EE101A2C
:102D100010EE900A8DED000B002918BF0121084329
:102D200020F00040C0F17F6000F1E040C00F0DD105
:102D300029490798B1EB400F04BF0698002842D0FC
:102D40000998400004BF089800283CD09DED080B6E
:102D500053EC102B9DED060B51EC100BFDF7F2FC24
:102D6000CDE902019DED020B40F2FF7110EE900AD9
:102D70008DED000B31EA105021D00798039900F037
:102D8000004001F00041884219D09DED080B8DED07
:102D9000040B9DED020B8DED000B10EE900A0599D2
:102DA00061F31E0005909DED041B9DED020B51EC9F
:102DB000110B53EC102BFDF7F4FACDE902019DED58
:102DC000020B0AB010BD012000F0A2FC0AB0BDE861
:102DD000104000F06DBC00000000E0FF00000000AB
:102DE00010B52F499FED2C1B2DED020B84B00598DB
:102DF00020F000408842DCBF00209DED040B32DD56
:102E00002849884209D1049840B94FF0010000F0E8
:102E10007FFC00F04DFC06B010BD05DB9DED040B02
:102E200000F03AFC06B010BD68469DED040B00F0C2
:102E30003BF810F0030011D0012818D09DED021BC3
:102E40009DED000B02281AD000F04EFA51EC100B49
:102E500081F0004106B041EC100B10BD9DED021B4E
:102E60009DED000B012000F073FB06B010BD9DED41
:102E7000021B9DED000B00F037FA06B010BD0120DB
:102E800000F066FB51EC100B81F0004106B041EC04
:102E9000100B10BD0000000000000000000000004A
:102EA000FB21E93F0000F07F2DE9F14F04462DEDB5
:102EB000020B2DED088B8AB09FEDE70B80ED020B26
:102EC000139EE74826F0004585420ADC9DED120B73
:102ED000002084ED000B0AB0BDEC088B03B000F0BD
:102EE000FFB9E0489FEDE0AB9FEDE1BBA84247DDB5
:102EF000E14F9FEDE39B9FEDE48B9DED120B53ECB7
:102F00001A2B51EC100B002E1CDDFDF747FA41EC9B
:102F1000100BBD4208D053EC1B2B51EC100BFDF7EE
:102F20003DFAC4E900010BE053EC192B51EC100BF6
:102F3000FDF734FA53EC182BFDF730FAC4E9000121
:102F40000120C8E7FDF789F941EC100BBD4208D01C
:102F500053EC1B2B51EC100BFDF77FF9C4E900017A
:102F60000BE053EC192B51EC100BFDF776F953ECF9
:102F7000182BFDF772F9C4E900014FF0FF30AAE702
:102F8000C348A84279DB9DED120B51EC100B01F008
:102F900030F841EC180B9FEDC00B53EC102BFDF7F4
:102FA0000BFA9FEDBF1B53EC112BFDF756F9FDF704
:102FB0004AFC0746FDF736FC41EC190B53EC1A2B83
:102FC000FDF7FAF953EC182BFDF7EBF941EC180B70
:102FD00053EC1B2B51EC190BFDF7EEF9DFF8C8A2EF
:102FE00041EC100B4FEA15580125FA4453EC102B15
:102FF00051EC180BFDF7D2F9032DC4E900013DD0C7
:10300000C1F30A5005EB4511A8EB000011398142CC
:1030100034DA0AEB051BB0EE48AA9BED000BF0EE8C
:1030200068AA53EC102B51EC190BFDF7C5F941ECD4
:103030001B0B51EC1A0B53EC1B2BFDF7AFF941ECBA
:10304000180B51EC1A0B53EC182BFDF7A7F953ECA6
:103050001B2BFDF7A3F99BED020B41EC1A0B53EC74
:10306000102B51EC190BFDF7A7F953EC1A2BFDF7B8
:1030700095F941EC100B6D1CB8E70EE0002EA8BFCF
:103080003846BFF628AF94ED000B51EC100B81F0E1
:103090000041C4E9000178421DE7C6F3130040F483
:1030A000801EC6F30A50A0F2F530471100F01F054C
:1030B000C5F12000DDF848B0089000200690079088
:1030C0000520EC467949002D07EB0002794408BF42
:1030D00051F8221009D051F8223001EB8201AB40A7
:1030E0004A68089922FA01F11943A1FB0E26A1FBB7
:1030F0000B131A449A4234BF0123002303EB060842
:103100000CEB8003D3E901A60E448E4234BF0121AB
:10311000002192448A4411B1924502D903E09245BC
:1031200001D2012100E00021C3E901A641444CF88D
:103130002010011EA0F10100C4DC029800F1005033
:10314000850F0298DDE903678000DDF81480FDF744
:1031500069FB41EC1A0B3046FDF712FA9FED541B48
:1031600053EC112BFDF728F941EC1B0B3846FDF70A
:1031700007FA9FED511B53EC112BFDF71DF941ECA4
:10318000180B4046FDF7FCF99FED4D1B53EC112B3E
:10319000FDF712F941EC190B51EC180B53EC192BFC
:1031A000FDF75BF853EC1B2BFDF757F853EC1A2B8C
:1031B000FDF753F8CDE90801002008909DED080BBC
:1031C00053EC1A2B51EC100BFDF7E8F853EC1B2BCA
:1031D000FDF7E4F853EC182BFDF7E0F853EC192B4E
:1031E000FDF7DFF89FED381B53EC112BFDF7E4F8EA
:1031F0009FED370B41EC180B53EC102B9DED080B9A
:1032000051EC100BFDF7D8F853EC182BFDF725F80F
:103210009FED310B41EC180B53EC102B9DED080B7F
:1032200051EC100BFDF7C8F853EC182BFDF715F80F
:1032300041EC100B139810F0004F06D06D4251EC8A
:10324000100B81F0004141EC100B284684ED000B7F
:1032500041E6000000000000000000000000000047
:10326000FB21E93F7CD9024000004054FB21F93F9B
:103270003163621A61B4D03DFB21F93F00000000C8
:103280000000601A61B4D03D7370032E8A19A33B0D
:10329000FB2139410000000083C8C96D305FE43F65
:1032A000000000000000E03F6A110000B8100000BC
:1032B000000000000000103E000000000000103C74
:1032C000000000000000103A182D4454FB21F93D85
:1032D0003326A611460B113C00000054FB21F93D9A
:1032E00030BCBDE8C08F000010B52DED040B2DEDF6
:1032F000088B82B0B0EE419AF0EE619A0B9820F004
:1033000000449FED4BABB4F1795F11DA9DED0A0BF0
:1033100051EC100BFDF797FA002801BFB0EE4A0AF6
:10332000F0EE6A0A02B0BDEC088B04BF04B010BD19
:103330009DED0A0B53EC102B51EC100BFDF73CF8F4
:1033400041EC180B3C480621B0EE480AF0EE680A42
:10335000784400F081F853EC182B51EC100BFDF77A
:103360002BF89DED0A0B41EC1B0B53EC192B51EC88
:10337000100BFDF721F841EC190B53EC1B2B51EC12
:10338000180BFDF719F853EC192BFDF707F89FED13
:103390002C0B41EC190B53EC102B51EC180BFDF7D7
:1033A0000BF841EC100B2848844210DA53EC192B2F
:1033B00051EC100BFCF7F2FF53EC1A2BFCF7F1FF6A
:1033C00041EC100B02B0BDEC088B04B010BD1F48DF
:1033D000A042BCBF9FED1E1B8DED001B06DBA4F5BC
:1033E00000100190002000909DED001B51EC100B8F
:1033F00053EC112BFCF7D2FF9DED000B41EC180BA9
:1034000053EC102B51EC1A0BFCF7C8FF41EC1A0BD4
:1034100053EC192B51EC180BFCF7C0FF53EC1A2B93
:10342000FCF7BFFF41EC100BCCE7000000000000F0
:10343000000000000000F03FD40D0000000000007C
:10344000000000000000E03F3333D33F0000E93FBD
:10345000000000000000D23F70B504462DED028B45
:103460004D1E00EBC500B0EE408AF0EE608A90ED94
:10347000000B35F0060017D053EC182B51EC100B55
:10348000FCF79AFF41EC100B6D1E04EBC50090EDAC
:10349000001B51EC100B53EC112BFCF7DEFE41EC42
:1034A000100B35F00600E7D1022D36D0042D1CD0CC
:1034B000062D1CBFBDEC028B70BD53EC182B51ECDC
:1034C000100BFCF779FF94ED0A1B53EC112BFCF762
:1034D000C4FE53EC182BFCF76FFF94ED081B53EC64
:1034E000112BFCF7BAFE41EC100B53EC182B51ECEE
:1034F000100BFCF761FF94ED061B53EC112BFCF74E
:10350000ACFE53EC182BFCF757FF94ED040B53EC77
:10351000102BFCF7A2FE41EC100B53EC182B51ECD6
:10352000100BFCF749FF94ED021B53EC112BFCF739
:1035300094FE53EC182BFCF73FFF94ED001B53EC6B
:10354000112BFCF78AFEBDEC028B41EC100B70BD19
:1035500031B504462DED040B2DED0A8BB0EE41BACA
:10356000F0EE61BA0B989DED0A0B20F00040B0F12F
:10357000795F0DDA51EC100BFFF796FB042808BFBA
:1035800000F0A6F89DED0A0B00F07AB805B030BD4A
:1035900053EC102B51EC100BFCF70EFF41EC180B09
:1035A0009DED0A0B53EC182B51EC100BFCF704FFAC
:1035B00041EC190B2C48B0EE480AF0EE680A0521E0
:1035C0007844FFF749FF9FED2ACBB0EE40AAF0EE1A
:1035D00060AA9CB353EC1C2B51EC190BFCF7ECFECE
:1035E00041EC1C0B53EC1A2B51EC190BFCF7E4FECD
:1035F0009FED210B41EC190B53EC102B51EC1B0BE5
:10360000FCF7DAFE53EC192BFCF7C8FE53EC182B31
:10361000FCF7D2FE53EC1B2BFCF7C0FE53EC1C2B2B
:10362000FCF7BCFE9DED0A1B53EC112BFCF7B9FE19
:1036300000F02CB805B041EC100B30BDFFE753ECA7
:103640001A2B51EC180BFCF7B7FE53EC1C2BFCF7B4
:1036500004FE53EC192BFCF7AFFE9DED0A1B53EC57
:10366000112BFCF7FAFDE3E75C0C00000000000002
:10367000495555555555C5BF000000000000E03FB5
:10368000BDEC088BBDEC02CBFFF780BFBDEC088B17
:10369000BDEC02CBFFF7CEBF10B553EC102B51ECB5
:1036A000100BFCF7DAFD41EC100B10BD0000000020
:1036B0009FED050B10B553EC102B51EC100BFCF7E4
:1036C000F0FE41EC100B10BD0000000000000000F7
:1036D0009FED050B10B553EC102B51EC100BFCF7C4
:1036E0006BFE41EC100B10BD00000000000000104C
:1036F00002E008C8121F08C1002AFAD170477047BB
:10370000002001E001C1121F002AFBD17047000018
:103710000149086070470000200000202DE9FF5F8C
:1037200082B00021DDE90430020DDDF840B0034332
:1037300018D044F61050A2F2FF32424315141198EB
:1037400001281FD0A5EB0B00401C5FEA000A4FF0D8
:1037500000064E4FDFF83891B046504615D5CAF1F5
:10376000000413E0119801244AA3012801D16FEA53
:103770000B010298119AC0E90031C0E9024206B07B
:1037800000F08EB8CBF10000DFE704460021404A8C
:10379000491842EB0450CDE9001012E0E00707D0D1
:1037A00032463B4640464946FCF706FE804689467F
:1037B00032463B4610461946FCF7FEFD06460F46CC
:1037C0006410002CEAD1DDE90401DDE90023BAF13F
:1037D000000F06DAFCF7F0FD42464B46FCF7ECFD25
:1037E00005E0FCF75EFE42464B46FCF75AFE0446F7
:1037F0000E460022284BFCF7E9FE03D84FF0FF30BD
:10380000014607E00022254B20463146FCF725FD06
:10381000FCF7DEFF102409E0002C0ADB0A2200235B
:10382000FCF7CEFC039B30321A55641E50EA0102AD
:10383000F2D1641C039AC4F111031444119A012AB1
:1038400003D0012208430DD10AE0084304D0002030
:103850004FF0110B119072E7A3EB0B056D1E0DE0FD
:103860005B4504DD4FF0000205F1010504E003DAD9
:103870004FF00002A5F10105002AECD00298119941
:10388000C0E90231C0E9004579E7000000001440BA
:103890000000F03F300000000000F0430000E03F77
:1038A00030BCBDE8C09F00002DE9FF4F95B09B469E
:1038B0008946064600250FE2252877D100242746B1
:1038C000F84A0121059400E0044316F8013F203B2B
:1038D00001FA03F01042F7D130782A2811D06FF0A6
:1038E0002F033078A0F13002092A16D8059A44F047
:1038F000020402EB820203EB42021044761C0590A4
:10390000EFE759F8042B0592002A03DA504244F4F9
:103910000054059044F00204761C30782E2816D10D
:1039200016F8010F44F004042A280DD06FF02F027E
:103930003078A0F13003092B09D807EB870302EB9D
:103940004303C718761CF3E759F8047B761C3078DC
:103950006C280FD006DC4C2817D068280DD06A28B8
:1039600014D104E0742810D07A280FD10DE044F46B
:1039700000140AE044F4801401E044F44014727826
:10398000824202D104F58014761C761C30786628B9
:103990000BD013DC582877D009DC002875D04528D7
:1039A000F6D04628F4D047281AD19DE118E06328C4
:1039B00035D0642879D0652812D195E1702873D06C
:1039C00008DC6728F1D069286FD06E280DD06F28E9
:1039D00006D1B5E073282CD0752875D0782874D01E
:1039E0005A46179990476D1C75E1C4F3025002289E
:1039F00009D003280DD0D9F8001004280DD00D608F
:103A000009F1040967E1D9F80010EA17C1E9005289
:103A1000F6E7D9F800100D80F2E70D70F0E719F81D
:103A2000041B8DF8001000208DF80100EA460120EB
:103A300003E059F804AB4FF0FF3061074FF000018D
:103A400002D40DE008F101018846B9420FDA804541
:103A5000F8DB1AF808100029F4D108E008F1010198
:103A600088468142FADB1AF808100029F6D1059839
:103A70005B46A0EB080721463846179A00F097FAF4
:103A8000284400EB080507E04DE029E10DE01AF8B5
:103A9000010B5A4617999047B8F10108F7D25B46D7
:103AA00021463846179A13E142E00A220092C4F3F5
:103AB00002524FF0000A022A08D059F804CB032A18
:103AC0004FEAEC710AD00DE029E02AE009F1070184
:103AD00021F00702F2E802C1914609E00FFA8CFCDE
:103AE0004FEAEC71042A03D14FFA8CFC4FEAEC71D7
:103AF000002907DA0A460021DCF1000C61EB020123
:103B00002D2202E0220504D52B228DF8042001226B
:103B100003E0E20701D02022F7E7904659E00A21AE
:103B200002E010220DE010214FF0000A00910BE09E
:103B300010224FF0000A44F004040827009203E02A
:103B400008224FF0000A0092C4F30252022A05D064
:103B500059F804CB0021032A08D009E009F1070134
:103B600021F00702F2E802C1914605E01FFA8CFC41
:103B7000042A01D10CF0FF0C4FF00008220728D5D1
:103B8000702806D0009B83F0100353EA0A0305D087
:103B90000EE040228DF80420012208E05CEA0102D8
:103BA00006D030228DF804208DF8050002229046C0
:103BB000009B83F0080353EA0A030AD15CEA01027E
:103BC00001D1620705D530228DF804204FF001089D
:103BD0007F1E582804D034A003900EA802900DE058
:103BE00036A0F9E753466046009AFCF7E9FA8446A6
:103BF0000398825C0298401E029002705CEA010009
:103C0000F0D1029806A9081A00F1200A600702D52F
:103C100024F4803400E00127574502DDA7EB0A00B9
:103C200000E0002000EB0A01009005984144401A92
:103C30000590E00306D45B462146179A059800F0EC
:103C4000B6F90544002706E001A85A46C05D179959
:103C500090476D1C7F1C4745F6DBE0030CD55B46A7
:103C60002146179A059800F0A2F9054404E0302097
:103C70005A46179990476D1C0099481E00900029DC
:103C8000F5DC08E0029802995A460078491C029136
:103C9000179990476D1CBAF10001AAF1010AF1DCF5
:103CA00065E1000009280100303132333435363700
:103CB0003839616263646566000000003031323378
:103CC0003435363738394142434445460000000018
:103CD00000F05BF90544761C307800287FF4ECADE9
:103CE00019B0284600F04EB9620700D4062709F142
:103CF000070222F0070CFCE80223E14603F000482B
:103D00005FEA080C02D00FF2702C0DE05FEA045C51
:103D100002D50FF2682C07E05FEAC47C02D00FF2F4
:103D2000602C01E0AFF2700C4FF0FF3823F000433D
:103D3000CDF850C065280CD006DC452809D04628AF
:103D40001DD047283DD13DE0662818D067287ED198
:103D500038E00021112F01DB112000E0781CCDE9B3
:103D6000000106A90EA8FFF7D9FCDDE90F010E9AA4
:103D700003910021009207F1010A04914DE04FF0F8
:103D800000400097CDE9011006A90EA8FFF7C6FC78
:103D9000DDE90F0203920E9B11990022DDF80CA0C1
:103DA0000093049211B9791C00EB010AB7EB0A00E9
:103DB00004D4C0F1FF3007F1010A0490AAEB070018
:103DC000019044E0012F00DA01270021112F01DDCD
:103DD000112000E03846CDE9000106A90EA8FFF742
:103DE0009DFCDDE90F010E9A0391002104910092E0
:103DF000BA4621070CD40399514500DA8A46BAF134
:103E0000010F05DD009AAAF10101515C302908D0AB
:103E1000B84202DA10F1040F06DA0121CDE90110EF
:103E200015E0AAF10101E9E7002805DC0499014445
:103E30000491AAEB000102E0411C514500DD8A46D5
:103E40000499401A401C01904FF000400290200756
:103E500004D40198504501DBCDF8048000208DF892
:103E60004F0002980DF14F07B0F1004F25D02B20E5
:103E70000E9002984FF0020800280CDA404202909F
:103E80002D200E9007E00A210298FCF7B7FB303195
:103E9000029007F8011DB8F10001A8F10108F2DC59
:103EA00002980028EFD1791E0E980870307800F043
:103EB000200040F0450007F8020D12A8C01B00F1D9
:103EC00007081498007800B1012000EB0A0101985E
:103ED00001EBE07105984144401A401E0590E00353
:103EE00006D45B462146179A059800F060F8054411
:103EF0001498007818B15A46179990476D1CE00342
:103F000024D55B462146179A059800F050F80544E1
:103F10001CE00498002807DBDDE90301884203DD8B
:103F20000098405C179901E0179930205A46904755
:103F3000049805F10105401C04900198401E019071
:103F400004D12E205A46179990476D1CBAF10001F2
:103F5000AAF1010ADDDC05E017F8010B5A461799B2
:103F600090476D1CB8F10001A8F10108F4DC5B4634
:103F70002146179A0598ABE62D0000002B000000A3
:103F80002000000030BCBDE8C08F2DE9F0410446A0
:103F900000251E461746880404D405E03946202033
:103FA000B0476D1C641EF9D52846BDE8F0812DE9A7
:103FB000F041044600251E469046C80301D530272F
:103FC00000E02027880404D505E041463846B04784
:103FD0006D1C641EF9D52846BDE8F0814A68002AA8
:103FE00006D00A68531C0B6010704868401E486079
:103FF000704782B0CDE9000121F0004001909DEDB5
:10400000000B02B051EC100B704700008AB0FCF7B7
:104010006DFEFEF758F92448C16C41F00101C164FE
:10402000C16C01F001010091C16C41F00801C16453
:10403000C06C242100F0080000906846FCF7FBF8F3
:104040001B491A4808600846FCF7ABFC00200090AA
:104050000190029003900490102269461448FCF7E6
:1040600013FCFDF781FFFDF7A9FFFDF753FFFDF7F7
:10407000A5FF10210E48FCF7E4FC0D485430FDF775
:1040800085FC0B481430FDF781FC0AA0FEF746FCC6
:104090000E4803219FED0E0B017080ED020B9FED8A
:1040A0000E0B80ED040BFEE7001002400074004090
:1040B000240000205374617274696E672070726FFF
:1040C0006772616D2E2E2E0A0D0000000000002088
:1040D0006666666666660A40000000000000594099
:1040E00000000000000000000102030406070809A8
:1040F000A0860100400D0300801A060000350C0068
:1041000040420F0080841E0000093D0000127A002A
:104110000024F40000366E010048E801006CDC0267
:1041200000000000010203044C5555555555A53FAC
:104130007751C1166CC156BF9015CB19A001FA3E3C
:10414000AD529C804F7E92BEC4B1B4BD9EEE213E66
:10415000D43888BEE9FAA8BD00004054FB21F93FDD
:104160003163621A61B4D03D0000601A61B4D03D81
:104170007370032E8A19A33B0000002E8A19A33BFB
:10418000C14920259A837B3900000000000000000F
:104190006E83F9A22915444ED15727FCC0DD34F5B2
:1041A000999562DB4190433CAB6351FE61C5BBDE38
:1041B0003A6E24B7E0D24D42EA2E49061C92D1094C
:1041C0001CEB1DFE3EA729B1F53582E88444BB2EC9
:1041D00026709CE9417E5FB439D69139F439538316
:1041E0008B5F849C3B28F9BDFF97F81F0F9805DE75
:1041F0008B112FEF1F6D0A5ACF7E366DB709CB2773
:10420000663F464F2DEA5F9EC7BA27757BF1E5EB07
:10421000F739073DEA92528AB15FFB6B085D8D1F4B
:10422000A6F810111111813FD561C119A0012ABF53
:104230007DFEB157E31DC73EEB9C2B8AE6E55ABED7
:104240007CD5CF5A3AD9E53D6842000800000020ED
:1042500024000000F03600088C42000824000020F2
:104260000C050000003700080300000000000000FB
:10427000000000000000000000000000000000003E
:0C4280000000000000093D0000000000EC
:040000050800018965
:00000001FF
