:020000040800F2
:10000000780400209D0100081D0A0008190A000854
:100010001B0A0008550800085D0F000800000000DA
:10002000000000000000000000000000210A00089D
:1000300057080008000000001F0A0008230A0008F3
:10004000B7010008B7010008B7010008B7010008B0
:10005000B7010008B7010008B7010008B7010008A0
:10006000B7010008B7010008B7010008B701000890
:10007000B7010008B7010008B7010008B701000880
:10008000B7010008B7010008B7010008B701000870
:10009000B7010008B7010008B7010008B701000860
:1000A000B7010008B7010008B7010008B701000850
:1000B000B70100086D0A0008B7010008B701000881
:1000C000B7010008B7010008B7010008B701000830
:1000D000B7010008B7010008B7010008B701000820
:1000E000B7010008B7010008B7010008B701000810
:1000F000B7010008B7010008B7010008B701000800
:10010000B7010008B7010008B7010008B7010008EF
:10011000B7010008B7010008B7010008B7010008DF
:10012000B7010008B7010008B7010008B7010008CF
:10013000B7010008B7010008B7010008B7010008BF
:10014000B7010008B7010008B7010008B7010008AF
:10015000B7010008B7010008B7010008B70100089F
:10016000B7010008B7010008B7010008B70100088F
:10017000B7010008B7010008B7010008000000003F
:10018000B7010008B7010008DFF80CD000F020FB31
:1001900000480047ED220008780400200648804708
:1001A00006480047FEE7FEE7FEE7FEE7FEE7FEE75C
:1001B000FEE7FEE7FEE7FEE7290A000889010008DE
:1001C0002DE9FE4F804681EA0300C00F0C460090E7
:1001D00021F0004123F00045B8EB0200A94105D20F
:1001E0004046214690461C460B46024623F00040FE
:1001F000104347D0270DC7F30A00C3F30A510290FA
:10020000401A019040286BDAC3F3130040F4801BBE
:100210000098924620B10023D2EB030A63EB0B0B4C
:1002200001985946C0F14002504600F0E5F90646F3
:100230000D4650465946019A00F0FDF910EB0800B2
:100240006141002487EA115284EAE7731A4340D0DF
:10025000009A62B3019A012A4FEA075215DC001B8B
:1002600061EB02014FF0004202EA0752CDE9004281
:10027000001C41F5801132462B4600F0FDF903B019
:1002800000F045B840462146F9E7001B61EB02014A
:10029000001C41F5801300185B412018A2F50017DF
:1002A00047EB030140EAD570B6196D4111E06D08C6
:1002B0004FEA360645EAC0754FEA0752001B61EB6C
:1002C0000201001C41F5801149084FEA3000001975
:1002D000514132462B4603B000F01CB800F0BDB9C6
:1002E0000098012240000023D0EB020263EBE07390
:1002F000009821464FEAE074B8EB000061EB04017E
:10030000E9E783F000435BE781F0004158E730BC48
:10031000BDE8C08F30BCBDE8C04FFFF7DFBF2DE99F
:10032000FE4F81EA030404F0004421F000410094F0
:100330004FF0000B23F0004350EA01045ED052EA74
:1003400003045BD0C3F30A54C1F30A552C44A4F24E
:10035000F3340194A0FB0254C1F3130141F4801162
:10036000C3F3130343F4801301FB024400FB034E69
:10037000840A970A44EA815447EA8357A4FB076832
:1003800002958D0A05FB07854FEA932C04FB0C545C
:100390002705029D4FEA065847EA1637B5EB0805D0
:1003A0006EEB070C870E920E47EA811742EA831222
:1003B000A7FB0201B6EB0B0164EB00042B0D43EA33
:1003C0000C335E1844EB1C50DA465146E7FB020141
:1003D000C5F313044FEA0B3343EA14534FEA0432D4
:1003E000019C43EA0603A4F10C040294009CCDE9AD
:1003F00000B400F041F903B000F003B8002001465A
:10040000F9E730BCBDE8C08F2DE9F04D81EA030467
:1004100004F0004B21F0004514464FF0000A23F091
:10042000004150EA050220D054EA01021DD0C5F374
:100430000A570246C5F31303C1F31300C1F30A566A
:1004400040F4801543F48013A7EB0608101BD64632
:1004500008F2FD3873EB050002D308F1010801E052
:1004600092185B41B8F1000F03DA00200146BDE8A5
:10047000F08D00204FF48011064684460EE0171BD5
:1004800073EB050705D3121B63EB050306434CEA28
:10049000010C49084FEA300092185B4150EA01070D
:1004A000EDD152EA030012D082EA040083EA05018A
:1004B000084305D0101BAB4106D20122002306E001
:1004C00000224FF0004302E06FF0010253101AEBDC
:1004D00006004CEB085110EB0A0041EB0B01BDE8A4
:1004E000F04D00F0BAB80EB540F233410291002150
:1004F000CDE900110A460B4600F0BEF803B000BD7E
:10050000C1F30A5210B5C1F3130140F2FF3341F4B5
:1005100080119A4201DA002010BD40F233439A4222
:10052000A2F2334203DC524200F075F810BD904055
:1005300010BD000030B5041E71F1000404DB4FF063
:100540000044404264EB0101141E73F1000405DB1A
:100550001C464FF00043524263EB0403994208BF2C
:10056000904230BD30B50B460146002020220124C8
:1005700009E021FA02F59D4205D303FA02F5491B71
:1005800004FA02F52844151EA2F10102F1DC30BD87
:100590002DE9F05F0546002092469B4688460646B8
:1005A000814640241BE0284641464746224600F04B
:1005B00032F853465A46C01A914110D31146184694
:1005C000224600F019F82D1A67EB01084F46224623
:1005D0000120002100F010F817EB00094E41201E09
:1005E000A4F10104DFDC484631462A46434600F0C8
:1005F00000B830BCBDE8C09F202A04DB203A00FAD6
:1006000002F1002070479140C2F1200320FA03F369
:10061000194390407047202A04DB203A21FA02F067
:100620000021704721FA02F3D040C2F1200291402C
:10063000084319467047202A06DBCB17203A41FAB7
:1006400002F043EAE07306E041FA02F3D040C2F15F
:100650002002914008431946704710B5141E73F1EB
:10066000000408DA401C41F1000192185B411A4372
:1006700001D120F0010010BD2DE9F04D92469B46BE
:1006800011B1B1FA81F202E0B0FA80F22032904664
:10069000FFF7B2FF04460F4640EA0A0041EA0B01A9
:1006A00053465A46084313D0114653EA010019D065
:1006B000C8F140025046FFF7AEFF05460E465046D1
:1006C00059464246FFF798FF084305D0012004E051
:1006D00020463946BDE8F08D0020054346EAE07625
:1006E0002C4337430A986305E40AA0EB0800002274
:1006F000FD0A44EA47540A3002D500200146E9E7E2
:10070000010510196941DDE9084500196941BDE895
:10071000F04DA2E72DE9FE4FC3F30A5701F0004563
:100720000024C1F30A56C3F31303C1F3130143F4C6
:10073000801312EB020AA64641F48011009543EBA8
:10074000030CA7F1010B16E0B0EB0A0061EB0C0102
:10075000071E71F1000707DA4FF00008D0EB080020
:1007600085F0004568EB0101171A73EB0107EBD325
:10077000761E001849415E45F6DA50EA010209D0BA
:10078000CDE900E5002213460296FFF775FF03B09E
:1007900000F003B820460099F9E730BCBDE8C08FEF
:1007A000C1F30A52C1F3130140F2FF3341F4801147
:1007B0009A4202DA00200146704740F233439A42DF
:1007C000A2F2334202DC5242FFF725BFFFF714BF0B
:1007D000064C074D06E0E06840F0010394E807008E
:1007E00098471034AC42F6D3FFF7D2FC202400081F
:1007F000402400080EB5C10F80EAE0700844CA0723
:10080000002140F233438DE80E000A460B46FFF705
:1008100033FF03B000BD70B5C1F30A5201F00045CB
:100820000024C1F3130140F2FF3341F480119A42D6
:1008300001DA002070BD40F233439A42A2F2334203
:1008400003DC5242FFF7E7FE00E090402C43F1D07A
:10085000404270BDFEE7704718B504680094006818
:10086000104421B1143000900360002018BD0830FE
:10087000F9E7000002480168491C01607047000068
:1008800018000020704770477047704770B50446E5
:10089000006801694FF00005C943890715D4C16894
:1008A000C943890711D4E91E01610120207720681E
:1008B00080698007204602D0FFF7E7FF04E000F0E0
:1008C000A7F8204600F0A5F8257720680169C943FC
:1008D000490717D4C168C943490713D46FF004010D
:1008E0000161022020772068806910F4407F204653
:1008F00002D0FFF7CAFF04E000F08AF8204600F0BB
:1009000088F8257720680169C943090716D4C168AA
:10091000C943090712D46FF0080101610420207750
:100920002068C0698007204602D0FFF7AEFF04E0D0
:1009300000F06EF8204600F06CF825772068016919
:10094000C943C90617D4C168C943C90613D46FF097
:1009500010010161082020772068C06910F4407FF1
:10096000204602D0FFF791FF04E000F051F8204646
:1009700000F04FF8257720680169C943C90708D1FD
:10098000C168C943C90704D1891E0161204600F02E
:1009900041F820680169C943090609D4C168C943FF
:1009A000090605D46FF0800101612046FFF76BFF57
:1009B00020680169C943C90509D4C168C94309064A
:1009C00005D46FF4807101612046FFF75BFF20685A
:1009D0000169C943490609D4C168C943490605D418
:1009E0006FF040010161204600F015F820680169B0
:1009F000C94389060BD4C168C943890607D46FF07F
:100A0000200101612046BDE87040FFF73DBF70BD89
:100A10007047704770477047FEE7FEE770477047C2
:100A20007047FFF727BF00000D48016841F47001CF
:100A300001600C48016841F0010101600021816002
:100A40000268094B1A4002608214C260026822F4F4
:100A50008022026081610249C003803908607047CA
:100A600088ED00E000100240FFFFF6EA10B50448F0
:100A7000FFF70CFF03480068BDE8104000F0D8B84D
:100A800034000020240400401448C16C41F00801E7
:100A9000C1641348016821F470510160016841F498
:100AA000205101600E482030016841F0EE61016084
:100AB0000B480830016841F470510160001D016865
:100AC00021F470510160016841F4A05101600448B3
:100AD000001D016821F060010160704700100240B4
:100AE000000C00480A4800B550F8581F41F4003186
:100AF0000160016B21F00C010163016B41F0040105
:100B00000163FFF7C1FF03485DF804EB00F00CB888
:100B10000010024000440040642148430721B0FB1C
:100B2000F1F0401EFDD17047016821F00101016024
:100B3000016821F010210160016821F40041016089
:100B4000416821F44051416042F28D01C160016869
:100B500041F00C0101601B4A1B4990421CD1016805
:100B600041F020010160016821F04001016001684D
:100B700021F010010160016821F08001016001682D
:100B800021F480710160016821F040010160016879
:100B900021F0010101600AE0884208D1016A41F0B8
:100BA0004001016209490A6842F0C0020A60016816
:100BB00041F001010160C1698902FCD5C1694902A6
:100BC000FCD57047004C004000440040083801400C
:100BD0000FB44FF4807100B5C1B043AB6846429A80
:100BE00000F0BEF96946034800F006F841B05DF830
:100BF00014FB00000044004070B50D4602464FF45F
:100C0000807400234FF49676E85C48B1D1690906F8
:100C1000FCD510853046FFF77FFF5B1CA342F3D362
:100C2000D0694006FCD5D06920F04000D06170BD8D
:100C300070B505462DED0E8B9FEDABAB0146AC4C70
:100C4000ACA0FFF7C5FF9FEDAD8B2846FFF74BFC2F
:100C50009FEDAC1B53EC112BFFF7D6FB94ED020B71
:100C600041EC190B53EC1A2B51EC100BFFF762FC03
:100C700001D284ED02AB20789FEDA4BB9FEDA5CB04
:100C8000032808D004282BD09FEDA4BB02287AD0DB
:100C9000012879D0EBE094ED020B53EC1C2B51ECC6
:100CA000100BFFF73CFB41EC180B53EC1B2B51ECEA
:100CB000190BFFF734FB94ED041B53EC112BFFF7DA
:100CC0002EFB41EC100B00F0FBF953EC182B51EC10
:100CD000100BFFF724FB53EC182BFFF771FAC4E05D
:100CE00094ED020B53EC1C2B51EC100BFFF717FB90
:100CF00041EC1C0B53EC1B2B51EC190BFFF70FFBBA
:100D000094ED041B53EC112BFFF709FB41EC180B7E
:100D10009FED849B53EC192BFFF701FB41EC100B6B
:100D200000F0CEF953EC192B51EC100BFFF76CFBD4
:100D300041EC1E0B9FED7D9B51EC180B53EC192BD6
:100D4000FFF7EDFA41EC100B00F0BAF953EC192B58
:100D500051EC100BFFF758FB41EC1D0B9FED759B01
:100D600051EC180B53EC192BFFF7D9FA41EC100B8F
:100D700000F0A6F953EC192B51EC100BFFF744FBD4
:100D800041EC1B0B01E031E089E09FED6C9B51ECE5
:100D9000180B53EC192BFFF7C2FA41EC100B00F0C3
:100DA0008FF953EC192B51EC100BFFF72DFB41EC95
:100DB000190BB0EE480AF0EE680A00F081F953EC26
:100DC000192B51EC100BFFF7FBF953EC1B2BFFF722
:100DD000F7F953EC1D2BFFF7F3F953EC1E2BFFF73C
:100DE000EFF941EC100B53EC1C2B3AE094ED040BA3
:100DF00051EC1B0B53EC102BFFF706FB41EC1D0BCA
:100E0000B0EE490AF0EE690AB0EE4D1AF0EE6D1A36
:100E100000F0D4F8B0EE408AF0EE608A53EC1C2B60
:100E200051EC1D0BFFF77BFA0E4646EC110B054605
:100E300053EC182B51EC110BFFF77CFB46EC105BCD
:100E400051EC180B53EC102B41D3FFF7DDFA53ECA8
:100E50001B2BFFF756FA94ED021B41EC100B53ECE1
:100E6000112B51EC100BFFF75AFA41EC180B53EC15
:100E70001A2B51EC180BFFF7C7FA9FED321B53ECFE
:100E8000112BFFF74CFAFFF73BFB00F061B8C3B240
:100E900008221021BDE870402C48FFF7DDBC94ED1E
:100EA000040B51EC1B0B53EC102BFFF7ADFA41EC8C
:100EB000180BB0EE490AF0EE690AB0EE481AF0EEEF
:100EC000681A00F07BF853EC182B51EC100BFFF76D
:100ED0009BFA94ED028B53EC182BFFF720FA53EC9E
:100EE000182BFFF711FAC0E76666666666660A4069
:100EF0000000002025640A0D000000000000000032
:100F000000000000000000000088D3401F85EB5166
:100F1000B81E1940000000000000E03F0000000083
:100F20000000F03F00000000000022400000000030
:100F300000001C4000000000000014400000000001
:100F4000000008400000000000E06F40200000208A
:100F5000BDEC088BBDEC06CBFFF799BFFEE70000A8
:100F60007CB5044600201D46164600290BD0491EBC
:100F7000CDE90041044B6A462946304600F004FEA4
:100F8000009A002111707CBDBD22000803B40198B5
:100F90004100009850EAC12018BF04204A0D18BF34
:100FA00040F0010040F2FF72B2EB515F08BF40F029
:100FB0000200012808BF052002B0704710B52DEDD2
:100FC000040B86B09DED060B10EE100A10EE901A81
:100FD0008DED000B002818BF0120084320F00040D1
:100FE000C0F17F6000F1E040C00F21D19DED080B02
:100FF00010EE101A10EE900A8DED000B002918BFAC
:101000000121084320F00040C0F17F6000F1E04082
:10101000C00F0DD129490798B1EB400F04BF0698C6
:10102000002842D00998400004BF089800283CD00E
:101030009DED080B53EC102B9DED060B51EC100BA6
:10104000FFF768FBCDE902019DED020B40F2FF7155
:1010500010EE900A8DED000B31EA105021D0079868
:10106000039900F0004001F00041884219D09DED45
:10107000080B8DED040B9DED020B8DED000B10EEBA
:10108000900A059961F31E0005909DED041B9DEDEE
:10109000020B51EC110B53EC102BFFF735F9CDE996
:1010A00002019DED020B0AB010BD012000F0A0FC72
:1010B0000AB0BDE8104000F06BBC00000000E0FF8B
:1010C00010B52F499FED2C1B2DED020B84B0059818
:1010D00020F000408842DCBF00209DED040B32DD93
:1010E0002849884209D1049840B94FF0010000F026
:1010F0007FFC00F04DFC06B010BD05DB9DED040B40
:1011000000F03AFC06B010BD68469DED040B00F0FF
:101110003BF810F0030011D0012818D09DED021B00
:101120009DED000B02281AD000F04EFA51EC100B86
:1011300081F0004106B041EC100B10BD9DED021B8B
:101140009DED000B012000F073FB06B010BD9DED7E
:10115000021B9DED000B00F037FA06B010BD012018
:1011600000F066FB51EC100B81F0004106B041EC41
:10117000100B10BD00000000000000000000000087
:10118000FB21E93F0000F07F2DE9F14F04462DEDF2
:10119000020B2DED088B8AB09FEDE70B80ED020B63
:1011A000139EE74826F0004585420ADC9DED120BB0
:1011B000002084ED000B0AB0BDEC088B03B000F0FA
:1011C000FFB9E0489FEDE0AB9FEDE1BBA84247DDF2
:1011D000E14F9FEDE39B9FEDE48B9DED120B53ECF4
:1011E0001A2B51EC100B002E1CDDFFF78AF841EC96
:1011F000100BBD4208D053EC1B2B51EC100BFFF72A
:1012000080F8C4E900010BE053EC192B51EC100BF2
:10121000FFF777F853EC182BFFF773F8C4E90001D8
:101220000120C8E7FEF7CCFF41EC100BBD4208D00F
:1012300053EC1B2B51EC100BFEF7C2FFC4E900016D
:101240000BE053EC192B51EC100BFEF7B9FF53ECEC
:10125000182BFEF7B5FFC4E900014FF0FF30AAE7F5
:10126000C348A84279DB9DED120B51EC100B01F045
:1012700030F841EC180B9FEDC00B53EC102BFFF72F
:101280004EF89FEDBF1B53EC112BFEF799FFFFF7B4
:10129000C2FA0746FFF7AEFA41EC190B53EC1A2BD2
:1012A000FFF73DF853EC182BFFF72EF841EC180B25
:1012B00053EC1B2B51EC190BFFF731F8DFF8C8A2E8
:1012C00041EC100B4FEA15580125FA4453EC102B52
:1012D00051EC180BFFF715F8032DC4E900013DD0C0
:1012E000C1F30A5005EB4511A8EB0000113981420A
:1012F00034DA0AEB051BB0EE48AA9BED000BF0EECA
:1013000068AA53EC102B51EC190BFFF708F841ECCD
:101310001B0B51EC1A0B53EC1B2BFEF7F2FF41ECAD
:10132000180B51EC1A0B53EC182BFEF7EAFF53EC99
:101330001B2BFEF7E6FF9BED020B41EC1A0B53EC67
:10134000102B51EC190BFEF7EAFF53EC1A2BFEF7AA
:10135000D8FF41EC100B6D1CB8E70EE0002EA8BFC3
:101360003846BFF628AF94ED000B51EC100B81F01E
:101370000041C4E9000178421DE7C6F3130040F4C0
:10138000801EC6F30A50A0F2F530471100F01F0589
:10139000C5F12000DDF848B00890002006900790C5
:1013A0000520EC467949002D07EB0002794408BF7F
:1013B00051F8221009D051F8223001EB8201AB40E4
:1013C0004A68089922FA01F11943A1FB0E26A1FBF4
:1013D0000B131A449A4234BF0123002303EB06087F
:1013E0000CEB8003D3E901A60E448E4234BF0121E9
:1013F000002192448A4411B1924502D903E09245FA
:1014000001D2012100E00021C3E901A641444CF8CA
:101410002010011EA0F10100C4DC029800F1005070
:10142000850F0298DDE903678000DDF81480FFF77F
:10143000E1F941EC1A0B3046FFF755F89FED541BCC
:1014400053EC112BFEF76BFF41EC1B0B3846FFF7FB
:101450004AF89FED511B53EC112BFEF760FF41EC56
:10146000180B4046FFF73FF89FED4D1B53EC112B37
:10147000FEF755FF41EC190B51EC180B53EC192BEF
:10148000FEF79EFE53EC1B2BFEF79AFE53EC1A2B35
:10149000FEF796FECDE90801002008909DED080BAF
:1014A00053EC1A2B51EC100BFEF72BFF53EC1B2BBC
:1014B000FEF727FF53EC182BFEF723FF53EC192BF5
:1014C000FEF722FF9FED381B53EC112BFEF727FF91
:1014D0009FED370B41EC180B53EC102B9DED080BD7
:1014E00051EC100BFEF71BFF53EC182BFEF768FEB8
:1014F0009FED310B41EC180B53EC102B9DED080BBD
:1015000051EC100BFEF70BFF53EC182BFEF758FEB7
:1015100041EC100B139810F0004F06D06D4251ECC7
:10152000100B81F0004141EC100B284684ED000BBC
:1015300041E6000000000000000000000000000084
:10154000FB21E93F7CD9024000004054FB21F93FD8
:101550003163621A61B4D03DFB21F93F0000000005
:101560000000601A61B4D03D7370032E8A19A33B4A
:10157000FB2139410000000083C8C96D305FE43FA2
:10158000000000000000E03F62100000B00F00000B
:10159000000000000000103E000000000000103CB1
:1015A000000000000000103A182D4454FB21F93DC2
:1015B0003326A611460B113C00000054FB21F93DD7
:1015C00030BCBDE8C08F000010B52DED040B2DED33
:1015D000088B82B0B0EE419AF0EE619A0B9820F041
:1015E00000449FED4BABB4F1795F11DA9DED0A0B2E
:1015F00051EC100BFFF70FF9002801BFB0EE4A0ABB
:10160000F0EE6A0A02B0BDEC088B04BF04B010BD56
:101610009DED0A0B53EC102B51EC100BFEF77FFEE7
:1016200041EC180B3C480621B0EE480AF0EE680A7F
:10163000784400F081F853EC182B51EC100BFEF7B6
:101640006EFE9DED0A0B41EC1B0B53EC192B51EC7C
:10165000100BFEF764FE41EC190B53EC1B2B51EC05
:10166000180BFEF75CFE53EC192BFEF74AFE9FEDBC
:101670002C0B41EC190B53EC102B51EC180BFEF713
:101680004EFE41EC100B2848844210DA53EC192B23
:1016900051EC100BFEF735FE53EC1A2BFEF734FE1F
:1016A00041EC100B02B0BDEC088B04B010BD1F481C
:1016B000A042BCBF9FED1E1B8DED001B06DBA4F5F9
:1016C00000100190002000909DED001B51EC100BCC
:1016D00053EC112BFEF715FE9DED000B41EC180BA2
:1016E00053EC102B51EC1A0BFEF70BFE41EC1A0BCE
:1016F00053EC192B51EC180BFEF703FE53EC1A2B8D
:10170000FEF702FE41EC100BCCE7000000000000E9
:10171000000000000000F03FCC0C000000000000C2
:10172000000000000000E03F3333D33F0000E93FFA
:10173000000000000000D23F70B504462DED028B82
:101740004D1E00EBC500B0EE408AF0EE608A90EDD1
:10175000000B35F0060017D053EC182B51EC100B92
:10176000FEF7DDFD41EC100B6D1E04EBC50090EDA6
:10177000001B51EC100B53EC112BFEF721FD41EC3B
:10178000100B35F00600E7D1022D36D0042D1CD009
:10179000062D1CBFBDEC028B70BD53EC182B51EC19
:1017A000100BFEF7BCFD94ED0A1B53EC112BFEF75A
:1017B00007FD53EC182BFEF7B2FD94ED081B53EC1C
:1017C000112BFEF7FDFC41EC100B53EC182B51ECE8
:1017D000100BFEF7A4FD94ED061B53EC112BFEF746
:1017E000EFFC53EC182BFEF79AFD94ED040B53EC31
:1017F000102BFEF7E5FC41EC100B53EC182B51ECD1
:10180000100BFEF78CFD94ED021B53EC112BFEF731
:10181000D7FC53EC182BFEF782FD94ED001B53EC24
:10182000112BFEF7CDFCBDEC028B41EC100B70BD13
:1018300031B504462DED040B2DED0A8BB0EE41BA07
:10184000F0EE61BA0B989DED0A0B20F00040B0F16C
:10185000795F0DDA51EC100BFFF798FB042808BFF5
:1018600000F0A6F89DED0A0B00F07AB805B030BD87
:1018700053EC102B51EC100BFEF751FD41EC180B03
:101880009DED0A0B53EC182B51EC100BFEF747FDA6
:1018900041EC190B2C48B0EE480AF0EE680A05211D
:1018A0007844FFF749FF9FED2ACBB0EE40AAF0EE57
:1018B00060AA9CB353EC1C2B51EC190BFEF72FFDC7
:1018C00041EC1C0B53EC1A2B51EC190BFEF727FDC6
:1018D0009FED210B41EC190B53EC102B51EC1B0B22
:1018E000FEF71DFD53EC192BFEF70BFD53EC182BE7
:1018F000FEF715FD53EC1B2BFEF703FD53EC1C2BE1
:10190000FEF7FFFC9DED0A1B53EC112BFEF7FCFCD0
:1019100000F02CB805B041EC100B30BDFFE753ECE4
:101920001A2B51EC180BFEF7FAFC53EC1C2BFEF7AC
:1019300047FC53EC192BFEF7F2FC9DED0A1B53EC10
:10194000112BFEF73DFCE3E7540B00000000000004
:10195000495555555555C5BF000000000000E03FF2
:10196000BDEC088BBDEC02CBFFF780BFBDEC088B54
:10197000BDEC02CBFFF7CEBF10B553EC102B51ECF2
:10198000100BFEF71DFC41EC100B10BD0000000019
:101990009FED050B10B553EC102B51EC100BFEF71F
:1019A00033FD41EC100B10BD0000000000000000F2
:1019B0009FED050B10B553EC102B51EC100BFEF7FF
:1019C000AEFC41EC100B10BD000000000000001048
:1019D00002E008C8121F08C1002AFAD170477047F8
:1019E000002001E001C1121F002AFBD17047000056
:1019F00001490860704700001C0000202DE9FF5FCE
:101A000082B00021DDE90430020DDDF840B003436F
:101A100018D044F61050A2F2FF3242431514119828
:101A200001281FD0A5EB0B00401C5FEA000A4FF015
:101A300000064E4FDFF83891B046504615D5CAF132
:101A4000000413E0119801244AA3012801D16FEA90
:101A50000B010298119AC0E90031C0E9024206B0B8
:101A600000F08EB8CBF10000DFE704460021404AC9
:101A7000491842EB0450CDE9001012E0E00707D00E
:101A800032463B4640464946FEF749FC8046894679
:101A900032463B4610461946FEF741FC06460F46C5
:101AA0006410002CEAD1DDE90401DDE90023BAF17C
:101AB000000F06DAFEF733FC42464B46FEF72FFCDA
:101AC00005E0FEF7A1FC42464B46FEF79DFC0446AE
:101AD0000E460022284BFEF72DFD03D84FF0FF30B5
:101AE000014607E00022254B20463146FEF768FB01
:101AF000FEF756FE102409E0002C0ADB0A22002320
:101B0000FEF746FD039B30321A55641E50EA01026F
:101B1000F2D1641C039AC4F111031444119A012AEE
:101B200003D0012208430DD10AE0084304D000206D
:101B30004FF0110B119072E7A3EB0B056D1E0DE03A
:101B40005B4504DD4FF0000205F1010504E003DA16
:101B50004FF00002A5F10105002AECD0029811997E
:101B6000C0E90231C0E9004579E7000000001440F7
:101B70000000F03F300000000000F0430000E03FB4
:101B800030BCBDE8C09F00002DE9FF4F95B09B46DB
:101B90008946064600250FE2252877D100242746EE
:101BA000F84A0121059400E0044316F8013F203B68
:101BB00001FA03F01042F7D130782A2811D06FF0E3
:101BC0002F033078A0F13002092A16D8059A44F084
:101BD000020402EB820203EB42021044761C0590E1
:101BE000EFE759F8042B0592002A03DA504244F437
:101BF0000054059044F00204761C30782E2816D14B
:101C000016F8010F44F004042A280DD06FF02F02BB
:101C10003078A0F13003092B09D807EB870302EBDA
:101C20004303C718761CF3E759F8047B761C307819
:101C30006C280FD006DC4C2817D068280DD06A28F5
:101C400014D104E0742810D07A280FD10DE044F4A8
:101C500000140AE044F4801401E044F44014727863
:101C6000824202D104F58014761C761C30786628F6
:101C70000BD013DC582877D009DC002875D0452814
:101C8000F6D04628F4D047281AD19DE118E0632801
:101C900035D0642879D0652812D195E1702873D0A9
:101CA00008DC6728F1D069286FD06E280DD06F2826
:101CB00006D1B5E073282CD0752875D0782874D05B
:101CC0005A46179990476D1C75E1C4F302500228DB
:101CD00009D003280DD0D9F8001004280DD00D60CC
:101CE00009F1040967E1D9F80010EA17C1E90052C7
:101CF000F6E7D9F800100D80F2E70D70F0E719F85B
:101D0000041B8DF8001000208DF80100EA46012028
:101D100003E059F804AB4FF0FF3061074FF00001CA
:101D200002D40DE008F101018846B9420FDA80457E
:101D3000F8DB1AF808100029F4D108E008F10101D5
:101D400088468142FADB1AF808100029F6D1059876
:101D50005B46A0EB080721463846179A00F097FA31
:101D6000284400EB080507E04DE029E10DE01AF8F2
:101D7000010B5A4617999047B8F10108F7D25B4614
:101D800021463846179A13E142E00A220092C4F332
:101D900002524FF0000A022A08D059F804CB032A55
:101DA0004FEAEC710AD00DE029E02AE009F10701C1
:101DB00021F00702F2E802C1914609E00FFA8CFC1B
:101DC0004FEAEC71042A03D14FFA8CFC4FEAEC7114
:101DD000002907DA0A460021DCF1000C61EB020160
:101DE0002D2202E0220504D52B228DF804200122A9
:101DF00003E0E20701D02022F7E7904659E00A21EC
:101E000002E010220DE010214FF0000A00910BE0DB
:101E100010224FF0000A44F004040827009203E067
:101E200008224FF0000A0092C4F30252022A05D0A1
:101E300059F804CB0021032A08D009E009F1070171
:101E400021F00702F2E802C1914605E01FFA8CFC7E
:101E5000042A01D10CF0FF0C4FF00008220728D50E
:101E6000702806D0009B83F0100353EA0A0305D0C4
:101E70000EE040228DF80420012208E05CEA010215
:101E800006D030228DF804208DF8050002229046FD
:101E9000009B83F0080353EA0A030AD15CEA0102BB
:101EA00001D1620705D530228DF804204FF00108DA
:101EB0007F1E582804D034A003900EA802900DE095
:101EC00036A0F9E753466046009AFEF761FB844668
:101ED0000398825C0298401E029002705CEA010046
:101EE000F0D1029806A9081A00F1200A600702D56D
:101EF00024F4803400E00127574502DDA7EB0A00F7
:101F000000E0002000EB0A01009005984144401ACF
:101F10000590E00306D45B462146179A059800F029
:101F2000B6F90544002706E001A85A46C05D179996
:101F300090476D1C7F1C4745F6DBE0030CD55B46E4
:101F40002146179A059800F0A2F9054404E03020D4
:101F50005A46179990476D1C0099481E0090002919
:101F6000F5DC08E0029802995A460078491C029173
:101F7000179990476D1CBAF10001AAF1010AF1DC32
:101F800065E100000928010030313233343536373D
:101F900038396162636465660000000030313233B5
:101FA0003435363738394142434445460000000055
:101FB00000F05BF90544761C307800287FF4ECAD26
:101FC00019B0284600F04EB9620700D4062709F17F
:101FD000070222F0070CFCE80223E14603F0004868
:101FE0005FEA080C02D00FF2702C0DE05FEA045C8F
:101FF00002D50FF2682C07E05FEAC47C02D00FF232
:10200000602C01E0AFF2700C4FF0FF3823F000437A
:10201000CDF850C065280CD006DC452809D04628EC
:102020001DD047283DD13DE0662818D067287ED1D5
:1020300038E00021112F01DB112000E0781CCDE9F0
:10204000000106A90EA8FFF7D9FCDDE90F010E9AE1
:1020500003910021009207F1010A04914DE04FF035
:1020600000400097CDE9011006A90EA8FFF7C6FCB5
:10207000DDE90F0203920E9B11990022DDF80CA0FE
:102080000093049211B9791C00EB010AB7EB0A0026
:1020900004D4C0F1FF3007F1010A0490AAEB070055
:1020A000019044E0012F00DA01270021112F01DD0A
:1020B000112000E03846CDE9000106A90EA8FFF77F
:1020C0009DFCDDE90F010E9A03910021049100921D
:1020D000BA4621070CD40399514500DA8A46BAF171
:1020E000010F05DD009AAAF10101515C302908D0E9
:1020F000B84202DA10F1040F06DA0121CDE901102D
:1021000015E0AAF10101E9E7002805DC0499014482
:102110000491AAEB000102E0411C514500DD8A4612
:102120000499401A401C01904FF000400290200793
:1021300004D40198504501DBCDF8048000208DF8CF
:102140004F0002980DF14F07B0F1004F25D02B2022
:102150000E9002984FF0020800280CDA40420290DC
:102160002D200E9007E00A210298FEF7FBF930318E
:10217000029007F8011DB8F10001A8F10108F2DC96
:1021800002980028EFD1791E0E980870307800F080
:10219000200040F0450007F8020D12A8C01B00F116
:1021A00007081498007800B1012000EB0A0101989B
:1021B00001EBE07105984144401A401E0590E00390
:1021C00006D45B462146179A059800F060F805444E
:1021D0001498007818B15A46179990476D1CE0037F
:1021E00024D55B462146179A059800F050F805441F
:1021F0001CE00498002807DBDDE90301884203DDC9
:102200000098405C179901E0179930205A46904792
:10221000049805F10105401C04900198401E0190AE
:1022200004D12E205A46179990476D1CBAF100012F
:10223000AAF1010ADDDC05E017F8010B5A461799EF
:1022400090476D1CB8F10001A8F10108F4DC5B4671
:102250002146179A0598ABE62D0000002B000000E0
:102260002000000030BCBDE8C08F2DE9F0410446DD
:1022700000251E461746880404D405E03946202070
:10228000B0476D1C641EF9D52846BDE8F0812DE9E4
:10229000F041044600251E469046C80301D530276C
:1022A00000E02027880404D505E041463846B047C1
:1022B0006D1C641EF9D52846BDE8F0814A68002AE5
:1022C00006D00A68531C0B6010704868401E4860B6
:1022D000704782B0CDE9000121F0004001909DEDF2
:1022E000000B02B051EC100B70470000FEF7FAFB38
:1022F00001A0FEF76DFCFBE7546573742E0000002F
:102300004C5555555555A53F7751C1166CC156BF13
:102310009015CB19A001FA3EAD529C804F7E92BE23
:10232000C4B1B4BD9EEE213ED43888BEE9FAA8BD42
:1023300000004054FB21F93F3163621A61B4D03D83
:102340000000601A61B4D03D7370032E8A19A33B5C
:102350000000002E8A19A33BC14920259A837B39AE
:1023600000000000000000006E83F9A22915444E11
:10237000D15727FCC0DD34F5999562DB4190433C91
:10238000AB6351FE61C5BBDE3A6E24B7E0D24D426D
:10239000EA2E49061C92D1091CEB1DFE3EA729B16D
:1023A000F53582E88444BB2E26709CE9417E5FB4FB
:1023B00039D69139F43953838B5F849C3B28F9BD1E
:1023C000FF97F81F0F9805DE8B112FEF1F6D0A5A2C
:1023D000CF7E366DB709CB27663F464F2DEA5F9E0D
:1023E000C7BA27757BF1E5EBF739073DEA92528AC8
:1023F000B15FFB6B085D8D1FA6F810111111813FB5
:10240000D561C119A0012ABF7DFEB157E31DC73EAA
:10241000EB9C2B8AE6E55ABE7CD5CF5A3AD9E53DEE
:10242000402400080000002020000000D01900080F
:10243000602400082000002058040000E019000873
:102440000300000000000000000000000000000089
:10245000000000000000000000000000000000007C
:040000050800018965
:00000001FF
