:020000040800F2
:1000000088F300207D020008B71D00082D1C0008A1
:10001000B51D0008F5080008452A0008000000008A
:100020000000000000000000000000009D0100082A
:100030005109000800000000F9010008E120000853
:10004000970200089702000897020008970200082C
:10005000970200089702000897020008970200081C
:10006000970200089702000897020008970200080C
:1000700097020008970200089702000897020008FC
:1000800097020008970200089702000897020008EC
:1000900097020008970200089702000897020008DC
:1000A00097020008E521000897020008970200085F
:1000B00097020008970200089702000897020008BC
:1000C00097020008970200089702000897020008AC
:1000D000970200089702000897020008970200089C
:1000E000970200089702000897020008970200088C
:1000F000970200089702000897020008970200087C
:10010000970200089702000897020008970200086B
:10011000970200089702000897020008970200085B
:10012000970200089702000897020008970200084B
:10013000970200089702000897020008970200083B
:10014000970200089702000897020008970200082B
:10015000970200089702000897020008970200081B
:10016000970200089702000897020008970200080B
:10017000970200089702000897020008000000009C
:100180009702000897020008DFF80CD000F0ECFAA4
:1001900000480047D533000888F300202C4B19682D
:1001A000086800F05AB880F30988BFF36F8F4FF0EA
:1001B000000080F3118870470000000008480068C4
:1001C000006880F308884FF0000080F3148862B65E
:1001D00061B6BFF34F8FBFF36F8F00DF00BF00BF6B
:1001E00008ED00E0DFF80C00016841F470010160E7
:1001F000704700BF88ED00E0EFF30980BFF36F8F19
:10020000134B1A681EF0100F08BF20ED108A20E96A
:10021000F04F106009B44FF0500080F31188BFF325
:100220004F8FBFF36F8F03F071FE4FF0000080F32C
:10023000118809BC1968086800F014B81EF0100F86
:1002400008BF00F014B880F30988BFF36F8F7047C0
:1002500020000020EFF30580704730C8B0E8C04FA1
:10026000FFF7A1BF30C8B0E8C04FFFF7E7BFB0EC61
:10027000088AB0EC08CAFFF7E6BF000006488047CE
:1002800006480047FEE7FEE7FEE7FEE7FEE7FEE77B
:10029000FEE7FEE7FEE7FEE7A1210008890100086E
:1002A0002DE9F05F0546002092469B4688460646AB
:1002B000814640241BE0284641464746224600F03E
:1002C0007FF853465A46C01A914110D3114618463A
:1002D000224600F066F82D1A67EB01084F462246C9
:1002E0000120002100F05DF817EB00094E41201EAF
:1002F000A4F10104DFDC484631462A46434600F0BB
:1003000000B830BCBDE8C09F40EA01039B0703D0A2
:1003100009E008C9121F08C0042AFAD203E011F844
:10032000013B00F8013B521EF9D27047D2B201E006
:1003300000F8012B491EFBD270470022F6E710B5EA
:1003400013460A4604461946FFF7F0FF204610BD43
:1003500010B5044604E00B7800F8013B03B1491CDA
:10036000521EF8D2204610BD421C10F8011B002975
:10037000FBD1801A704730B50B4601460020202281
:10038000012409E021FA02F59D4205D303FA02F5A2
:10039000491B04FA02F52844151EA2F10102F1DC02
:1003A00030BD202A04DB203A00FA02F10020704719
:1003B0009140C2F1200320FA03F3194390407047A3
:1003C000202A04DB203A21FA02F00021704721FAAA
:1003D00002F3D040C2F12002914008431946704711
:1003E0002DE9FE4F804681EA0300C00F0C460090C5
:1003F00021F0004123F00045B8EB0200A94105D2ED
:100400004046214690461C460B46024623F00040DB
:10041000104347D0270DC7F30A00C3F30A510290D7
:10042000401A019040286BDAC3F3130040F4801B9C
:100430000098924620B10023D2EB030A63EB0B0B2A
:1004400001985946C0F140025046FFF7AAFF064600
:100450000D4650465946019A00F098F910EB0800F5
:100460006141002487EA115284EAE7731A4340D0BD
:10047000009A62B3019A012A4FEA075215DC001B69
:1004800061EB02014FF0004202EA0752CDE900425F
:10049000001C41F5801132462B4600F098F903B05C
:1004A00000F045B840462146F9E7001B61EB020128
:1004B000001C41F5801300185B412018A2F50017BD
:1004C00047EB030140EAD570B6196D4111E06D08A4
:1004D0004FEA360645EAC0754FEA0752001B61EB4A
:1004E0000201001C41F5801149084FEA3000001953
:1004F000514132462B4603B000F01CB800F058B909
:100500000098012240000023D0EB020263EBE0736D
:10051000009821464FEAE074B8EB000061EB04015B
:10052000E9E783F000435BE781F0004158E730BC26
:10053000BDE8C08F30BCBDE8C04FFFF7DFBF2DE97D
:10054000FE4F81EA030404F0004421F000410094CE
:100550004FF0000B23F0004350EA01045ED052EA52
:1005600003045BD0C3F30A54C1F30A552C44A4F22C
:10057000F3340194A0FB0254C1F3130141F4801140
:10058000C3F3130343F4801301FB024400FB034E47
:10059000840A970A44EA815447EA8357A4FB076810
:1005A00002958D0A05FB07854FEA932C04FB0C543A
:1005B0002705029D4FEA065847EA1637B5EB0805AE
:1005C0006EEB070C870E920E47EA811742EA831200
:1005D000A7FB0201B6EB0B0164EB00042B0D43EA11
:1005E0000C335E1844EB1C50DA465146E7FB02011F
:1005F000C5F313044FEA0B3343EA14534FEA0432B2
:10060000019C43EA0603A4F10C040294009CCDE98A
:1006100000B400F0DCF803B000F003B8002001469D
:10062000F9E730BCBDE8C08F2DE9F04D81EA030445
:1006300004F0004B21F0004514464FF0000A23F06F
:10064000004150EA050220D054EA01021DD0C5F352
:100650000A570246C5F31303C1F31300C1F30A5648
:1006600040F4801543F48013A7EB0608101BD64610
:1006700008F2FD3873EB050002D308F1010801E030
:1006800092185B41B8F1000F03DA00200146BDE883
:10069000F08D00204FF48011064684460EE0171BB3
:1006A00073EB050705D3121B63EB050306434CEA06
:1006B000010C49084FEA300092185B4150EA0107EB
:1006C000EDD152EA030012D082EA040083EA050168
:1006D000084305D0101BAB4106D20122002306E0DF
:1006E00000224FF0004302E06FF0010253101AEBBA
:1006F00006004CEB085110EB0A0041EB0B01BDE882
:10070000F04D00F055B8C1F30A52C1F3130140F2A5
:10071000FF3341F480119A4202DA0020014670470B
:1007200040F233439A42A2F2334202DC5242FFF7D4
:1007300047BEFFF736BE000030B5041E71F100045D
:1007400004DB4FF00044404264EB0101141E73F1DE
:10075000000405DB1C464FF00043524263EB0403E8
:10076000994208BF904230BD064C074D06E0E06854
:1007700040F0010394E8070098471034AC42F6D3E8
:10078000FFF706FDBC470008DC470008202A06DB0F
:10079000CB17203A41FA02F043EAE07306E041FA4F
:1007A00002F3D040C2F1200291400843194670473D
:1007B00010B5141E73F1000408DA401C41F1000169
:1007C00092185B411A4301D120F0010010BD2DE9C0
:1007D000F04D92469B4611B1B1FA81F202E0B0FAB7
:1007E00080F220329046FFF7DCFD04460F4640EAD7
:1007F0000A0041EA0B0153465A46084313D01146FA
:1008000053EA010019D0C8F140025046FFF7D8FD65
:1008100005460E46504659464246FFF7C2FD08437C
:1008200005D0012004E020463946BDE8F08D0020C7
:10083000054346EAE0762C4337430A986305E40A09
:10084000A0EB08000022FD0A44EA47540A3002D512
:1008500000200146E9E7010510196941DDE9084575
:1008600000196941BDE8F04DA2E700007FB51F4CBB
:1008700001A9206A05686069006801900020029063
:10088000034602460390284603F050FC01282CD171
:10089000284603F0FAF9616A0A68824200D20860C9
:1008A000D4E9060101AD096801EB410100EB8100CB
:1008B00095E80E0080E80E00E0690168491C0160BF
:1008C00069460B4800F088FF0099B420B1FBF0F2B4
:1008D00000FB12103C30009001D1032000906069B1
:1008E000009900680844A16A08607FBDA00000204C
:1008F000CC510020FEE7000000EBC0010B4800EBEC
:100900008101D1E90620018A69B1C0686FF007034F
:1009100003EBC1010144D1E9000121B91168814211
:1009200001D901207047002070470000CC00002052
:100930000649002046F270234A6912689A4204D898
:10094000896A09688A4200D301207047A00000200C
:1009500070477047F8B500EBC00115486FF007020B
:1009600000EB81000025C4694FF4E167218AE0684B
:1009700002EBC1014658257069460E4800F02CFF75
:100980000098B0FBF7F107FB110000F5E160009063
:10099000304446F27021884208D2228AE16801EB95
:1009A000C201C1E90005208A401C2082F8BD000078
:1009B000CC000020CC510020044900EBC00001EB2A
:1009C00080000021C069017070470000CC00002049
:1009D000704700002DE9F84FDFF898B100234FF081
:1009E000010C4FF0030A4FF00F090BF1040EB9E0B0
:1009F0000CFA03F4224070D04D68022D01D0122D64
:100A00000ED1DD0800EB8508D8F820505E07F70E00
:100A100009FA07F6B5430E69BE402E43C8F82060B8
:100A200007685E0091F804800AFA06F508F00308EA
:100A3000AF4308FA06F848EA0708C0F800804F6894
:100A4000012F05D0022F03D0112F01D0122F13D167
:100A5000D0F80880CF6828EA0508B74047EA0807B9
:100A60008760D0F804800F7928EA0408C7F30017DC
:100A70009F4047EA08074760D1F804806FEA0807FB
:100A8000BF0706D1C76AA743C8F3C0049C403C43D4
:100A9000C462C468AC438D68B5402543C5604C68EA
:100AA000E4005ED5344C256E45F001052566246EC4
:100AB00023F0030504F001040094304C2E19B468AF
:100AC0009D072F0F09FA07F5AC43B0F1904F05D001
:100AD0002B4DA84204D101251CE042E0002519E07D
:100AE000284DA84201D1022514E0274DA84201D18A
:100AF00003250FE0254DA84201D104250AE0244D2D
:100B0000A84201D1052505E0224DA84201D10625C4
:100B100000E00725BD402543B560DBF800405D4699
:100B20004E689443F60300D514432C60DEF8004071
:100B300075464E689443B60300D514432C600D4DA2
:100B400008352C684E689443F60200D514432C6097
:100B5000084D0C352C684E689443B60200D51443FA
:100B60002C605B1C0A6832FA03F57FF441AF00F099
:100B700013B80000000401400010024000000140D2
:100B80000004004800080048000C0048001000481D
:100B9000001400480018004818BCBDE8E08F0AB1F6
:100BA00081617047816270470148006870470000AA
:100BB0001800002002480168491C016070470000CD
:100BC0001800002010B50024032000F08BF800204E
:100BD00000F008F808B1012401E000F03DF82046DB
:100BE00010BD000000B5014687B00022192000F0BA
:100BF00059F8192000F04AF81348016E41F40061D9
:100C00000166006E05A900F400600690684600F0D9
:100C10001BFB00F04BFB0D490D4AB0FBF1F10D48F9
:100C2000491E0260416040F2E7320021C0E9032121
:100C3000816000F036FE10B1012007B000BD05480C
:100C400000F04CFEF9E700000010024040420F00A7
:100C5000002C0140545200200B4882B0016E41F03C
:100C600001010166016E01F001010091816D41F009
:100C700080518165806D002200F0805000900F212E
:100C8000901E02B000F00EB80010024000F01F02EB
:100C9000012191404009800000F1E020C0F80011DE
:100CA00070470000F0B40E4B1B680C46C3F30223E0
:100CB000C3F10705042D00D90425191D072901D208
:100CC000002300E0DB1E012606FA05F1491E214043
:100CD00099409E40761E16403143F0BC01F06CB83E
:100CE0000CED00E0064900F0070208684FF6FF032C
:100CF000184040EA0220034A104308607047000091
:100D00000CED00E00000FA051649B0F5007F086818
:100D1000C0F3412009D0022805D0086820F4C06043
:100D200040F480600860002070470128FBD008680C
:100D300020F4C06040F4007008600B483222006864
:100D400050430A4AB0FBF2F0401C00E0401E4A69E2
:100D5000520501D50028F9D148694005E3D50320A3
:100D600070470000007000401C00002040420F004F
:100D70000248006800F4C060704700000070004046
:100D80002DE9F84F044600270088E54D3E46010551
:100D900004F1200B1DD5606E78B1B0F5800F11D035
:100DA000B0F5000F04D0B0F5400F22D001270FE0BE
:100DB000E86840F48030E8601BE00021201D01F06D
:100DC0000BF803E00021584601F09CF8070010D012
:100DD0003E462088C00426D5A06EC0B1B0F1807F09
:100DE0001AD0B0F1007F0DD0B0F1407F19D00127AB
:100DF00018E0D5F88800616E20F440000843C5F87B
:100E00008800E6E7E86840F48030E86009E0002107
:100E1000201D00F0E1FF03E00021584601F072F8C8
:100E20000746F7B13E46206880033AD5A86D4FF0DB
:100E30000008C00009D4A86D40F08050A865A86DD6
:100E40004FF0010800F080500090DFF8D8A2DAF8E7
:100E5000001041F48071CAF80010FFF7A5FE81462A
:100E600010E0D5F88800A16E20F040700843C5F866
:100E70008800D8E7FFF798FEA0EB0900022801D907
:100E8000032705E0DAF80000C005F3D5002F7CD079
:100E90004FEA0706B8F1000F03D0A86D20F080508C
:100EA000A8652078C00707D0D5F88800A16B20F08E
:100EB00003000843C5F888002078800707D5D5F8D7
:100EC0008800E16B20F00C000843C5F8880020780A
:100ED000400707D5D5F88800216C20F03000084382
:100EE000C5F888002078000707D5D5F88800616C20
:100EF00020F0C0000843C5F888002078C00607D558
:100F0000D5F88800A16C20F440700843C5F888002B
:100F10002078800607D5D5F88800E16C20F4406081
:100F20000843C5F888002088800507D5D5F88800D3
:100F3000E16D20F440200843C5F888002088400572
:100F400007D5D5F88800216E20F440100843C5F875
:100F500088002078400607D5D5F88800216D20F458
:100F600040500843C5F888002078000607D5D5F81A
:100F70008800616D20F440400843C5F8880020884F
:100F8000C00509D5D5F8880000E01CE0A16D20F46B
:100F900040300843C5F8880020884FF0006780047F
:100FA0004FF080684FD5D5F88800E16E20F04060A2
:100FB0000843C5F88800E06EB8423CD1E86840F4C8
:100FC0008010E8603FE0D5F8900010F4407015D034
:100FD000D4F88410814211D0D5F89000D5F8901043
:100FE00020F4407041F48031C5F89010D5F890108D
:100FF00021F48031C5F89010C5F89000C00710D0DA
:10100000FFF7D2FD074641F2883906E0FFF7CCFD35
:10101000C11B494501D903263CE7D5F8900080075C
:10102000F4D5D5F89000D4F8841020F4407008432B
:10103000C5F890002EE7404505D10121201D00F0A4
:10104000CBFE00B106462068000317D5D5F888000E
:10105000216F20F040600843C5F88800206FB84237
:1010600004D1E86840F48010E86007E0404505D10D
:101070000121201D00F0B0FE00B1064620684003AB
:1010800017D5D5F88800616F20F040600843C5F897
:101090008800606FB84204D1E86840F48010E860CE
:1010A00007E0404505D10121201D00F095FE00B16B
:1010B0000646208840041AD5D5F88800A16F20F094
:1010C00040500843C5F88800A06FB0F1805F03D09E
:1010D000B0F1005F05D00AE00221201D00F07CFE87
:1010E00003E00221584600F00DFF00B106462088BB
:1010F000000407D5D5F88800E16F20F08040084350
:10110000C5F888002068C00307D555F8880FD4F8C3
:10111000801020F0004008432860304600F004B8FA
:10112000001002400070004018BCBDE8E08F0000D5
:101130002DE9F0470F46050058D03F4E306800F0CB
:101140000700B84209D2306820F007003843306009
:10115000306800F00700B84248D12878374CC00703
:101160002CD06868032811D0022812D0216898B1C9
:10117000490500293ADAA16821F003010143A16081
:10118000FFF712FD804641F2883910E0216889019D
:10119000EFE721688903ECE78907EAE7FFF704FD39
:1011A000A0EB0801494502D90320BDE8F087A068FB
:1011B000696800F00C00B0EB810FEFD12878800750
:1011C00005D5A068A96820F0F0000843A060306849
:1011D00000F00700B8420BD9306820F00700384310
:1011E0003060306800F00700B84201D00120DCE731
:1011F0002878400705D5A068E96820F4E060084336
:10120000A0602878000706D5A068296920F46050FE
:1012100040EAC100A06000F05BF8A168084AC1F391
:101220000311515C01F01F01C84006490860BDE888
:10123000F0470020FFF7D6BC00200240001002401B
:10124000684700081C0000200F2202600C4A9368C7
:1012500003F003034360936803F0F0038360936833
:1012600003F4E063C36092684FF4E06303EAD202E0
:1012700002610448006800F0070008607047000041
:1012800000100240002002400548064900688968B5
:10129000054AC1F30221515C01F01F01C8407047AB
:1012A0001C00002000100240A8470008054806491D
:1012B00000688968054AC1F3C221515C01F01F0131
:1012C000C84070471C00002000100240A8470008DA
:1012D00070B52549002318468A68CC6812F00C02C4
:1012E00004F00306214C4FEA640509D00C2A05D00E
:1012F000042A26D0082A00D1284670BD012E10D11C
:101300000B681B0704D4D1F89430C3F3032302E025
:101310000B68C3F30313164E56F823307AB10C2A28
:10132000EBD1C86800F00302C868C0F30210401C8B
:10133000022A08D0032A09D0B3FBF0F008E01846CF
:1013400070BD204670BDB4FBF0F001E0B5FBF0F0DD
:10135000CA68C968C2F306225043C1F34161491CFF
:101360004900B0FBF1F070BD001002400024F40011
:10137000784700082DE9F84305007CD0FD4CA068B3
:1013800000F00C06E06800F003072878C00661D57D
:1013900076B10C2E01D1012F0AD0A869002820684F
:1013A00078D040F001002060FFF7FEFB804659E056
:1013B0002068800702D5A8690028DED0286A216845
:1013C000090703D5216801F0F00104E0D4F8941076
:1013D000F02202EA1111884215D900F017FE002808
:1013E00049D1206840F0080020602068296A20F078
:1013F000F000084320606068E96920F47F4040EA1B
:101400000120606015E0206840F00800206020683E
:10141000296A20F0F000084320606068E96920F440
:101420007F4040EA01206060286A00F0EFFD00285C
:10143000D6D1FFF74DFFA168CF4AC1F30311515C2C
:1014400001F01F01C840CD4908600020FFF7CAFB2A
:1014500000287DD12FE000BFFFF7A6FBA0EB08001E
:10146000022876D820688007F6D5206840F008006A
:101470002060206801E0BBE00CE0296A20F0F00069
:10148000084320606068E96920F47F4040EA012059
:10149000606010E020F001002060FFF785FB8046CF
:1014A00006E000BFFFF780FBA0EB08000228D8D8B9
:1014B00020688007F6D42878C00740D0082E18D0BE
:1014C0000C2E01D1032F14D06868B0F5803F17D0DF
:1014D000B0F5A02F206817D020F48030206020685D
:1014E00020F4802020606868E0B1FFF75DFB804653
:1014F00014E02068800322D56868002878D01EE0B8
:10150000206840F48030EDE740F480202060F7E769
:10151000FFF74AFBA0EB08006428A2D820688003EC
:10152000F6D50CE0FFF740FB804605E0FFF73CFBFB
:10153000A0EB0800642894D820688003F6D42878AB
:1015400080073BD5042E11D00C2E04D1022F01E0D0
:1015500036E1A1E00AD0E868002820681ED040F4F7
:1015600080702060FFF720FB07460CE020684005F4
:101570000CD5E8680028C1D008E000BFFFF714FBD5
:10158000C01B022893D820684005F7D56068297CE5
:1015900020F0F85040EA016060600FE020F48070B5
:1015A0002060FFF701FB074605E000BFFFF7FCFAEC
:1015B000C01B022870D820684005F7D4287800079F
:1015C00029D568690028D4F8940012D040F00100B1
:1015D000C4F89400FFF7E8FA074604E0FFF7E4FADE
:1015E000C01B022858D8D4F894008007F6D512E022
:1015F000EDE020F00100C4F89400FFF7D5FA0746AB
:1016000005E000BFFFF7D0FAC01B022844D8D4F889
:1016100094008007F6D42878400768D5A06D00278D
:10162000C00008D4A06D40F08050A065A06D0127D7
:1016300000F08050009052480168C90512D401683A
:10164000814641F480710160FFF7AEFA804605E003
:10165000FFF7AAFAA0EB080002281DD8D9F800006D
:10166000C005F5D5A868012817D00528D4F8900042
:1016700018D020F00100C4F89000D4F8900020F0B9
:10168000040000BFC4F89000A86841F28839D0B1C6
:10169000FFF78AFA804611E06BE0D4F8900040F042
:1016A0000100EFE740F00400C4F89000F5E700BF48
:1016B000FFF77AFAA0EB080149455AD8D4F8900010
:1016C0008007F5D50EE0FFF76FFA804606E000BF11
:1016D000FFF76AFAA0EB0801494570D8D4F89000EA
:1016E0008007F5D41FB1A06D20F08050A065A86AD6
:1016F000F0B30C2E6BD00228206820F080702060A0
:1017000004D0206810F0205F47D04AE0FFF74CFA81
:10171000064604E0FFF748FA801B02284FD82068ED
:101720008001F7D4286BE96A000110380843696B1F
:10173000AA6B0902120941EA42410843A98F114AE2
:10174000490802EB4151084395F84010490812013D
:1017500002EB41610843E060206840F08070206047
:10176000E06840F08070E060FFF71EFA054610E088
:101770002BE024E000100240684700081C00002015
:10178000007000400000E0FFFFF70EFA401B022847
:1017900015D820688001F7D517E0E06820F0030035
:1017A000E060E0680B490840E060FFF7FDF905469E
:1017B00008E000BFFFF7F8F9401B022802D9032018
:1017C000BDE8F88320688001F4D40020F8E7012008
:1017D000F6E70000FFFFEEFE2DE9F0470446007932
:1017E0000026894601280CD0012727716079B04670
:1017F000012808D05FF0010684F804803046BDE877
:10180000F0870220FBE702206071FFF7CDF9054663
:101810000BE000BFFFF7C8F9401B022805D90420E0
:10182000607184F804800320E9E720684068C043C1
:10183000C007EFD120688068E060C9F800006771D8
:10184000DAE770B5040003D06079002510B105E037
:10185000012070BD2571204600F00CF80220607157
:101860002068016841F00401016001206071A560F9
:10187000002070BD08B500680649884208D10648B6
:10188000C16C41F48021C164C06C00F480200090E0
:1018900008BD000000080650001002407047704765
:1018A000704710B5040003D094F83D0010B107E074
:1018B000012010BD002084F83C00204600F00CF808
:1018C000022084F83D00211D206800F091FC0120D9
:1018D00084F83D00002010BD704700000168CA6810
:1018E00042F00102CA600068826807490A40062A7D
:1018F00008D082680A40B2F5803F03D0016841F009
:10190000010101600020704707000100704770B5B9
:101910000446006801694FF00005C943890715D4E2
:10192000C168C943890711D4E91E016101202077EC
:10193000206880698007204602D0FFF7E7FF04E0B7
:1019400000F0A7F8204600F0A5F825772068016987
:10195000C943490717D4C168C943490713D46FF075
:1019600004010161022020772068806910F4407F23
:10197000204602D0FFF7CAFF04E000F08AF82046B4
:1019800000F088F8257720680169C943090716D453
:10199000C168C943090712D46FF00801016104202E
:1019A00020772068C0698007204602D0FFF7AEFF8D
:1019B00004E000F06EF8204600F06CF8257720680F
:1019C0000169C943C90617D4C168C943C90613D4FC
:1019D0006FF010010161082020772068C06910F4C1
:1019E000407F204602D0FFF791FF04E000F051F85D
:1019F000204600F04FF8257720680169C943C907E0
:101A000008D1C168C943C90704D1891E01612046B4
:101A100000F042F820680169C943090609D4C16889
:101A2000C943090605D46FF0800101612046FFF724
:101A300036FF20680169C943C90509D4C168C94393
:101A4000090605D46FF4807101612046FFF726FF77
:101A500020680169C943490609D4C168C9434906D8
:101A600005D46FF040010161204600F01FF82068A6
:101A70000169C94389060BD4C168C943890607D4E3
:101A80006FF0200101612046BDE87040FFF708BFFC
:101A900070BD70477047000000680349884201D15B
:101AA000FFF788B870470000002C0140704710B560
:101AB000040003D094F8710010B107E0012010BDBC
:101AC000002084F87000204600F026F8242084F8D6
:101AD00071002068016821F001010160204600F0DA
:101AE000B3FC0128EBD0606A10B1204600F01AFC6C
:101AF0002068416821F4904141602068816821F0AC
:101B00002A0181602068016841F0010101602046DE
:101B1000BDE8104000F06ABC10B586B00446142140
:101B20006846FEF70AFC1249206888421ED1114817
:101B3000816D41F400318165816D01F400310591C1
:101B4000C16C41F00801C164C06C694600F0080036
:101B50000590602000900220019000200290032058
:101B60000390072004900448FEF734FF06B010BD30
:101B70000044004000100240000C00482DE9F843EA
:101B8000044690F871001F4616460D4620284BD19A
:101B9000C5B1BEB194F87000012845D0012084F889
:101BA00070004FF00008C4F87480212084F87100A0
:101BB000FEF7FAFFA4F850608146A4F852604FF493
:101BC000805615E00120BDE8F8838021204600F012
:101BD0008BFDD8B9A068B04201D12069C0B115F819
:101BE000010B21680885B4F85200401EA4F8520089
:101BF000B4F852004B464FF0000200970028E4D1A1
:101C00004FF04001204600F06FFD30B10320DAE7CD
:101C100035F8020BC0F30800E3E7202084F87100D8
:101C200084F870800020CEE70220CCE7FEE70000B9
:101C300000EBC00109486FF0070300EB8101C869A0
:101C40008969C268008A096803EBC00010444068D3
:101C5000814201D90120704700207047CC0000204C
:101C600000EBC0010A486FF00B0300EB8101C8696B
:101C7000896942680089096800EB400003EB800035
:101C800010448068814201D90120704700207047CC
:101C9000CC00002000B585B0142206496846FEF746
:101CA00033FB0021684601F099FC0349086005B048
:101CB00000BD000054470008140000202DE9F04347
:101CC00087B014216846FEF738FB1F48C16C41F00D
:101CD0000201C164C16C01F002010591C16C41F0C7
:101CE0001001C164C16C01F010010591C16C41F09B
:101CF0000801C164C06CDFF8548000F00800059052
:101D0000002204214046FEF74AFFDFF844904FF4DA
:101D10008077002239464846FEF741FF042001241F
:101D2000002503268DE8710069464046FEF752FE05
:101D300001AA009782E8700069464846FEF74AFE0D
:101D400007B0BDE8F0830000001002400004004826
:101D500000100048074910B5054808600846FFF71D
:101D600070FD002803D0BDE81040FEF731BE10BD65
:101D700000080650CC5100200D4810B50B490160F9
:101D80004FF416514160002181600C22C160C0E90E
:101D900004128161C16101624162FFF788FE00287F
:101DA00003D0BDE81040FEF713BE10BD0044004054
:101DB000DC510020FEE770470907090E002806DA0B
:101DC00000F00F0000F1E02080F8141D704700F1D2
:101DD000E02080F8001470472DE9F041444C05469E
:101DE0008846E0680026810728680DD0E16801F088
:101DF0000301814216D1A8B1E0686968C0F30210FE
:101E0000401C88420ED120E0012804D0022805D0D1
:101E1000032807D108E02168890701E02168490506
:101E2000002907DB01265FE02168890302D42168CD
:101E30004903F5E7E1686A686FF00F0321F0730169
:101E400003EB021211430143E160206820F080603F
:101E50002060FEF7A9FE074605E000BFFEF7A4FEDE
:101E6000C01B022837D820680001F7D4B8F1000F52
:101E700018D0B8F1010F1ED0287D4FF07E414008E8
:101E800001EB4060A96840EA01202169194A11402C
:101E900008432061206840F080602060FEF784FEE7
:101EA00007461AE0A868E9680002090940EA4140CB
:101EB0002169114AEBE7288A1049400801EB40509C
:101EC000A96840EA012021690D4AE0E7FEF76CFEAF
:101ED000C01B022801D9032606E020680001F5D5C1
:101EE0002069A969084320613046BDE8F0810000FF
:101EF00000100240FF80FFF9FF80FDFF0000E0FFBF
:101F0000FF809FFF2DE9F0413D4C06468846E06882
:101F10000025810730680DD0E16801F0030181429E
:101F200016D1A8B1E0687168C0F30210401C884265
:101F30000ED120E0012804D0022805D0032807D1C3
:101F400008E02168890701E021684905002907DBCD
:101F5000012551E02168890302D421684903F5E78E
:101F6000E16872686FF00F0321F0730103EB021256
:101F700011430143E160206820F080502060FEF7AB
:101F800013FE074605E000BFFEF70EFEC01B022849
:101F900029D820688000F7D4B8F1000F15D0307C24
:101FA0004FF07E41400801EB4060B16840EA0120FB
:101FB0006169144A114008436061206840F0805014
:101FC0002060FEF7F1FD07460FE0B068F1680002FF
:101FD000090940EA414061690B4AEBE7FEF7E4FD7D
:101FE000C01B022801D9032506E020688000F5D532
:101FF00060697169084360612846BDE8F0810000AE
:1020000000100240FF80FFF9FF80FDFFF8B51C4D76
:1020100006460024A86DC00002D5FEF7A9FE0DE01B
:10202000A86D40F08050A865A86D00F08050009029
:10203000FEF79EFEA96D21F08051A965B0F5007FE5
:1020400004D0802E07D94FF003040AE0802E08D96F
:10205000A02E01D804E001D1022402E0702E00D1AC
:1020600001240848016821F007012143016000684C
:1020700000F00700A04201D00120F8BD0020F8BD0B
:102080000010024000200240F8B500EBC0011048EB
:102090006FF0070700EB81006946D0E90645022092
:1020A00028700C482668FFF797FB0099B420B1FB15
:1020B000F0F200FB12103C30009021682A8A08449C
:1020C000E96807EBC2021144C1E90060F8BD0000F5
:1020D000CC000020CC510020012001F073FAFBE776
:1020E00010B5502080F31188BFF34F8FBFF36F8F6F
:1020F00002F0E4F918B104494FF080500860002064
:1021000080F3118810BD000004ED00E02DE9F041DE
:10211000B8B0442122A8FEF710F9142133A8FEF725
:102120000CF988216846FEF708F901240025CDE95D
:1021300028454FF010080226CDF888806020CDE9B0
:102140002C642A9028200727CDE92E40CDE930764F
:10215000329622A8FFF70EF90F2033900320CDE925
:1021600034053695042133A83795FEF7E1FF0B4877
:102170000F95009040061D9001948011CDE90660F6
:10218000CDE90476CDE902486846FEF7F9FD600224
:10219000FEF7BAFD38B0BDE8F0810000020004008F
:1021A0000D48016841F4700101600C48016841F07C
:1021B00001010160002181600268094B1A40026040
:1021C0008214C260026822F48022026081610249A6
:1021D000C00380390860704788ED00E000100240BD
:1021E000FFFFF6EA0148FFF792BB000054520020BF
:1021F0002DE9F0470268264B264D274E274F284CE5
:102200004FF0804A984209D0504507D0A84205D0E7
:10221000B04203D0B84201D0A04204D122F0700CE9
:102220004A6842EA0C02DFF87CC0DFF87C80DFF805
:102230007C9098420FD050450DD0A8420BD0B042B0
:1022400009D0B84207D0A04205D0604503D0404530
:1022500001D0484503D122F44075CA682A434D692C
:1022600022F080022A4302608A68C2620A6882629F
:10227000984207D0A04205D0604503D0404501D028
:10228000484501D10969016301214161BDE8F08739
:10229000002C01400004004000080040000C0040F9
:1022A000003401400040014000440140004801402A
:1022B0007FB500EBC0011948002200EB810001A9A5
:1022C000D0E90654006A006801F0E0FF012802D05E
:1022D000002020707FBD2868029069461048FFF7F3
:1022E0007BFA00994FF4E170B1FBF0F200FB1210A1
:1022F0001E300090296801AE08440390218960686F
:1023000001EB410100EB810096E80E0080E80E0031
:102310002089401C20810120DBE70000CC00002048
:10232000CC51002090F82410C90706D001684A68F3
:10233000836A22F400321A434A6090F82410890715
:1023400006D501684A68C36A22F480321A434A609B
:1023500090F82410490706D501684A68036B22F4F7
:1023600080221A434A6090F82410090706D50168B4
:102370004A68436B22F400421A434A6090F82410E2
:10238000C90606D501688A68836B22F480521A4315
:102390008A6090F82410890606D501688A68C36BA4
:1023A00022F400521A438A6090F82410490611D58D
:1023B00001684A68036C22F480121A434A60016C77
:1023C000B1F5801F06D101684A68436C22F4C0024F
:1023D0001A434A6090F82410090606D501684A6835
:1023E000806C22F4002202434A607047F8B5002650
:1023F00004464667FEF7D8FB0546206800686FF084
:102400007E47000708D52B4600224FF400112046D6
:10241000009700F069F960B92068006840070AD5A4
:102420002B4600224FF480012046009700F05CF913
:1024300008B10320F8BD202084F8710084F87200F0
:1024400084F870600020F8BD2DE9F0410446016871
:1024500080682369E66918436369102500273343C0
:102460001843954A0B68954E334003430B60206830
:102470004168E36821F44051194341602168A06933
:10248000914201D0236A18438B6823F430630343DD
:102490008B608B4B21688B4899420DD1D0F8880016
:1024A00010F0030006D001285AD0022856D0032885
:1024B00059D157E0012556E0834B99420BD1D0F812
:1024C000880010F00C0047D0042849D0082845D0D7
:1024D0000C2848D146E07D4B99420BD1D0F88800BA
:1024E00010F0300038D010283AD0202836D03028CC
:1024F00039D137E0764B99420BD1D0F8880010F0F3
:10250000C00029D040282BD0802827D0C0282AD12D
:1025100028E0704B99420ED1D0F8880010F440703A
:102520001AD0B0F5807F1BD0B0F5007F16D0B0F583
:10253000407F18D116E0914215D1D0F8880010F4F0
:10254000406009D0B0F5806F0AD0B0F5006F05D0BB
:10255000B0F5406F07D105E0002504E0022502E058
:10256000042500E008255C4B00264FF40040914212
:102570003DD135B1022D07D0042D07D0082D10D143
:1025800007E0FEF781FE03E0184602E0FEF7A0FE3A
:10259000A8B3626802EB4201814202D8B0EB023F6D
:1025A00001D9012775E0DFF834815DB1022D0CD02F
:1025B000042D13D0082DF4D150082905401846F1F8
:1025C000000105E0FEF760FE0AE050084449F5E727
:1025D0000023FDF765FEA0F5407156E0FEF778FE9A
:1025E0006268010E0302500818187141F0E7E169B2
:1025F0004FF6EF7881422FD1092DD2D200E048E08A
:10260000DFE805F006092005230505052600C8E7D3
:10261000FEF73AFE01E0FEF749FE4100D4F804005F
:1026200001EB5001B1FBF0F080B2A0F11001414587
:10263000B7D84FF6F0710140C0F342000143206863
:10264000C16026E027496068EAE7FEF741FEE4E75B
:102650004FF480316068E3E7092DA2D2DFE805F08E
:1026600006091E052205050525009AE7FEF70CFE62
:1026700001E0FEF71BFE0146606801EB500100BF60
:10268000B1FBF0F080B2A0F11001414589D821687A
:10269000C860266638466666BDE8F081606803EB70
:1026A0005001EDE7FEF714FEE5E7616800EB51002D
:1026B000B0FBF1F0E6E7000000800040F369FFEFB7
:1026C0000038014000100240004400400048004033
:1026D000004C0040005000400024F400FFFC0F00BC
:1026E000000024F40048E8012DE9F041984617461F
:1026F0000E460446069D1DE0681C1BD02DB1FEF75A
:1027000053FAA0EB0800A84214D92068016821F40C
:10271000D07101602068816821F001018160202072
:1027200084F8710084F87200002084F8700003209F
:10273000BDE8F0812068C06936EA000004D00020BE
:10274000B842D9D00020F3E70120F9E70FB46E2199
:1027500000B59DB01FAB68461E9A00F075F968463B
:10276000FDF702FE82B2642369460348FFF706FACA
:102770001DB05DF814FB0000DC5100202DE9F04F86
:102780004B4D85B0A8690468686901684FF46160C1
:10279000B1FBF0F2D21D92B20C2A01D90C3A92B2DE
:1027A000B1FBF0F300FB13103C26B0FBF6F341A0A5
:1027B000FFF7CCFF204601F068FA81B249A0FFF78D
:1027C000C5FF002446F2702B4FEA060AE96904EBC4
:1027D000840001EB800114226846FDF795FD214637
:1027E0004AA0FFF7B3FF9DF8000070B101280ED09A
:1027F00002280ED04AA000BFFFF7A8FF9DF80000F6
:10280000BDF80810012806D007E049A0F4E74BA066
:10281000F2E74DA0F0E7491E89B24EA0FFF796FF00
:1028200068690023BDF8101002681E46ABEB020079
:1028300080B21F4689B11FFA81FC6FF00708039828
:1028400008EBCC0C8444DCE9000CBCF1000F13D085
:102850000020ACEB020293B20126B0FBFAF8B3FB06
:10286000FAF943A0491EFFF771FF6EB146A0FFF7CA
:102870006DFF49464CA013E0824202D3002001279D
:10288000EBE7801A80B2E8E74EA02FB1FFF75EFFBA
:1028900054A0FFF75BFF05E0FFF758FF414658A043
:1028A000FFF754FF641C032C90DB05B000F0B6B8B2
:1028B0008000002043757272656E742074696D65C6
:1028C0002028696E207365636F6E6473293A202532
:1028D000356420092025322E643A25322E640A0DF3
:1028E000000000004E756D626572206F6620637592
:1028F00073746F6D657273206F6E207468652071DC
:10290000756575653A202564200A0D0054656C6C68
:10291000657220232564207374617475733A2000F6
:10292000554E4B4E4F574E5F4552520A0D00000018
:1029300049444C4520202020200A0D00425553597F
:1029400020202020200A0D004F4E5F425245414B6F
:102950000A0D000009536572766963656420256479
:1029600020637573746F6D6572730A0D000000004B
:102970000954616B656E20256420627265616B731A
:102980002E200A0D000000000943757272656E74F6
:102990006C7920656E6A6F79696E6720612062725A
:1029A00065616B2000000000666F72202564206D59
:1029B0006F7265206D696E757465732E20202020FE
:1029C000200A0D00094C6F6F6B696E6720666F728D
:1029D0007761726420746F206120627265616B2080
:1029E000000000006166746572207468697320637A
:1029F0007573746F6D65722E202020200A0D000003
:102A0000696E202564206D696E757465732E2020B3
:102A10002020202020202020200A0D0030BCBDE8EE
:102A2000C08F000010B501F043FDC0EB0010800026
:102A30004FF47A71B0FBF1F101484069016010BDBB
:102A400080000020FEE700007CB5044600201D4603
:102A5000164600290BD0491ECDE90041044B6A46B9
:102A60002946304600F0DCF8009A002111707CBD48
:102A70005533000802E008C8121F08C1002AFAD125
:102A800070477047002001E001C1121F002AFBD1EE
:102A9000704700002DE9FF5F82B00021DDE90430BE
:102AA000020DDDF840B0034318D044F61050A2F2F6
:102AB000FF3242431514119801281FD0A5EB0B00DB
:102AC000401C5FEA000A4FF000064E4FDFF83891D5
:102AD000B046504615D5CAF1000413E01198012400
:102AE0004AA3012801D16FEA0B010298119AC0E9AB
:102AF0000031C0E9024206B000F08EB8CBF1000010
:102B0000DFE704460021404A491842EB0450CDE972
:102B1000001012E0E00707D032463B4640464946E7
:102B2000FDF70DFD8046894632463B461046194664
:102B3000FDF705FD06460F466410002CEAD1DDE9DD
:102B40000401DDE90023BAF1000F06DAFDF7F7FC16
:102B500042464B46FDF7F3FC05E0FDF765FD4246B6
:102B60004B46FDF761FD04460E460022284BFDF75B
:102B7000E3FD03D84FF0FF30014607E00022254B6C
:102B800020463146FDF72CFCFDF7BDFD102409E081
:102B9000002C0ADB0A220023FDF782FB039B303264
:102BA0001A55641E50EA0102F2D1641C039AC4F162
:102BB00011031444119A012A03D0012208430DD1B4
:102BC0000AE0084304D000204FF0110B119072E787
:102BD000A3EB0B056D1E0DE05B4504DD4FF000021D
:102BE00005F1010504E003DA4FF00002A5F101054B
:102BF000002AECD002981199C0E90231C0E90045E1
:102C000079E70000000014400000F03F30000000B1
:102C10000000F0430000E03F30BCBDE8C09F000072
:102C20002DE9FF4F95B09B468946064600250FE2E9
:102C3000252877D100242746F84A0121059400E091
:102C4000044316F8013F203B01FA03F01042F7D18C
:102C500030782A2811D06FF02F033078A0F130029D
:102C6000092A16D8059A44F0020402EB820203EB0B
:102C700042021044761C0590EFE759F8042B0592A8
:102C8000002A03DA504244F40054059044F0020450
:102C9000761C30782E2816D116F8010F44F0040463
:102CA0002A280DD06FF02F023078A0F13003092BC5
:102CB00009D807EB870302EB4303C718761CF3E739
:102CC00059F8047B761C30786C280FD006DC4C2831
:102CD00017D068280DD06A2814D104E0742810D0C9
:102CE0007A280FD10DE044F400140AE044F4801473
:102CF00001E044F440147278824202D104F5801459
:102D0000761C761C307866280BD013DC582877D0D8
:102D100009DC002875D04528F6D04628F4D047288D
:102D20001AD19DE118E0632835D0642879D0652850
:102D300012D195E1702873D008DC6728F1D069289A
:102D40006FD06E280DD06F2806D1B5E073282CD037
:102D5000752875D0782874D05A46179990476D1CFD
:102D600075E1C4F30250022809D003280DD0D9F828
:102D7000001004280DD00D6009F1040967E1D9F8AD
:102D80000010EA17C1E90052F6E7D9F800100D80EB
:102D9000F2E70D70F0E719F8041B8DF80010002021
:102DA0008DF80100EA46012003E059F804AB4FF02A
:102DB000FF3061074FF0000102D40DE008F101017E
:102DC0008846B9420FDA8045F8DB1AF80810002966
:102DD000F4D108E008F1010188468142FADB1AF8D3
:102DE00008100029F6D105985B46A0EB080721469C
:102DF0003846179A00F097FA284400EB080507E0D8
:102E00004DE029E10DE01AF8010B5A461799904759
:102E1000B8F10108F7D25B4621463846179A13E10C
:102E200042E00A220092C4F302524FF0000A022A42
:102E300008D059F804CB032A4FEAEC710AD00DE010
:102E400029E02AE009F1070121F00702F2E802C1B6
:102E5000914609E00FFA8CFC4FEAEC71042A03D189
:102E60004FFA8CFC4FEAEC71002907DA0A46002180
:102E7000DCF1000C61EB02012D2202E0220504D5F9
:102E80002B228DF80420012203E0E20701D020224A
:102E9000F7E7904659E00A2102E010220DE01021E8
:102EA0004FF0000A00910BE010224FF0000A44F0AE
:102EB00004040827009203E008224FF0000A009261
:102EC000C4F30252022A05D059F804CB0021032A88
:102ED00008D009E009F1070121F00702F2E802C178
:102EE000914605E01FFA8CFC042A01D10CF0FF0C7E
:102EF0004FF00008220728D5702806D0009B83F0E9
:102F0000100353EA0A0305D00EE040228DF8042096
:102F1000012208E05CEA010206D030228DF804208C
:102F20008DF8050002229046009B83F0080353EAC7
:102F30000A030AD15CEA010201D1620705D53022F9
:102F40008DF804204FF001087F1E582804D034A0CB
:102F500003900EA802900DE036A0F9E753466046B4
:102F6000009AFDF79DF984460398825C0298401E02
:102F7000029002705CEA0100F0D1029806A9081ADA
:102F800000F1200A600702D524F4803400E0012714
:102F9000574502DDA7EB0A0000E0002000EB0A0124
:102FA000009005984144401A0590E00306D45B4622
:102FB0002146179A059800F0B6F90544002706E067
:102FC00001A85A46C05D179990476D1C7F1C474564
:102FD000F6DBE0030CD55B462146179A059800F016
:102FE000A2F9054404E030205A46179990476D1C19
:102FF0000099481E00900029F5DC08E0029802992B
:103000005A460078491C0291179990476D1CBAF1F5
:103010000001AAF1010AF1DC65E1000009280100C4
:10302000303132333435363738396162636465663E
:103030000000000030313233343536373839414200
:10304000434445460000000000F05BF90544761C4F
:10305000307800287FF4ECAD19B0284600F04EB966
:10306000620700D4062709F1070222F0070CFCE8EA
:103070000223E14603F000485FEA080C02D00FF299
:10308000702C0DE05FEA045C02D50FF2682C07E0BB
:103090005FEAC47C02D00FF2602C01E0AFF2700C4A
:1030A0004FF0FF3823F00043CDF850C065280CD016
:1030B00006DC452809D046281DD047283DD13DE0F3
:1030C000662818D067287ED138E00021112F01DB57
:1030D000112000E0781CCDE9000106A90EA8FFF739
:1030E000D9FCDDE90F010E9A03910021009207F14E
:1030F000010A04914DE04FF000400097CDE9011026
:1031000006A90EA8FFF7C6FCDDE90F0203920E9B8D
:1031100011990022DDF80CA00093049211B9791CDA
:1031200000EB010AB7EB0A0004D4C0F1FF3007F14D
:10313000010A0490AAEB0700019044E0012F00DA95
:1031400001270021112F01DD112000E03846CDE9D3
:10315000000106A90EA8FFF79DFCDDE90F010E9AFC
:103160000391002104910092BA4621070CD40399DF
:10317000514500DA8A46BAF1010F05DD009AAAF13D
:103180000101515C302908D0B84202DA10F1040F75
:1031900006DA0121CDE9011015E0AAF10101E9E704
:1031A000002805DC049901440491AAEB000102E027
:1031B000411C514500DD8A460499401A401C01908B
:1031C0004FF000400290200704D40198504501DBE5
:1031D000CDF8048000208DF84F0002980DF14F07C4
:1031E000B0F1004F25D02B200E9002984FF002082E
:1031F00000280CDA404202902D200E9007E00A21B0
:103200000298FDF7B8F83031029007F8011DB8F1C7
:103210000001A8F10108F2DC02980028EFD1791E24
:103220000E980870307800F0200040F0450007F854
:10323000020D12A8C01B00F107081498007800B115
:10324000012000EB0A01019801EBE071059841446F
:10325000401A401E0590E00306D45B462146179AAB
:10326000059800F060F805441498007818B15A46A3
:10327000179990476D1CE00324D55B462146179AA9
:10328000059800F050F805441CE00498002807DB7E
:10329000DDE90301884203DD0098405C179901E0F5
:1032A000179930205A469047049805F10105401CB3
:1032B00004900198401E019004D12E205A4617997F
:1032C00090476D1CBAF10001AAF1010ADDDC05E0AE
:1032D00017F8010B5A46179990476D1CB8F1000179
:1032E000A8F10108F4DC5B462146179A0598ABE685
:1032F0002D0000002B0000002000000030BCBDE8C5
:10330000C08F2DE9F041044600251E46174688046B
:1033100004D405E039462020B0476D1C641EF9D561
:103320002846BDE8F0812DE9F041044600251E46FF
:103330009046C80301D5302700E02027880404D533
:1033400005E041463846B0476D1C641EF9D5284655
:10335000BDE8F0814A68002A06D00A68531C0B6059
:1033600010704868401E48607047FDF7E1FA002879
:10337000FBD0FDF77BFAF8E72DE9FC470F460AA9D9
:103380000D4C91E80007164601461D461022201DEF
:10339000FCF7DEFF04F11C01022081E82007C4E9EC
:1033A0000576CDE90004C201234604A1064801F0D8
:1033B00043F800F00BB80000A00000205550444135
:1033C0005445205441534B006B3300080CBCBDE8FE
:1033D000F08700000EB54B4D002422462C60EC60B7
:1033E0000C2132202C6100F039FE6860002879D071
:1033F000454E002000EB8001401C06F8214006EB02
:10340000810103280C810C82F4DB3F483C30706062
:103410003E48B0613E48F0623E48F060783030622D
:1034200078307063FDF7CEFBFEF770FEFEF746FCCA
:10343000FEF790FCFEF7A0FC69463748AC60FEF74B
:10344000CBF90099B420B1FBF0F200FB12103C3034
:103450000090A86000254FF4E1674FF0010869462D
:103460002D48FEF7B9F90098B0FBF7F107FB110002
:1034700005EB850100F5E16006EB81010090CA686B
:103480006D1C032D1060C8684460A1F81080E6DB55
:103490001C4A1D4B121D111F20A000F0BFFB194C30
:1034A000194B241D221F00211FA0009400F076FB61
:1034B000154B221F143301211FA0009400F06EFB56
:1034C000114B221F283302211FA0009400F066FB3D
:1034D000201D00F108010094CDE90110031D1E4AD2
:1034E000103900E00AE01DA0FFF746FF21A0FFF71A
:1034F0002DF9FEF7CFFB00F06CF8FEE727A0FFF7F1
:1035000025F9FEE7000000203801002030150020DA
:10351000EC280020A83C0020CC510020555044410C
:1035200054455F5441534B0054454C4C4552205434
:1035300041534B203000000054454C4C4552205420
:1035400041534B203100000054454C4C455220540F
:1035500041534B2032000000103E0020435553548D
:103560004F4D455220454E515545554520544153E8
:103570004B00000053797374656D20696E6974693E
:10358000616C697A65642C207374617274696E670A
:10359000204672656552544F530D0A004661696CAE
:1035A000656420746F206372656174652071756550
:1035B00075650A0D0000000001460020842900D036
:1035C000C81C704710B500B9012000F017FC00209E
:1035D00010BD10B500F05EFC002010BD3EB50446E5
:1035E0000D46B0F90800FFF7E7FF02A9CDE9000199
:1035F000208A2B4682B2D4E9001000F01DFF01287A
:1036000001D000203EBD02983EBD00002DE9F041F2
:10361000184C0F46054666692068001D00F022FB25
:1036200038B9206890F82C1001208840A1698143A6
:10363000A161681C07D137B12168BDE8F0410E488F
:10364000091D00F05ABB20683544B5424560216829
:1036500005D2A068BDE8F041091D00F036BB6068E6
:10366000091D00F032FB206B854200D22563BDE8C6
:10367000F081000020000020705300202DE9F0416F
:10368000054600F047FB2E4C2069401C2061206855
:103690002C4F10B1E06940B32DE02560206901286E
:1036A00029D1002606EB860007EB800000F0FFFA28
:1036B000761C072EF6D323488C3000F0F8FA214808
:1036C000A03000F0F4FA1F48B43000F0F0FA1D48C2
:1036D000C83000F0ECFA1B48DC3000F0E8FA19487A
:1036E0008C3060601430A06005E02068E96AC06A30
:1036F000884200D82560E06A401CE062E96A012047
:10370000A26988401043A06101EB810007EB8000B3
:10371000291D00F0F2FA00F01DFBE06900280CD032
:103720002068E96AC06A884207D207494FF0805092
:103730000860BFF34F8FBFF36F8FBDE8F0810000CB
:10374000200000209452002004ED00E030B4026C10
:103750000B46002A0BD0C1681144C1604468A142E5
:1037600001D30168C16030BC1846FCF7CDBD30BC48
:1037700070472DE9F041856B174604460026026C20
:1037800082B1C7B1E068FCF7BFFDE168206C091A9F
:10379000E1602268914202D26168081AE060022F5B
:1037A00016D017E02068A8B9606800F0EBFE064666
:1037B000002060600EE0A068FCF7A6FD216CA06808
:1037C0000844A0606168884204D32068A06001E0DA
:1037D00005B16D1E6D1CA5633046BDE8F08110B5C6
:1037E0000446006B00F0CAFA2046BDE8104000F025
:1037F000C5BA000010484FF40051420706D0C01D62
:103800000D4920F00700411AC1F500510B4A002371
:103810000144C2E900030839103A21F007011160A0
:103820004B600B600B1AC0E9001393604FF000402F
:103830005360D06070470000845300206C0000206B
:10384000144E154CA6F1C8074FF08058DFF84C9085
:1038500012E000BF00F05EFAF068C568281D00F0B5
:1038600001FA2069401E2061E068401EE06000F01F
:1038700071FA2846FFF7B3FFE0680028EAD13868FC
:103880000128F9D9C9F80080BFF34F8FBFF36F8FBC
:10389000F2E700005C5300202000002004ED00E06F
:1038A0002DE9F0479A46DDE9098481466FF003036C
:1038B000206B03EB82021044089D20F0070670077E
:1038C00007D0502080F31188BFF34F8FBFF36F8F65
:1038D000FEE723180A5C83F834200A5C12B1401C0E
:1038E0001028F6D3002784F84370072D00D306254F
:1038F000E562C4E91157201D00F0E4F904F1180055
:1039000000F0E0F92461C5F107006462A061E7649A
:1039100084F8507052464946304600F003F9206062
:10392000B8F1000F01D0C8F80040BDE8F0870000F2
:1039300030B5114900E011460A688242FBD34B685A
:103940005C18844203D140681844486008464368C4
:103950001C18944209D1084C103C2468A24209D09A
:1039600052681A4442600A6812680260814200D0BC
:10397000086030BD0460F9E76C00002010B5044613
:1039800000F0C8F9A06B28B15FF0000400F0E2F984
:10399000204610BD0124F9E706484168096829B1AD
:1039A0004168C968C9684968016370474FF0FF31D1
:1039B000FAE700002000002008484068401C4FF053
:1039C000500080F3118804D0BFF34F8FBFF36F8F87
:1039D000FEE7BFF34F8FBFF36F8FFEE77400002049
:1039E0002DE9F041044600F095F994F9455004F1B1
:1039F000240609E0606A48B1304600F00FFE08B1C5
:103A000000F02AFA6D1E6DB2002DF3DC4FF0FF3688
:103A100084F8456000F09EF900F07CF994F9445078
:103A200004F1100709E0206948B1384600F0F6FDBE
:103A300008B100F011FA6D1E6DB2002DF3DC84F8B0
:103A40004460BDE8F04100F085B900002DE9F04187
:103A50000546002700F052FA314E306808B9FFF7EA
:103A6000C9FEF06805424BD1C5B3083568070ED0D2
:103A700005F00700C0F108000544680707D0502092
:103A800080F31188BFF34F8FBFF36F8FFEE72DB325
:103A90007068854234D82248103001460C6801E035
:103AA00020460C466168A94202D221680029F7D15C
:103AB00031688C4224D0076821680160606808374B
:103AC000411B10290FD96019420708D0502080F3FC
:103AD0001188BFF34F8FBFF36F8FFEE710E0416097
:103AE0006560FFF725FF61687068401A7060B26812
:103AF000904200D2B060F06801430020C4E90001A8
:103B000000F0C6FD780707D0502080F31188BFF37E
:103B10004F8FBFF36F8FFEE73846BDE8F08100009E
:103B20005C00002010B5031F4FF080741C601B1F49
:103B300021F001011960191F044B0B6014390A6050
:103B4000091F6FF0020244380A6010BDB93900083D
:103B50004569C469217861B1012916D00229F9D1DA
:103B60002846FEF765F80028F4D02846FCF7F2FE58
:103B7000F0E72846FCF7C0FE0028284602D0FEF7F2
:103B800083FAE7E7FEF794FBE4E72846FEF768F8D8
:103B90000028DFD02846FCF70FFFDBE72DE9FC41CA
:103BA0001E4615460D4B01EBC10203EB8204089F34
:103BB000616101461022201DFCF7CAFB04F11802C6
:103BC000022082E8E000CDE90004C201234604A1FE
:103BD000064800F031FCBDE8FC810000CC0000206C
:103BE00054454C4C4552205441534B00513B000826
:103BF00006A0FEF7ABFD07A0FEF7A8FDFEF712FF3B
:103C0000FEF7BCFDFCF7A5FEF5E700001B5B324AA2
:103C1000000000001B5B303B304800002DE9FC41F8
:103C20000D460B4C164601461F461022201DFCF780
:103C30008FFB04F11401022081E8E000CDE90004CB
:103C4000C201234603A1064800F0F6FBBDE8FC8153
:103C500080000020555044415445205441534B00AE
:103C6000F13B0008D0E9013201699A60D0E90123F3
:103C70005A604A68824201D182684A600022026129
:103C80000868401E08600868704710B5040006D038
:103C900000F040F8A46B00F05DF8204610BD502005
:103CA00080F31188BFF34F8FBFF36F8FFEE700F1F2
:103CB00008014FF0FF32C0E90112C160016100212B
:103CC0000160704700210161704730B50B685A1CD4
:103CD00002D000F1080202E0026904E022465468C2
:103CE00025689D42FAD953684B6099608A6051609B
:103CF00008610168491C016030BD42684A609368F0
:103D00008B6093685960916008610168491C01608B
:103D100070470000502080F31188BFF34F8FBFF32E
:103D20006F8F0A494868401C486001280CD1084838
:103D3000006810F0FF0F07D0502080F31188BFF308
:103D40004F8FBFF36F8FFEE77047000074000020B5
:103D500004ED00E00849486828B1401E486001D1E0
:103D600080F311887047502080F31188BFF34F8F84
:103D7000BFF36F8FFEE700007400002070B50028CD
:103D800027D0144DA0F108046168E868014207D10A
:103D9000502080F31188BFF34F8FBFF36F8FFEE782
:103DA00022683AB1502080F31188BFF34F8FBFF3E0
:103DB0006F8FFEE78143616000F0A0F8606869687A
:103DC000084468602046FFF7B3FDBDE8704000F08E
:103DD0005FBC70BD5C0000204FF0E020002101615D
:103DE000816105494FF47A720968B1FBF2F1491E0D
:103DF00041610721016170471C00002010B50200DD
:103E000014D00F48806B38B1502080F31188BFF375
:103E10004F8FBFF36F8FFEE700F070F80021104660
:103E2000FFF7F4FB00F034FC002807D105494FF000
:103E300080500860BFF34F8FBFF36F8F10BD00003D
:103E40002000002004ED00E002498A6A026049690E
:103E500041607047200000200149012048627047FE
:103E60002000002010B50C4650B1094909681831EE
:103E7000FFF72BFF2046BDE810400121FFF7C6BB2E
:103E8000502080F31188BFF34F8FBFF36F8FFEE791
:103E9000200000201CB515480024CDE90040234631
:103EA000802213A1144800F0C7FA012809D0401C51
:103EB0001AD1502080F31188BFF34F8FBFF36F8F5B
:103EC000FEE7502080F31188BFF34F8FBFF36F8F51
:103ED00006484FF0FF31343801630121C16144616C
:103EE000BDE81C4000F040B81CBD0000540000209C
:103EF00049444C4500000000413800080248816BED
:103F0000491C816370470000200000201448816B29
:103F100011B1012141627047002141628169B1FA0A
:103F200081F1C1F11F0101EB81020E4951F82230EC
:103F30006BB101EB820101F108034A6852684A60E3
:103F40009A4201D152684A60D1680160704750209E
:103F500080F31188BFF34F8FBFF36F8FFEE7000030
:103F600020000020945200201CB537480168374AD1
:103F7000914207D1502080F31188BFF34F8FBFF3D8
:103F80006F8FFEE700683149491E884207D15020F3
:103F900080F31188BFF34F8FBFF36F8FFEE72C497B
:103FA00008780190FF20087008788DF800009DF8CF
:103FB00000009DF8002000F0F000904207D0502053
:103FC00080F31188BFF34F8FBFF36F8FFEE79DF82B
:103FD0000000204B00F0500018700720986005E0AA
:103FE0009DF8002052008DF80020401E9DF8002012
:103FF0001206F5D49860032807D0502080F311886A
:10400000BFF34F8FBFF36F8FFEE74FF440709860A0
:10401000019808700C482030016841F4700101607B
:10402000016841F070410160FFF7D6FE0020586042
:10403000FCF7D8F80848016841F040410160FCF7FE
:10404000BDF800201CBD000000ED00E071C20F4172
:1040500000E400E07400002034EF00E070B50E468C
:10406000050013D0D6B105FB06F04830FFF7EEFC93
:10407000040009D004F1480120468EB10160C0E976
:104080000F56012100F00EF8204670BD502080F33D
:104090001188BFF34F8FBFF36F8FFEE70020E4E777
:1040A0000060ECE770B50D46040025D0FFF732FE46
:1040B000D4E90F20216802FB001161600021A16397
:1040C0002168A1600A46D4E90F01401E00FB0121CE
:1040D000E16021464FF0FF3001F8440F487004F1D1
:1040E00010008DB1FFF7E3FD04F12400FFF7DFFDC1
:1040F000FFF730FE012070BD502080F31188BFF320
:104100004F8FBFF36F8FFEE721690029F0D000F0D9
:1041100085FA0028ECD004494FF080500860BFF3C6
:104120004F8FBFF36F8FE3E704ED00E02DE9FF470A
:1041300082B01D468A464FF00008040003D0BAF151
:10414000000F08D011E0502080F31188BFF34F8F8B
:10415000BFF36F8FFEE7206C38B1502080F31188D9
:10416000BFF34F8FBFF36F8FFEE7022D0AD1E06BD5
:10417000012807D0502080F31188BFF34F8FBFF381
:104180006F8FFEE700F086F93F4F4FF000094FF0C8
:10419000805648B9049838B1502080F31188BFF395
:1041A0004F8FBFF36F8FFEE7FFF7B4FDA06BE16B9E
:1041B000884207D3022D05D00498D0B1B8F1000F82
:1041C0001AD01EE02A4651462046FFF7D2FA616A0D
:1041D00019B104F1240000F021FA20B13E60BFF3D0
:1041E0004F8FBFF36F8FFFF7B5FD012006B0BDE81D
:1041F000F087FFF7AFFD22E06846FFF725FE4FF09E
:104200000108FFF7A7FDFFF779FEFFF783FD94F99B
:104210004400401C01D184F8449094F94500401CAE
:1042200001D184F84590FFF795FD04A9684600F098
:10423000C9F830B12046FFF7D3FB00F029FA00207F
:10424000D4E7FFF767FDA06BE16B884213D1FFF75E
:1042500081FD04F110000499FFF704FE2046FFF7EA
:10426000BFFB00F015FA00289ED13E60BFF34F8FD0
:10427000BFF36F8F98E7FFF76DFD2046FFF7B0FBA8
:1042800000F006FA90E7000004ED00E02DE9F747A2
:10429000002683B08A46040003D0BAF1000F08D08C
:1042A00011E0502080F31188BFF34F8FBFF36F8F61
:1042B000FEE7206C38B1502080F31188BFF34F8F98
:1042C000BFF36F8FFEE700F0E5F8DFF8F4804FF002
:1042D00000094FF0805748B9059838B1502080F355
:1042E0001188BFF34F8FBFF36F8FFEE7FFF712FD0B
:1042F000A56BC5B151462046FFF728FA6D1EA56390
:10430000206950B104F1100000F088F928B1C8F814
:104310000070BFF34F8FBFF36F8FFFF71BFD0120BE
:1043200006B0BDE8F087059808B11EB106E0FFF7BA
:1043300011FD27E06846FFF787FD0126FFF70AFD1C
:10434000FFF7DCFDFFF7E6FC94F94400401C01D1C7
:1043500084F8449094F94500401C01D184F84590BC
:10436000FFF7F8FC05A9684600F02CF80028204665
:104370000AD0FFF735FB00F08BF92046FFF7FEFA75
:104380000028B3D00020CBE7FFF7F8FA90B104F192
:1043900024000599FFF766FD2046FFF721FB00F09A
:1043A00077F90028A2D1C8F80070BFF34F8FBFF390
:1043B0006F8F9BE72046FFF713FB00F069F995E745
:1043C00004ED00E02DE9F0410C46050011D0C4B128
:1043D000FFF7A0FC174B5A696E682068911B471CB9
:1043E00017D02F689B6A9F4219D0964217D8012494
:1043F00010E0502080F31188BFF34F8FBFF36F8F11
:10440000FEE7502080F31188BFF34F8FBFF36F8F0B
:10441000FEE70024FFF79EFC2046BDE8F0818842BD
:1044200005D9401A20602846FFF70EFDF1E700206D
:104430002060DCE7200000202DE9FF5F8346DDE9F6
:104440000E87994616468A469000FFF7FFFA050048
:104450001AD05420FFF7FAFA040012D02563002185
:10446000CDE90241CDE900874B46324651465846D8
:10447000FFF716FA2046FFF701F9012004B000F01B
:1044800006B82846FFF77AFC4FF0FF30F6E730BC5D
:10449000BDE8C09F0548C16919B1806B18B1002003
:1044A0007047012070470220704700002000002064
:1044B0000148406970470000200000202DE9F041CC
:1044C0002E4C0027A06B40B1206A401C2062606A1D
:1044D00000B101273846BDE8F0816669761C666147
:1044E00013D16068006838B1502080F31188BFF3A1
:1044F0004F8FBFF36F8FFEE76068A1686160A060B7
:10450000A06A401CA062FFF747FA206BDFF87080BA
:10451000864209D36068006880B16068C068C56879
:10452000686886420DD220632068C06A00EB800173
:1045300058F821000128CAD90127C8E74FF0FF30F9
:10454000F1E7281DFFF78EFBA86A18B105F11800E6
:10455000FFF788FBE86A0121A26981401143A1614C
:1045600000EB800108EB8100291DFFF7C6FBE86A1C
:104570002168C96A8842CDD30127CBE720000020FB
:104580009452002070B504004FF0000140D0214D3E
:104590002868844207D0502080F31188BFF34F8FE2
:1045A000BFF36F8FFEE7A06C38B1401EA064636C50
:1045B000E26A9A422CD040B12AE0502080F3118860
:1045C000BFF34F8FBFF36F8FFEE7201DFFF74AFB4E
:1045D000114A012150B9E06A00EB800352F8233000
:1045E00023B9AB6901FA00F08343AB61606CE06210
:1045F000C0F10700A061E06AAB6981401943A9617D
:1046000000EB800002EB8000211DFFF776FB01210B
:10461000084670BD20000020945200202DE9F04192
:10462000C068C468ACB104F118000746FFF71AFB74
:10463000154DA86B0126A0B139461448FFF75DFB64
:10464000E06A2968C96A88421CD901206E62BDE807
:10465000F081502080F31188BFF34F8FBFF36F8F2D
:10466000FEE7201DFFF7FEFAE16AAA6906FA01F0EB
:104670001043A86101EB81000449B43901EB8000CB
:10468000211DDBE70020E2E7200000204853002046
:104690002DE9F0472C4D00242746A86B38B1FFF7D1
:1046A00039FBA86B401EA863A86B40B146E05020C0
:1046B00080F31188BFF34F8FBFF36F8FFEE7296937
:1046C000224E0120D1B3A6F1B40980463068E8B18A
:1046D000F068C46804F11800FFF7C4FA201DFFF762
:1046E000C1FAE06AAA6908FA00F11143A96100EB76
:1046F000800109EB8100211DFFF7FFFAE06A2968BC
:10470000C96A8842E2D3C5F82480DFE70CB1FFF71D
:1047100043F92C6A44B14646FFF7D0FE00B16E6201
:10472000641EF9D100202862686A38B1084901275F
:1047300038070860BFF34F8FBFF36F8FFFF70AFB97
:104740003846BDE8F08700002000002048530020D4
:1047500004ED00E0B0470008D92000080000000088
:1047600000000000800000000000000000000000C9
:104770000102030406070809A0860100400D03009A
:10478000801A060000350C0040420F0080841E0095
:1047900000093D0000127A000024F40000366E018A
:1047A0000048E801006CDC02000000000102030484
:1047B00064656661756C745461736B00DC47000856
:1047C0000000002080000000742A00085C480008F7
:1047D0008000002008F30000842A00080000000088
:1047E00000000000000000000000000000000000C9
:1047F000000000000000000000093D000000000073
:1048000000000000000000000000000000000000A8
:104810000000000000000000000000000000000098
:104820000000000000000000000000000000000088
:104830000000000000000000000000000000000078
:104840000000000000000000000000000000000068
:0C48500000000000AAAAAAAA00000000B4
:040000050800018965
:00000001FF
