:020000040800F2
:10000000A01B01207D020008DF2700085322000802
:10001000DD2700083D090008FD320008000000004F
:100020000000000000000000000000009D0100082A
:100030009509000800000000F9010008292C0008BB
:10004000970200089702000897020008970200082C
:10005000970200089702000897020008970200081C
:10006000970200089702000897020008970200080C
:1000700097020008970200089702000897020008FC
:1000800097020008970200089702000897020008EC
:1000900097020008970200089702000897020008DC
:1000A00097020008970200089702000897020008CC
:1000B0002D2D0008970200089702000897020008FB
:1000C00097020008970200089702000897020008AC
:1000D0009702000897020008C13200089702000842
:1000E000970200089702000897020008970200088C
:1000F000970200089702000897020008970200087C
:10010000970200089702000897020008970200086B
:10011000970200089702000897020008970200085B
:10012000970200089702000897020008970200084B
:10013000970200089702000897020008970200083B
:10014000970200089702000897020008970200082B
:10015000970200089702000897020008970200081B
:10016000970200089702000897020008970200080B
:10017000970200089702000897020008000000009C
:100180009702000897020008DFF80CD000F086FB09
:1001900000480047013F0008A01B01202C4B1968B4
:1001A000086800F05AB880F30988BFF36F8F4FF0EA
:1001B000000080F3118870470000000008480068C4
:1001C000006880F308884FF0000080F3148862B65E
:1001D00061B6BFF34F8FBFF36F8F00DF00BF00BF6B
:1001E00008ED00E0DFF80C00016841F470010160E7
:1001F000704700BF88ED00E0EFF30980BFF36F8F19
:10020000134B1A681EF0100F08BF20ED108A20E96A
:10021000F04F106009B44FF0500080F31188BFF325
:100220004F8FBFF36F8F04F08FFA4FF0000080F311
:10023000118809BC1968086800F014B81EF0100F86
:1002400008BF00F014B880F30988BFF36F8F7047C0
:1002500048000020EFF30580704730C8B0E8C04F79
:10026000FFF7A1BF30C8B0E8C04FFFF7E7BFB0EC61
:10027000088AB0EC08CAFFF7E6BF000006488047CE
:1002800006480047FEE7FEE7FEE7FEE7FEE7FEE77B
:10029000FEE7FEE7FEE7FEE7E92C0008890100081B
:1002A0002DE9F05F0546002092469B4688460646AB
:1002B000814640241BE0284641464746224600F03E
:1002C000BCF853465A46C01A914110D311461846FD
:1002D000224600F0A3F82D1A67EB01084F4622468C
:1002E0000120002100F09AF817EB00094E41201E72
:1002F000A4F10104DFDC484631462A46434600F0BB
:1003000000B830BCBDE8C09F40EA01039B0703D0A2
:1003100009E008C9121F08C0042AFAD203E011F844
:10032000013B00F8013B521EF9D27047D2B201E006
:1003300000F8012B491EFBD270470022F6E710B5EA
:1003400013460A4604461946FFF7F0FF204610BD43
:1003500010B5044604E00B7800F8013B03B1491CDA
:10036000521EF8D2204610BD421C10F8011B002975
:10037000FBD1801A70470EB5C10F80EAE0700844C7
:10038000CA07002140F233438DE80E000A460B46AF
:1003900000F072F803B000BD00F0004230F0004001
:1003A0000AD0C10D01F56071C0F3160042EA015197
:1003B000C208400711437047002001467047000003
:1003C00030B5041E71F1000404DB4FF000444042DC
:1003D00064EB0101141E73F1000405DB1C464FF0B1
:1003E0000043524263EB04038B4208BF824230BD9C
:1003F00030B50B46014600202022012409E021FAF5
:1004000002F59D4205D303FA02F5491B04FA02F5F1
:100410002844151EA2F10102F1DC30BD202A04DBC4
:10042000203A00FA02F1002070479140C2F1200307
:1004300020FA03F3194390407047202A04DB203A46
:1004400021FA02F00021704721FA02F3D040C2F1F4
:100450002002914008431946704710B5141E73F1ED
:10046000000408DA401C41F1000192185B411A4374
:1004700001D120F0010010BD2DE9F04D92469B46C0
:1004800011B1B1FA81F202E0B0FA80F22032904666
:10049000FFF7C4FF04460F4640EA0A0041EA0B0199
:1004A00053465A46084313D0114653EA010019D067
:1004B000C8F140025046FFF7C0FF05460E465046C1
:1004C00059464246FFF7AAFF084305D0012004E041
:1004D00020463946BDE8F08D0020054346EAE07627
:1004E0002C4337430A986305E40AA0EB0800002276
:1004F000FD0A44EA47540A3002D500200146E9E7E4
:10050000010510196941DDE9084500196941BDE897
:10051000F04DA2E72DE9FE4F804681EA0300C00FAF
:100520000C46009021F0004123F00045B8EB02009A
:10053000A94105D24046214690461C460B4602463C
:1005400023F00040104347D0270DC7F30A00C3F340
:100550000A510290401A019040286BDAC3F313004D
:1005600040F4801B0098924620B10023D2EB030A8E
:1005700063EB0B0B01985946C0F140025046FFF760
:100580004DFF06460D4650465946019A00F098F92F
:1005900010EB08006141002487EA115284EAE773F6
:1005A0001A4340D0009A62B3019A012A4FEA0752D7
:1005B00015DC001B61EB02014FF0004202EA07521A
:1005C000CDE90042001C41F5801132462B46FFF771
:1005D00053FF03B000F045B840462146F9E7001B41
:1005E00061EB0201001C41F5801300185B412018EB
:1005F000A2F5001747EB030140EAD570B6196D412B
:1006000011E06D084FEA360645EAC0754FEA075219
:10061000001B61EB0201001C41F5801149084FEA03
:1006200030000019514132462B4603B000F01CB88F
:10063000FFF713BF0098012240000023D0EB020215
:1006400063EBE073009821464FEAE074B8EB0000DA
:1006500061EB0401E9E783F000435BE781F00041CF
:1006600058E730BCBDE8C08F30BCBDE8C04FFFF7D5
:10067000DFBF2DE9FE4F81EA030404F0004421F0BE
:10068000004100944FF0000B23F0004350EA0104B6
:100690005ED052EA03045BD0C3F30A54C1F30A5597
:1006A0002C44A4F2F3340194A0FB0254C1F31301CF
:1006B00041F48011C3F3130343F4801301FB02449C
:1006C00000FB034E840A970A44EA815447EA8357A1
:1006D000A4FB076802958D0A05FB07854FEA932C5A
:1006E00004FB0C542705029D4FEA065847EA1637CB
:1006F000B5EB08056EEB070C870E920E47EA8117E3
:1007000042EA8312A7FB0201B6EB0B0164EB000483
:100710002B0D43EA0C335E1844EB1C50DA4651466D
:10072000E7FB0201C5F313044FEA0B3343EA14530A
:100730004FEA0432019C43EA0603A4F10C0402943C
:10074000009CCDE900B4FFF797FE03B000F003B8BA
:1007500000200146F9E730BCBDE8C08F2DE9F04D1F
:1007600081EA030404F0004B21F0004514464FF0E9
:10077000000A23F0004150EA050220D054EA0102A9
:100780001DD0C5F30A570246C5F31303C1F3130086
:10079000C1F30A5640F4801543F48013A7EB060812
:1007A000101BD64608F2FD3873EB050002D308F1A2
:1007B000010801E092185B41B8F1000F03DA002054
:1007C0000146BDE8F08D00204FF4801106468446B6
:1007D0000EE0171B73EB050705D3121B63EB050334
:1007E00006434CEA010C49084FEA300092185B417D
:1007F00050EA0107EDD152EA030012D082EA040068
:1008000083EA0501084305D0101BAB4106D2012243
:10081000002306E000224FF0004302E06FF00102E7
:1008200053101AEB06004CEB085110EB0A0041EB99
:100830000B01BDE8F04DFFF710BEC1F30A52C1F342
:10084000130140F2FF3341F480119A4202DA002092
:100850000146704740F233439A42A2F2334202DC2F
:100860005242FFF7EABDFFF7D9BD000030B5041EC4
:1008700071F1000404DB4FF00044404264EB0101DD
:10088000141E73F1000405DB1C464FF00043524276
:1008900063EB0403994208BF904230BD064C074DFC
:1008A00006E0E06840F0010394E807009847103440
:1008B000AC42F6D3FFF76CFCE84A0008084B00088E
:1008C000202A06DBCB17203A41FA02F043EAE07314
:1008D00006E041FA02F3D040C2F120029140084301
:1008E0001946704703490968096B002900D0084779
:1008F000704700001000002070B50E4C0125002646
:10090000A0688047D42803D0A0688047D5280ED19E
:10091000094D41F23F002C60216888472868816AB0
:10092000304688472868C16A102088470025284635
:1009300070BD00001400002010000020FEE7000041
:1009400010B5012000F0FCF800EE100ADFED0F0AF0
:100950009FED0F1AB8EEC00A30EE600AF3EE000AFF
:1009600020EE200AC0EE010AB1EE0C0A30EE800A39
:10097000BCEEC00A10EE100AC0B2072801D2072050
:1009800010BD1728FCD9172010BD0000000034C28C
:100990000000B442704770472DE9F041354C86B0F5
:1009A000E06C40F01000E064E06C012500F0100005
:1009B0000095059001AA00260327DFF8BC8082E895
:1009C000E0006946404600F029F901221146404600
:1009D00000F009FAE06C40F00400E064E06C00957F
:1009E00000F00400059001AADFF8908082E8E000A2
:1009F0006946404600F012F901221146404600F0D7
:100A0000F2F9E06C40F00800E064E06C694600F048
:100A10000800059080208DE8E100194D284600F07F
:100A2000FDF801228021284600F0DDF9E06C40F05D
:100A30000800E064E06C694600F0080005900420BE
:100A4000CDE900062846CDE9026700F0E7F8E06C42
:100A500040F00200E064E06C694600F0020005909E
:100A6000A0150090074800F0D9F802F031F806B060
:100A7000BDE8F08100100240001000480008004866
:100A8000000C0048000400482DE9F04114460546DA
:100A9000012A02D941F0C00601E041F08006104F62
:100AA00000228021384600F09EF90E480068016857
:100AB00021F444410160304602F054F806E0002081
:100AC00002F050F8641E05F8010BA4B2002CF6D118
:100AD0003846BDE8F0410122802100F084B90000D1
:100AE000000C0048380300202DE9F041144605466B
:100AF0000E46012A01D941F040060F4F0022802105
:100B0000384600F070F90D480068016821F444414E
:100B10000160304602F026F805E0287802F022F85D
:100B2000641EA4B26D1C002CF7D13846BDE8F0411C
:100B30000122802100F057B9000C00483803002042
:100B4000032803D2024951F8200070470020704763
:100B5000B400002002480349C0690968081A7047B8
:100B600064020020240400407CB5164D69461648F6
:100B70002C7E00F053FF00990720B1FBF0F200FB40
:100B80001210C01C0090172C10D0072C17D001A9F0
:100B90000D4800F043FF019810F00100019007D0CC
:100BA00000982044172808DD172006E00020019057
:100BB0000098201A072800DA072028767CBD01203B
:100BC0000190EDE7C0000020F800002010B590F87B
:100BD00025100024022903D00421C16301241AE056
:100BE00001680A6822F00E020A6001680A6822F0B1
:100BF00001020A6090F84410036C01F01C0201210C
:100C000001FA02F25A6080F82510002180F82410C1
:100C1000816B01B18847204610BD00002DE9F84FD7
:100C2000DFF898B100234FF0010C4FF0030A4FF0AA
:100C30000F090BF1040EB9E00CFA03F4224070D056
:100C40004D68022D01D0122D0ED1DD0800EB850874
:100C5000D8F820505E07F70E09FA07F6B5430E697B
:100C6000BE402E43C8F8206007685E0091F80480FB
:100C70000AFA06F508F00308AF4308FA06F848EA4E
:100C80000708C0F800804F68012F05D0022F03D05D
:100C9000112F01D0122F13D1D0F80880CF6828EA85
:100CA0000508B74047EA08078760D0F804800F7945
:100CB00028EA0408C7F300179F4047EA080747607F
:100CC000D1F804806FEA0807BF0706D1C76AA743B7
:100CD000C8F3C0049C403C43C462C468AC438D6804
:100CE000B5402543C5604C68E4005ED5344C256EA4
:100CF00045F001052566246E23F0030504F0010488
:100D00000094304C2E19B4689D072F0F09FA07F58F
:100D1000AC43B0F1904F05D02B4DA84204D1012532
:100D20001CE042E0002519E0284DA84201D102252F
:100D300014E0274DA84201D103250FE0254DA8421C
:100D400001D104250AE0244DA84201D1052505E082
:100D5000224DA84201D1062500E00725BD402543CC
:100D6000B560DBF800405D464E689443F60300D55D
:100D700014432C60DEF8004075464E689443B60379
:100D800000D514432C600D4D08352C684E689443F3
:100D9000F60200D514432C60084D0C352C684E68C3
:100DA0009443B60200D514432C605B1C0A6832FAE7
:100DB00003F57FF441AF00F013B8000000040140D8
:100DC00000100240000001400004004800080048F4
:100DD000000C0048001000480014004800180048AB
:100DE00018BCBDE8E08F0AB181617047816270472D
:100DF00001480068704700000800002002480168B0
:100E0000491C0160704700000800002010B5002454
:100E1000032000F089F8002000F008F808B1012450
:100E200001E000F03BF8204610BD000000B501468F
:100E300087B000221C2000F057F81C2000F048F872
:100E40001348816D41F001018165806D05A900F0B5
:100E500001000690684600F019FB00F037FB0D49D1
:100E60004FF08042B0FBF1F10B48491E0260416037
:100E700040F2E7320021C0E90321816000F0F0FE7A
:100E800010B1012007B000BD034800F019FFF9E7D9
:100E90000010024040420F00240200200B4882B0A4
:100EA000016E41F001010166016E01F00101009146
:100EB000816D41F080518165806D002200F080508D
:100EC00000900F21901E02B000F00EB800100240FA
:100ED00000F01F02012191404009800000F1E02054
:100EE000C0F8001170470000F0B40E4B1B680C46B0
:100EF000C3F30223C3F10705042D00D90425191DEE
:100F0000072901D2002300E0DB1E012606FA05F1C5
:100F1000491E214099409E40761E16403143F0BC48
:100F200001F05EBC0CED00E0064900F00702086825
:100F30004FF6FF03184040EA0220034A10430860BE
:100F4000704700000CED00E00000FA051649B0F50E
:100F5000007F0868C0F3412009D0022805D0086846
:100F600020F4C06040F480600860002070470128D1
:100F7000FBD0086820F4C06040F4007008600B48A3
:100F80003222006850430A4AB0FBF2F0401C00E0F5
:100F9000401E4A69520501D50028F9D1486940052B
:100FA000E3D5032070470000007000400C000020D3
:100FB00040420F000248006800F4C0607047000023
:100FC000007000402DE9F84F044600270088E54DE9
:100FD0003E46010504F1200B1DD5606E78B1B0F5D9
:100FE000800F11D0B0F5000F04D0B0F5400F22D023
:100FF00001270FE0E86840F48030E8601BE0002142
:10100000201D01F0FDFB03E00021584601F08EFC9D
:10101000070010D03E462088C00426D5A06EC0B17F
:10102000B0F1807F1AD0B0F1007F0DD0B0F1407FD9
:1010300019D0012718E0D5F88800616E20F440002F
:101040000843C5F88800E6E7E86840F48030E860C7
:1010500009E00021201D01F0D3FB03E000215846E8
:1010600001F064FC0746F7B13E46206880033AD59C
:10107000A86D4FF00008C00009D4A86D40F0805062
:10108000A865A86D4FF0010800F080500090DFF8CF
:10109000D8A2DAF8001041F48071CAF80010FFF706
:1010A000A7FE814610E0D5F88800A16E20F04070C0
:1010B0000843C5F88800D8E7FFF79AFEA0EB0900BF
:1010C000022801D9032705E0DAF80000C005F3D5AE
:1010D000002F7CD04FEA0706B8F1000F03D0A86DAF
:1010E00020F08050A8652078C00707D0D5F8880088
:1010F000A16B20F003000843C5F888002078800722
:1011000007D5D5F88800E16B20F00C000843C5F83E
:1011100088002078400707D5D5F88800216C20F09A
:1011200030000843C5F888002078000707D5D5F8B7
:101130008800616C20F0C0000843C5F88800207862
:10114000C00607D5D5F88800A16C20F4407008438C
:10115000C5F888002078800607D5D5F88800E16CAE
:1011600020F440600843C5F888002088800507D532
:10117000D5F88800E16D20F440200843C5F88800C8
:101180002088400507D5D5F88800216E20F440104E
:101190000843C5F888002078400607D5D5F88800B0
:1011A000216D20F440500843C5F8880020780006DF
:1011B00007D5D5F88800616D20F440400843C5F894
:1011C00088002088C00509D5D5F8880000E01CE01B
:1011D000A16D20F440300843C5F8880020884FF006
:1011E000006780044FF080684FD5D5F88800E16E25
:1011F00020F040600843C5F88800E06EB8423CD15A
:10120000E86840F48010E8603FE0D5F8900010F402
:10121000407015D0D4F88410814211D0D5F89000D8
:10122000D5F8901020F4407041F48031C5F890104A
:10123000D5F8901021F48031C5F89010C5F89000D1
:10124000C00710D0FFF7D4FD074641F2883906E009
:10125000FFF7CEFDC11B494501D903263CE7D5F870
:1012600090008007F4D5D5F89000D4F8841020F4CD
:1012700040700843C5F890002EE7404505D1012194
:10128000201D01F0BDFA00B106462068000317D505
:10129000D5F88800216F20F040600843C5F8880029
:1012A000206FB84204D1E86840F48010E86007E09D
:1012B000404505D10121201D01F0A2FA00B10646EA
:1012C0002068400317D5D5F88800616F20F0406092
:1012D0000843C5F88800606FB84204D1E86840F45C
:1012E0008010E86007E0404505D10121201D01F094
:1012F00087FA00B10646208840041AD5D5F8880040
:10130000A16F20F040500843C5F88800A06FB0F1ED
:10131000805F03D0B0F1005F05D00AE00221201DFC
:1013200001F06EFA03E00221584601F0FFFA00B125
:1013300006462088000407D5D5F88800E16F20F024
:1013400080400843C5F888002068C00307D555F8D9
:10135000880FD4F8801020F0004008432860304601
:1013600000F004B8001002400070004018BCBDE856
:10137000E08F00002DE9F0470F46050058D03F4EA2
:10138000306800F00700B84209D2306820F007004A
:1013900038433060306800F00700B84248D1287800
:1013A000374CC0072CD06868032811D0022812D00F
:1013B000216898B1490500293ADAA16821F00301B2
:1013C0000143A160FFF714FD804641F2883910E027
:1013D00021688901EFE721688903ECE78907EAE7DB
:1013E000FFF706FDA0EB0801494502D90320BDE83F
:1013F000F087A068696800F00C00B0EB810FEFD1B6
:101400002878800705D5A068A96820F0F000084377
:10141000A060306800F00700B8420BD9306820F0B7
:10142000070038433060306800F00700B84201D050
:101430000120DCE72878400705D5A068E96820F49A
:10144000E0600843A0602878000706D5A0682969F5
:1014500020F4605040EAC100A06000F05BF8A16891
:10146000084AC1F30311515C01F01F01C84006494D
:101470000860BDE8F0470020FFF7D8BC002002401C
:1014800000100240944A00080C0000200F22026065
:101490000C4A936803F003034360936803F0F0037E
:1014A0008360936803F4E063C36092684FF4E06381
:1014B00003EAD20202610448006800F007000860F5
:1014C0007047000000100240002002400548064915
:1014D00000688968054AC1F30221515C01F01F01CF
:1014E000C84070470C00002000100240D44A000899
:1014F0000548064900688968054AC1F3C221515C64
:1015000001F01F01C84070470C000020001002408D
:10151000D44A000870B52549002318468A68CC686B
:1015200012F00C0204F00306214C4FEA640509D0C6
:101530000C2A05D0042A26D0082A00D1284670BDDE
:10154000012E10D10B681B0704D4D1F89430C3F3DB
:10155000032302E00B68C3F30313164E56F823303F
:101560007AB10C2AEBD1C86800F00302C868C0F356
:101570000210401C022A08D0032A09D0B3FBF0F065
:1015800008E0184670BD204670BDB4FBF0F001E0E5
:10159000B5FBF0F0CA68C968C2F306225043C1F334
:1015A0004161491C4900B0FBF1F070BD00100240E0
:1015B0000024F400A44A00082DE9F84305007CD07B
:1015C000FD4CA06800F00C06E06800F003072878E6
:1015D000C00661D576B10C2E01D1012F0AD0A869C1
:1015E0000028206878D040F001002060FFF700FC60
:1015F000804659E02068800702D5A8690028DED01F
:10160000286A2168090703D5216801F0F00104E088
:10161000D4F89410F02202EA1111884215D901F091
:1016200009FA002849D1206840F0080020602068AD
:10163000296A20F0F000084320606068E96920F41E
:101640007F4040EA0120606015E0206840F008001B
:1016500020602068296A20F0F0000843206060685C
:10166000E96920F47F4040EA01206060286A01F0C7
:10167000E1F90028D6D1FFF74DFFA168CF4AC1F3A9
:101680000311515C01F01F01C840CD4908600020E2
:10169000FFF7CCFB00287DD12FE000BFFFF7A8FBB0
:1016A000A0EB0800022876D820688007F6D52068CD
:1016B00040F008002060206801E0BBE00CE0296AEF
:1016C00020F0F000084320606068E96920F47F4062
:1016D00040EA0120606010E020F001002060FFF788
:1016E00087FB804606E000BFFFF782FBA0EB080007
:1016F0000228D8D820688007F6D42878C00740D0C0
:10170000082E18D00C2E01D1032F14D06868B0F524
:10171000803F17D0B0F5A02F206817D020F480307C
:101720002060206820F4802020606868E0B1FFF726
:101730005FFB804614E02068800322D5686800289B
:1017400078D01EE0206840F48030EDE740F480203F
:101750002060F7E7FFF74CFBA0EB08006428A2D855
:1017600020688003F6D50CE0FFF742FB804605E0D9
:10177000FFF73EFBA0EB0800642894D820688003A4
:10178000F6D4287880073BD5042E11D00C2E04D136
:10179000022F01E036E1A1E00AD0E86800282068C5
:1017A0001ED040F480702060FFF722FB07460CE05B
:1017B000206840050CD5E8680028C1D008E000BFCB
:1017C000FFF716FBC01B022893D820684005F7D509
:1017D0006068297C20F0F85040EA016060600FE00A
:1017E00020F480702060FFF703FB074605E000BF90
:1017F000FFF7FEFAC01B022870D820684005F7D416
:101800002878000729D568690028D4F8940012D0F8
:1018100040F00100C4F89400FFF7EAFA074604E03C
:10182000FFF7E6FAC01B022858D8D4F894008007C6
:10183000F6D512E0EDE020F00100C4F89400FFF7C7
:10184000D7FA074605E000BFFFF7D2FAC01B02280F
:1018500044D8D4F894008007F6D42878400768D597
:10186000A06D0027C00008D4A06D40F08050A06596
:10187000A06D012700F08050009052480168C90512
:1018800012D40168814641F480710160FFF7B0FA1B
:10189000804605E0FFF7ACFAA0EB080002281DD84F
:1018A000D9F80000C005F5D5A868012817D005288B
:1018B000D4F8900018D020F00100C4F89000D4F8BB
:1018C000900020F0040000BFC4F89000A86841F226
:1018D0008839D0B1FFF78CFA804611E06BE0D4F87C
:1018E000900040F00100EFE740F00400C4F89000E1
:1018F000F5E700BFFFF77CFAA0EB080149455AD88D
:10190000D4F890008007F5D50EE0FFF771FA804615
:1019100006E000BFFFF76CFAA0EB0801494570D85C
:10192000D4F890008007F5D41FB1A06D20F080504E
:10193000A065A86AF0B30C2E6BD00228206820F0B6
:101940008070206004D0206810F0205F47D04AE00B
:10195000FFF74EFA064604E0FFF74AFA801B02281A
:101960004FD820688001F7D4286BE96A000110384D
:101970000843696BAA6B0902120941EA4241084314
:10198000A98F114A490802EB4151084395F84010CC
:101990004908120102EB41610843E060206840F011
:1019A00080702060E06840F08070E060FFF720FA0F
:1019B000054610E02BE024E000100240944A0008A5
:1019C0000C000020007000400000E0FFFFF710FA5C
:1019D000401B022815D820688001F7D517E0E06881
:1019E00020F00300E060E0680B490840E060FFF78A
:1019F000FFF9054608E000BFFFF7FAF9401B02288F
:101A000002D90320BDE8F88320688001F4D40020C7
:101A1000F8E70120F6E70000FFFFEEFE2DE9F047B2
:101A2000044600790026894601280CD00127277139
:101A30006079B046012808D05FF0010684F8048080
:101A40003046BDE8F0870220FBE702206071FFF717
:101A5000CFF905460BE000BFFFF7CAF9401B02288B
:101A600005D90420607184F804800320E9E7206828
:101A70004068C043C007EFD120688068E060C9F8C3
:101A800000006771DAE770B5040003D060790025C3
:101A900010B105E0012070BD2571204600F00CF862
:101AA000022060712068016841F00401016001209A
:101AB0006071A560002070BD08B5006806498842C5
:101AC00008D10648C16C41F48021C164C06C00F4A7
:101AD0008020009008BD0000000806500010024061
:101AE00090F85D0070472DE9F041040005D0002515
:101AF000A56294F85D0018B107E00120BDE8F0810F
:101B000084F85C50204600F045F8022384F85D30EC
:101B10002068016821F040010160E0684FF4E06650
:101B2000B04201D9002101E04FF48051B0F5706F4F
:101B300002D0B04200D0A562276B012227B9B04283
:101B400001D9236300E02263D4E901031843D4E9F7
:101B5000043633431843238B03F400731843E369BB
:101B60001843236A1843A36A184323681860636BF9
:101B7000606AA66918430427E36807EA16463343F8
:101B80001843084321684860256684F85D200020DA
:101B9000B4E7000010B586B0044614216846FEF78D
:101BA000CCFB1249206888421ED11148816D41F456
:101BB00080418165816D01F480410591C16C41F0E6
:101BC0000801C164C06C694600F0080005901A2045
:101BD0000090022001900020029003200390052035
:101BE00004900448FFF71AF806B010BD0038004012
:101BF00000100240000C004870477047704700001A
:101C000070B590F83C20012A24D0012480F83C4093
:101C1000022280F83D200268536895680E4EB24259
:101C200002D00E4EB24203D123F470064B68334308
:101C300023F070060B688968334325F0800529433B
:101C400053600268916080F83D40002180F83C10AC
:101C5000084670BD022070BD002C014000340140D8
:101C600010B5040003D094F83D0010B107E0012046
:101C700010BD002084F83C00204600F00DF8022042
:101C800084F83D00211D206801F056F8012084F8F9
:101C90003D00002010BD000008B5006806498842DC
:101CA00008D10648816D41F008018165806D00F022
:101CB0000800009008BD0000000C00400010024029
:101CC0000168CA6842F00102CA6000688268074978
:101CD0000A40062A08D082680A40B2F5803F03D045
:101CE000016841F001010160002070470700010018
:101CF00070B5044690F83C00012817D0012584F8FF
:101D00003C50022084F83D0020688268324E324008
:101D100022F47F4282600868502839D00DDC2028E8
:101D200055D005DC98B3102843D150E0022070BD97
:101D300030284CD040283CD141E0602830D0702879
:101D40000CD0B0F5805F03D0B0F5005F31D112E068
:101D500020688168204A7032114016E0CB68D1E9D2
:101D60000121206801F048F821688868304040F07F
:101D7000770088601DE0CB68D1E90121206801F07F
:101D80003BF82068816841F48041816011E01EE0E9
:101D9000CA684968206801F041F85021206806E0CF
:101DA000CA684968206801F04AF86021206801F09B
:101DB0002DF884F83D50002084F83C0070BDCA68BE
:101DC0004968206801F02AF840212068EFE722687E
:101DD00001461046EBE7000088FFFEFF704770B534
:101DE0000446006801694FF00005C943890715D40E
:101DF000C168C943890711D4E91E01610120207718
:101E0000206880698007204602D0FFF7E7FF04E0E2
:101E100000F0A7F8204600F0A5F8257720680169B2
:101E2000C943490717D4C168C943490713D46FF0A0
:101E300004010161022020772068806910F4407F4E
:101E4000204602D0FFF7CAFF04E000F08AF82046DF
:101E500000F088F8257720680169C943090716D47E
:101E6000C168C943090712D46FF008010161042059
:101E700020772068C0698007204602D0FFF7AEFFB8
:101E800004E000F06EF8204600F06CF8257720683A
:101E90000169C943C90617D4C168C943C90613D427
:101EA0006FF010010161082020772068C06910F4EC
:101EB000407F204602D0FFF791FF04E000F051F888
:101EC000204600F04FF8257720680169C943C9070B
:101ED00008D1C168C943C90704D1891E01612046E0
:101EE00000F041F820680169C943090609D4C168B6
:101EF000C943090605D46FF0800101612046FFF750
:101F00007CFE20680169C943C90509D4C168C94379
:101F1000090605D46FF4807101612046FFF76CFE5D
:101F200020680169C943490609D4C168C943490603
:101F300005D46FF040010161204600F01BF82068D5
:101F40000169C94389060BD4C168C943890607D40E
:101F50006FF0200101612046BDE87040FFF74EBEE2
:101F600070BD704770470068B0F1804F01D1FEF737
:101F700045BF704770477047704700002DE9F0413A
:101F800002680446D0691168936810F00F0F4FF093
:101F900000055BD003F0010601F49077374369D068
:101FA000C70707D0CF0505D501271762626F42F03A
:101FB00001026267820708D5DA0706D02768022285
:101FC0003A62626F42F004026267420708D5DA079C
:101FD00006D0236804221A62626F42F0020262672E
:101FE00002070AD501F02002324306D023680822F6
:101FF0001A62626F42F008026267626F002A32D092
:10200000800605D5880603D5216E09B1204688478C
:10201000606F000703D420688068400625D52046FD
:1020200000F0BBFF20688168490619D5816821F05E
:1020300040018160E06E98B120498163E06EFEF757
:10204000C5FD00280FD0E06E816B06E0860611D535
:102050008E060FD5216E1EE02046BDE8F0410847F0
:102060002046FFF789FFBDE8F0812046FFF784FF97
:102070006567F8E7C60209D55B0207D54FF4801003
:1020800010622046BDE8F041FFF775BF030605D595
:102090000B0603D5616E0029DED1E4E74006E2D5E8
:1020A0004806E0D51168204621F04001116020214A
:1020B00084F87110656600F0CBF8D4E7872F00082C
:1020C00010B5040003D094F8710010B107E00120AE
:1020D00010BD002084F87000204600F027F824206E
:1020E00084F871002068016821F001010160204638
:1020F00000F064FF0128EBD0606A10B1204600F0C8
:10210000B0FE2068416821F49041416020688168F8
:1021100021F02A0181602068016841F0010101601D
:102120002046BDE8104000F000BF000010B586B0AA
:10213000044614216846FEF700F9164920688842D3
:1021400026D11548816D41F400318165816D01F41E
:1021500000310591C16C41F00801C164C06C694651
:1021600000F00800059060200090022001900020FF
:10217000029003200390072004900848FEF74EFDCC
:10218000002205212620FEF7AFFE2620FEF7A0FE46
:1021900006B010BD0044004000100240000C004892
:1021A0002DE9F843044690F871001F4616460D4687
:1021B00020284BD1C5B1BEB194F87000012845D09C
:1021C000012084F870004FF00008C4F874802120CA
:1021D00084F87100FEF70CFEA4F850608146A4F864
:1021E00052604FF4805615E00120BDE8F88380214D
:1021F000204601F033F8D8B9A068B04201D1206977
:10220000C0B115F8010B21680885B4F85200401ED2
:10221000A4F85200B4F852004B464FF00002009769
:102220000028E4D14FF04001204601F017F830B10A
:102230000320DAE735F8020BC0F30800E3E72020BB
:1022400084F8710084F870800020CEE70220CCE78B
:102250007047FEE70F48C16C41F00101C1644FF0C7
:102260009040016821F003010160016841F0020122
:102270000160016821F00C010160016841F0080172
:102280000160016A41F001010162016A41F010013F
:10229000016270470010024000B5FFF7DBFF00F05D
:1022A00025F80721012000F07BFC072102205DF8C2
:1022B00004EB00F075BC00000A48816D41F002019A
:1022C0008165094941F63F70086007481438016884
:1022D00041F00101016004482838016841F0010122
:1022E0000160704700100240280400402D4810B5DE
:1022F000816D41F0010181654FF0804441F63F70EE
:10230000A062606940F001006061A06920F00300F4
:10231000A061A06940F00800A061A06922490840BE
:10232000A061A06940F02000A061A06940F04000D9
:10233000A061A06920F44070A061A06940F4006031
:10234000A061A0694FEA31610840A061A06940F432
:102350000050A061A06940F48040A061206840F076
:1023600080002060206A40F001002062206A40F076
:1023700010002062606940F001006061C820E062E6
:102380000721012000F00CFC0721022000F008FCCE
:10239000606940F001006061206840F00100206049
:1023A00010BD0000001002408FFFFEFF704738B5DF
:1023B0000446012222216846FEF766FB14B1012C77
:1023C00005D00AE09DF8000000F07F0003E09DF8D2
:1023D000000000F0F7008DF800000122222168467D
:1023E000FEF782FB38BD38B504460122222168463B
:1023F000FEF74AFB14B1012C07D00EE09DF8000057
:1024000000F07F0040F0800005E09DF8000000F043
:10241000F70040F008008DF80000012222216846F4
:10242000FEF762FB38BD38B5044601222421684618
:10243000FEF72AFB9DF80000012200F0EF00204388
:102440008DF8000024216846FEF74EFB38BD38B5F4
:102450000446012221216846FEF716FB9DF8000084
:10246000012200F0C00020438DF8000021216846C1
:10247000FEF73AFB38BD1CB5044600208DF800007D
:102480008DF80400012230216846FEF7FDFA012292
:10249000222101A8FEF7F8FA9DF80000012200F0C1
:1024A00080008DF800009DF80400302100F0DF006E
:1024B00004438DF804406846FEF716FB01222221F2
:1024C00001A8FEF711FB1CBD38B5044600208DF8AD
:1024D0000000FEF761FA8DF80040012220216846D5
:1024E000FEF702FB200A8DF8000001222321684636
:1024F000FEF7FAFA38BD08B501228DF80000202158
:102500006846FEF7F1FA08BD08B5FEF745FA012264
:102510000F216846FEF7B8FA9DF8000008BD0000DC
:1025200070B505462DED028B86B00020009001901D
:10253000029003908DF8100004469FED288A012236
:10254000232104A8FEF7A0FA062228216846FEF7F8
:102550009BFA9DF8101068464B0602AA0DD400BFE6
:1025600000EB440610F81430767803EB062322F8CB
:102570001430641C032CF3DB0BE000EB440310F875
:1025800014605B7803EB062322F81430641C032CE0
:10259000F3DB11F0300004D0102805D0202808D13A
:1025A00005E09FED0F8A04E09FED0E8A01E09FEDAC
:1025B0000E8A002132F9110000EE100A05EB8100AD
:1025C000491CB8EEC00A032920EE080A80ED000A73
:1025D000F0DB06B0BDEC028B70BD00000000000017
:1025E00000000C4100008C4100008C4208B5012223
:1025F00024216846FEF748FA9DF80000012240F0C9
:1026000080008DF8000024216846FEF76DFA08BDB1
:1026100000B585B0142206496846FDF775FE002115
:10262000684601F0E3FC0349086005B000BD000006
:10263000804A00080400002070B586B01421684666
:10264000FDF77BFE1B48C16C41F00801C164C16C01
:1026500001F008010591C16C41F00201C164C06C38
:10266000154E00F002000590002280213046FEF752
:10267000BAFB124D0420CDE90005002469460294FE
:102680003046FEF7CBFA802000900120CDE901040E
:102690000320039069463046FEF7C0FA4FF480707D
:1026A000CDE90005694602940548FEF7B7FA06B081
:1026B00070BD000000100240000C00480000111026
:1026C00000040048074910B5054808600846FFF7B0
:1026D000DAF9002803D0BDE81040FEF75CB910BD60
:1026E00000080650F8000020124810B5104901609B
:1026F0004FF48271416000214FF44072C0E9021230
:102700004FF400720161C0E90512C1610162072244
:102710004162C0E90A12016308214163FFF7E3F94E
:10272000002803D0BDE81040FEF735B910BD000009
:10273000003800400801002010B588B00024174878
:10274000009401940294039404940594124906940D
:1027500001604F21C0E9011444F62061C0E903146F
:102760008461FFF77DFA08B1FEF715F94FF4805048
:10277000009069460948FFF7BBFA08B1FEF70BF96C
:10278000049404A905480694FFF73AFA002801D0FA
:10279000FEF701F908B010BD000C00406C010020EC
:1027A0000D4810B50B4901604FF4E1314160002143
:1027B00081600C22C160C0E904128161C1610162C3
:1027C0004162FFF77DFC002803D0BDE81040FEF712
:1027D000E2B810BD00440040AC010020FEE77047A5
:1027E0000907090E002806DA00F00F0000F1E020CA
:1027F00080F8141D704700F1E02080F80014704745
:102800002DE9F041444C05468846E06800268107E2
:1028100028680DD0E16801F00301814216D1A8B10A
:10282000E0686968C0F30210401C88420ED120E0C5
:10283000012804D0022805D0032807D108E0216828
:10284000890701E021684905002907DB01265FE0CF
:102850002168890302D421684903F5E7E1686A68C1
:102860006FF00F0321F0730103EB021211430143D8
:10287000E160206820F080602060FEF7B9FA07462A
:1028800005E000BFFEF7B4FAC01B022837D8206865
:102890000001F7D4B8F1000F18D0B8F1010F1ED025
:1028A000287D4FF07E41400801EB4060A96840EA76
:1028B00001202169194A114008432061206840F035
:1028C00080602060FEF794FA07461AE0A868E9687D
:1028D0000002090940EA41402169114AEBE7288AD0
:1028E0001049400801EB4050A96840EA01202169E5
:1028F0000D4AE0E7FEF77CFAC01B022801D9032647
:1029000006E020680001F5D52069A9690843206127
:102910003046BDE8F081000000100240FF80FFF962
:10292000FF80FDFF0000E0FFFF809FFF2DE9F041E9
:102930003D4C06468846E0680025810730680DD08A
:10294000E16801F00301814216D1A8B1E068716825
:10295000C0F30210401C88420ED120E0012804D0B0
:10296000022805D0032807D108E02168890701E083
:1029700021684905002907DB012551E02168890309
:1029800002D421684903F5E7E16872686FF00F032C
:1029900021F0730103EB021211430143E16020684F
:1029A00020F080502060FEF723FA074605E000BFC4
:1029B000FEF71EFAC01B022829D820688000F7D431
:1029C000B8F1000F15D0307C4FF07E41400801EB8C
:1029D0004060B16840EA01206169144A114008432F
:1029E0006061206840F080502060FEF701FA0746E1
:1029F0000FE0B068F1680002090940EA41406169EE
:102A00000B4AEBE7FEF7F4F9C01B022801D90325B6
:102A100006E020688000F5D560697169084360614F
:102A20002846BDE8F081000000100240FF80FFF959
:102A3000FF80FDFFF8B51C4D06460024A86DC000C0
:102A400002D5FEF7B7FA0DE0A86D40F08050A865FA
:102A5000A86D00F080500090FEF7ACFAA96D21F04F
:102A60008051A965B0F5007F04D0802E07D94FF0C2
:102A700003040AE0802E08D9A02E01D804E001D179
:102A8000022402E0702E00D101240848016821F0E0
:102A9000070121430160006800F00700A04201D057
:102AA0000120F8BD0020F8BD0010024000200240C7
:102AB000054800219FED050A816180ED050A80F837
:102AC000241000F0A1B80000640200200000000003
:102AD00000B587B01F48FFF703F8002838D11D481C
:102AE0001D49072201601021C161002181604161FF
:102AF0000161C0E90A121202C26001624FF4007261
:102B0000826141624FF4827242601448826D42F4E5
:102B100080428265826D02F480420592C26C42F06E
:102B20000802C264C06C00F0080005901A200090F2
:102B30000220CDE901010390052004906946084870
:102B4000FEF76CF807B003485DF804EBFEF7CBBF67
:102B500007B000BD380300200038004000100240DC
:102B6000000C00480D490A68136843F040031360E5
:102B70000A6893689B07FCD5107309688868C007CA
:102B8000FCD0087B8A6812F4C05FFBD18A68120609
:102B9000FCD40A6822F040020A6070473803002023
:102BA000052920D8114B002260B1597061B101296B
:102BB0000CD002290CD003290CD004290CD00529F3
:102BC0000CD00CE01970F1E7072208E00A2206E0B9
:102BD0000D2204E0102202E0132200E017224FF041
:102BE000804108B18A6370474A6370470000002043
:102BF0004FF08041486370474FF0804188637047D1
:102C0000012001F0E7F9FBE70649054800220A60C8
:102C10000968C1618169491C8161FDF7A5BF000098
:102C2000640200202404004010B5502080F3118875
:102C3000BFF34F8FBFF36F8F01F05CFE18B10449F3
:102C40004FF080500860002080F3118810BD000014
:102C500004ED00E02DE9F041B8B0442122A8FDF7D1
:102C60006CFB142133A8FDF768FB88216846FDF74B
:102C700064FB0224E0012590102022942690012676
:102C80002C94CDE92D4614204FF00708CDE92F08EC
:102C90000427CDE9314722A8FEF78EFC0F2000253E
:102CA00033900320CDE934053695042133A83795B8
:102CB000FEF760FB0B480F95009040061D900597AE
:102CC000CDE901460C20CDE90308E004CDE906403A
:102CD0006846FEF777F92002FEF738F938B0BDE80C
:102CE000F0810000020004000D48016841F4700109
:102CF00001600C48016841F0010101600021816020
:102D00000268094B1A4002608214C260026822F411
:102D10008022026081610249C003803908607047E7
:102D200088ED00E000100240FFFFF6EA0148FFF7DF
:102D300056B80000240200202DE9F0470268264B17
:102D4000264D274E274F284C4FF0804A984209D0F5
:102D5000504507D0A84205D0B04203D0B84201D0B8
:102D6000A04204D122F0700C4A6842EA0C02DFF85B
:102D70007CC0DFF87C80DFF87C9098420FD0504513
:102D80000DD0A8420BD0B04209D0B84207D0A04223
:102D900005D0604503D0404501D0484503D122F419
:102DA0004075CA682A434D6922F080022A430260B6
:102DB0008A68C2620A688262984207D0A04205D03F
:102DC000604503D0404501D0484501D10969016300
:102DD00001214161BDE8F087002C01400004004062
:102DE00000080040000C0040003401400040014059
:102DF000004401400048014010B5846842EA0322C3
:102E000024F47F440A432243826010BD826822F08A
:102E100070020A4342F007018160704710B5036AEF
:102E2000046A24F001040462846924F0F00444EA92
:102E3000021423F00A020A438461026210BD10B535
:102E4000036A23F0100303628369046A23F4704366
:102E500043EA023224F0A00343EA011182610162D5
:102E600010BD90F82410C90706D001684A68836A2B
:102E700022F400321A434A6090F82410890706D5DC
:102E800001684A68C36A22F480321A434A6090F8A3
:102E90002410490706D501684A68036B22F4802292
:102EA0001A434A6090F82410090706D501684A6859
:102EB000436B22F400421A434A6090F82410C9067A
:102EC00006D501688A68836B22F480521A438A60AF
:102ED00090F82410890606D501688A68C36B22F42D
:102EE00000521A438A6090F82410490611D50168EF
:102EF0004A68036C22F480121A434A60016CB1F5EF
:102F0000801F06D101684A68436C22F4C0021A434C
:102F10004A6090F82410090606D501684A68806C5A
:102F200022F4002202434A607047F8B500260446A6
:102F30004667FDF75DFF0546206800686FF07E4735
:102F4000000708D52B4600224FF4001120460097B9
:102F500000F084F960B92068006840070AD52B4664
:102F600000224FF480012046009700F077F908B165
:102F70000320F8BD202084F8710084F8720084F8E2
:102F800070600020F8BD10B5806A0021A0F85A10CA
:102F9000A0F85210FEF7F0FF10BD01680A6822F495
:102FA00090720A6001688A6822F001028A6020211A
:102FB00080F8721000210166704700002DE9F04191
:102FC0000446016880682369E6691843636910252F
:102FD000002733431843954A0B68954E334003430B
:102FE0000B6020684168E36821F440511943416057
:102FF0002168A069914201D0236A18438B6823F4A9
:10300000306303438B608B4B21688B4899420DD111
:10301000D0F8880010F0030006D001285AD002280A
:1030200056D0032859D157E0012556E0834B9942E9
:103030000BD1D0F8880010F00C0047D0042849D0FC
:10304000082845D00C2848D146E07D4B99420BD149
:10305000D0F8880010F0300038D010283AD020285E
:1030600036D0302839D137E0764B99420BD1D0F8A1
:10307000880010F0C00029D040282BD0802827D00D
:10308000C0282AD128E0704B99420ED1D0F8880090
:1030900010F440701AD0B0F5807F1BD0B0F5007FDF
:1030A00016D0B0F5407F18D116E0914215D1D0F876
:1030B000880010F4406009D0B0F5806F0AD0B0F5F8
:1030C000006F05D0B0F5406F07D105E0002504E0A2
:1030D000022502E0042500E008255C4B00264FF4A1
:1030E000004091423DD135B1022D07D0042D07D0CB
:1030F000082D10D107E0FEF7E9F903E0184602E0D9
:10310000FEF708FAA8B3626802EB4201814202D8D6
:10311000B0EB023F01D9012775E0DFF834815DB1E2
:10312000022D0CD0042D13D0082DF4D15008290500
:10313000401846F1000105E0FEF7C8F90AE0500822
:103140004449F5E70023FDF7ABF8A0F5407156E0E0
:10315000FEF7E0F96268010E030250081818714189
:10316000F0E7E1694FF6EF7881422FD1092DD2D2F5
:1031700000E048E0DFE805F0060920052305050525
:103180002600C8E7FEF7A2F901E0FEF7B1F9410019
:10319000D4F8040001EB5001B1FBF0F080B2A0F1D3
:1031A00010014145B7D84FF6F0710140C0F342001D
:1031B00001432068C16026E027496068EAE7FEF71E
:1031C000A9F9E4E74FF480316068E3E7092DA2D262
:1031D000DFE805F006091E052205050525009AE72A
:1031E000FEF774F901E0FEF783F90146606801EB30
:1031F000500100BFB1FBF0F080B2A0F110014145D9
:1032000089D82168C860266638466666BDE8F081C0
:10321000606803EB5001EDE7FEF77CF9E5E76168D4
:1032200000EB5100B0FBF1F0E6E700000080004049
:10323000F369FFEF003801400010024000440040F5
:1032400000480040004C0040005000400024F400C2
:10325000FFFC0F00000024F40048E8012DE9F041D4
:10326000984617460E460446069D1DE0681C1BD076
:103270002DB1FDF7BDFDA0EB0800A84214D92068D0
:10328000016821F4D07101602068816821F001019A
:103290008160202084F8710084F87200002084F896
:1032A00070000320BDE8F0812068C06936EA0000A4
:1032B00004D00020B842D9D00020F3E70120F9E77C
:1032C0000148FEF75BBE0000AC0100200FB46E2188
:1032D00000B59DB01FAB68461E9A00F01BF868460B
:1032E000FDF742F882B2642369460348FEF758FFAF
:1032F0001DB05DF814FB0000AC010020FEE70000EB
:10330000034A116813685B1A8342FBD370470000BD
:10331000240400407CB5044600201D4616460029C2
:103320000BD0491ECDE90041044B6A462946304680
:1033300000F0DCF8009A002111707CBD213C0008EF
:1033400002E008C8121F08C1002AFAD1704770476E
:10335000002001E001C1121F002AFBD170470000CC
:103360002DE9FF5F82B00021DDE90430020DDDF8B8
:1033700040B0034318D044F61050A2F2FF3242434B
:103380001514119801281FD0A5EB0B00401C5FEA13
:10339000000A4FF000064E4FDFF83891B046504615
:1033A00015D5CAF1000413E0119801244AA301289D
:1033B00001D16FEA0B010298119AC0E90031C0E90E
:1033C000024206B000F08EB8CBF10000DFE7044601
:1033D0000021404A491842EB0450CDE9001012E0A8
:1033E000E00707D032463B4640464946FDF741F9E3
:1033F0008046894632463B4610461946FDF739F964
:1034000006460F466410002CEAD1DDE90401DDE92F
:103410000023BAF1000F06DAFDF72BF942464B46BE
:10342000FDF727F905E0FDF799F942464B46FDF710
:1034300095F904460E460022284BFDF717FA03D8EB
:103440004FF0FF30014607E00022254B2046314671
:10345000FDF760F8FDF7F1F9102409E0002C0ADB14
:103460000A220023FCF71CFF039B30321A55641E0E
:1034700050EA0102F2D1641C039AC4F1110314440E
:10348000119A012A03D0012208430DD10AE0084312
:1034900004D000204FF0110B119072E7A3EB0B0545
:1034A0006D1E0DE05B4504DD4FF0000205F10105E6
:1034B00004E003DA4FF00002A5F10105002AECD088
:1034C00002981199C0E90231C0E9004579E700008E
:1034D000000014400000F03F300000000000F04306
:1034E0000000E03F30BCBDE8C09F00002DE9FF4F69
:1034F00095B09B468946064600250FE2252877D1E0
:1035000000242746F84A0121059400E0044316F8F8
:10351000013F203B01FA03F01042F7D130782A280E
:1035200011D06FF02F033078A0F13002092A16D89D
:10353000059A44F0020402EB820203EB42021044BB
:10354000761C0590EFE759F8042B0592002A03DA60
:10355000504244F40054059044F00204761C307844
:103560002E2816D116F8010F44F004042A280DD095
:103570006FF02F023078A0F13003092B09D807EB48
:10358000870302EB4303C718761CF3E759F8047B63
:10359000761C30786C280FD006DC4C2817D06828B1
:1035A0000DD06A2814D104E0742810D07A280FD1E5
:1035B0000DE044F400140AE044F4801401E044F403
:1035C00040147278824202D104F58014761C761C75
:1035D000307866280BD013DC582877D009DC002817
:1035E00075D04528F6D04628F4D047281AD19DE159
:1035F00018E0632835D0642879D0652812D195E188
:10360000702873D008DC6728F1D069286FD06E2845
:103610000DD06F2806D1B5E073282CD0752875D051
:10362000782874D05A46179990476D1C75E1C4F3F9
:103630000250022809D003280DD0D9F80010042820
:103640000DD00D6009F1040967E1D9F80010EA17FF
:10365000C1E90052F6E7D9F800100D80F2E70D70CD
:10366000F0E719F8041B8DF8001000208DF8010018
:10367000EA46012003E059F804AB4FF0FF30610740
:103680004FF0000102D40DE008F101018846B94273
:103690000FDA8045F8DB1AF808100029F4D108E0A9
:1036A00008F1010188468142FADB1AF80810002966
:1036B000F6D105985B46A0EB080721463846179AD5
:1036C00000F097FA284400EB080507E04DE029E1F7
:1036D0000DE01AF8010B5A4617999047B8F1010806
:1036E000F7D25B4621463846179A13E142E00A2298
:1036F0000092C4F302524FF0000A022A08D059F88F
:1037000004CB032A4FEAEC710AD00DE029E02AE04D
:1037100009F1070121F00702F2E802C1914609E030
:103720000FFA8CFC4FEAEC71042A03D14FFA8CFC9F
:103730004FEAEC71002907DA0A460021DCF1000C9F
:1037400061EB02012D2202E0220504D52B228DF827
:103750000420012203E0E20701D02022F7E790468F
:1037600059E00A2102E010220DE010214FF0000A7A
:1037700000910BE010224FF0000A44F004040827E7
:10378000009203E008224FF0000A0092C4F30252B4
:10379000022A05D059F804CB0021032A08D009E0F9
:1037A00009F1070121F00702F2E802C1914605E0A4
:1037B0001FFA8CFC042A01D10CF0FF0C4FF000081A
:1037C000220728D5702806D0009B83F0100353EA07
:1037D0000A0305D00EE040228DF80420012208E003
:1037E0005CEA010206D030228DF804208DF8050035
:1037F00002229046009B83F0080353EA0A030AD191
:103800005CEA010201D1620705D530228DF804205F
:103810004FF001087F1E582804D034A003900EA852
:1038200002900DE036A0F9E753466046009AFCF797
:1038300037FD84460398825C0298401E0290027015
:103840005CEA0100F0D1029806A9081A00F1200AEA
:10385000600702D524F4803400E00127574502DDDB
:10386000A7EB0A0000E0002000EB0A010090059899
:103870004144401A0590E00306D45B462146179A5E
:10388000059800F0B6F90544002706E001A85A465D
:10389000C05D179990476D1C7F1C4745F6DBE00320
:1038A0000CD55B462146179A059800F0A2F905440D
:1038B00004E030205A46179990476D1C0099481E25
:1038C00000900029F5DC08E0029802995A46007839
:1038D000491C0291179990476D1CBAF10001AAF199
:1038E000010AF1DC65E100000928010030313233C2
:1038F000343536373839616263646566000000002C
:103900003031323334353637383941424344454615
:103910000000000000F05BF90544761C30780028B8
:103920007FF4ECAD19B0284600F04EB9620700D420
:10393000062709F1070222F0070CFCE80223E14602
:1039400003F000485FEA080C02D00FF2702C0DE083
:103950005FEA045C02D50FF2682C07E05FEAC47CE2
:1039600002D00FF2602C01E0AFF2700C4FF0FF3884
:1039700023F00043CDF850C065280CD006DC452864
:1039800009D046281DD047283DD13DE0662818D0F3
:1039900067287ED138E00021112F01DB112000E0E3
:1039A000781CCDE9000106A90EA8FFF7D9FCDDE9D6
:1039B0000F010E9A03910021009207F1010A049170
:1039C0004DE04FF000400097CDE9011006A90EA888
:1039D000FFF7C6FCDDE90F0203920E9B119900224E
:1039E000DDF80CA00093049211B9791C00EB010AD8
:1039F000B7EB0A0004D4C0F1FF3007F1010A0490CC
:103A0000AAEB0700019044E0012F00DA0127002112
:103A1000112F01DD112000E03846CDE9000106A993
:103A20000EA8FFF79DFCDDE90F010E9A039100211E
:103A300004910092BA4621070CD40399514500DA4B
:103A40008A46BAF1010F05DD009AAAF10101515C25
:103A5000302908D0B84202DA10F1040F06DA012149
:103A6000CDE9011015E0AAF10101E9E7002805DC24
:103A7000049901440491AAEB000102E0411C514564
:103A800000DD8A460499401A401C01904FF0004026
:103A90000290200704D40198504501DBCDF8048042
:103AA00000208DF84F0002980DF14F07B0F1004F44
:103AB00025D02B200E9002984FF0020800280CDA37
:103AC000404202902D200E9007E00A210298FCF758
:103AD0008FFC3031029007F8011DB8F10001A8F108
:103AE0000108F2DC02980028EFD1791E0E980870C8
:103AF000307800F0200040F0450007F8020D12A8D1
:103B0000C01B00F107081498007800B1012000EBF9
:103B10000A01019801EBE07105984144401A401EEA
:103B20000590E00306D45B462146179A059800F0FD
:103B300060F805441498007818B15A4617999047D0
:103B40006D1CE00324D55B462146179A059800F0CA
:103B500050F805441CE00498002807DBDDE9030168
:103B6000884203DD0098405C179901E017993020E6
:103B70005A469047049805F10105401C04900198AD
:103B8000401E019004D12E205A46179990476D1C73
:103B9000BAF10001AAF1010ADDDC05E017F8010B1A
:103BA0005A46179990476D1CB8F10001A8F1010819
:103BB000F4DC5B462146179A0598ABE62D00000021
:103BC0002B0000002000000030BCBDE8C08F2DE9B4
:103BD000F041044600251E461746880404D405E03B
:103BE00039462020B0476D1C641EF9D52846BDE833
:103BF000F0812DE9F041044600251E469046C80399
:103C000001D5302700E02027880404D505E041468F
:103C10003846B0476D1C641EF9D52846BDE8F081D2
:103C20004A68002A06D00A68531C0B601070486866
:103C3000401E4860704700002DED028B23A0FFF767
:103C400045FB244C94F824000028FBD122486569E8
:103C500094ED088A077E2148067E21A0FFF736FBF7
:103C600021A0A169FFF732FB2846FCF795FB41EC48
:103C7000100B21A053EC102BFFF728FBF8EE480A9D
:103C80009FED201A80EE810A10EE100AFCF784FBEB
:103C900041EC100B1CA053EC102BFFF717FB1EA0E0
:103CA000FFF714FB39461DA0FFF710FB314620A09B
:103CB000FFF70CFB18A0FFF709FB94F8240008B1EC
:103CC00020A000E023A0FFF701FBBBE71B5B324A0B
:103CD0000000000064020020DC000020C000002082
:103CE0001B5B303B304800004C6576656C3A202504
:103CF00033640A0D0000000053636F72653A20259B
:103D0000660A0D0000401C4654696D653A20256620
:103D1000207365636F6E64730A0D0000506C6179E7
:103D20006572202020506F733A202534640A0D00FC
:103D3000436F6D707574657220506F733A2025342F
:103D4000640A0D0047414D45204F564552200A0D4B
:103D500000000000202020202020202020200A0D0C
:103D6000000000001CB5084C01461022201DFCF785
:103D7000EFFA0220CDE90004C201234603A107485F
:103D800000F08AFD1CBD00008C0200204449535005
:103D90004C4159205441534B00000000393C00086D
:103DA0001D4CFEF785FE1D4E1D4F4CF2503500BFD9
:103DB000FCF7D0FE2062327E397EA84209D901206C
:103DC00084F8240042F21070FFF79AFAFEF770FEB2
:103DD000EEE7002084F82400501A00D54042FCF79A
:103DE000CAFA9FED101B53EC112BFCF7E9FADFD256
:103DF000206A9FED0E1A281A00EE100AF8EE400A0B
:103E000080EE810AD4ED050A30EE200A84ED050A21
:103E1000FEF7FAFECCE7000064020020DC00002080
:103E2000C00000209A9999999999E93F00401C4651
:103E30001CB50B4C01461022201DFCF789FA9FEDA2
:103E4000090A002084ED050AA0610220CDE90004E2
:103E5000C201234604A1074800F01EFD1CBD00005E
:103E6000640200200000000047414D4520544153AA
:103E70004B000000A13D00082DED028B0F4D9FED82
:103E8000108A05F10C040D48FCF72CFD5FF00000D2
:103E900005EB800154F8202091ED000AC0EE080ADD
:103EA000BDEEE00A10EE101A114444F82010401C38
:103EB0000328EDDB322000F08DF8E4E7A8000020B5
:103EC00000401C461CB5FCF717FD08B1FCF763FD6C
:103ED00000210220CDE900010B46C20105A10748DF
:103EE00000F0DAFC012803D0BDE81C40FCF753BD0C
:103EF0001CBD00007072696E74000000793E0008FD
:103F0000FCF784FFFEF7A6FEFEF796FBFEF748FCE3
:103F1000FEF7D8FBFEF710FCFEF7E6FBFFF7D2FF3B
:103F2000FEF7CAF9FEF7B8F90CA0FFF7CFF90021A8
:103F300010A000F0C9FA012112A000F08FFA16A01B
:103F4000FFF776FF17A0FFF70DFF1AA0FFF7BEF9E6
:103F5000FEF75EFB00F045F8FEE700004265666F85
:103F60007265207461736B20696E6974732E0A0D1B
:103F7000000000005553455220534552564F2054DF
:103F800041534B005553455220434F4D50555445D6
:103F900052205441534B000047414D45205441535A
:103FA0004B000000444953504C4159205441534B5D
:103FB000000000004166746572207461736B2069B3
:103FC0006E6974732E0A0D0001460020842900D00A
:103FD000C81C704710B500B9012000F053FB002049
:103FE00010BD10B500F074FB002010BD3EB50446B6
:103FF0000D46B0F90800FFF7E7FF02A9CDE900017F
:10400000208A2B4682B2D4E9001000F045FC01283A
:1040100001D000203EBD02983EBD00002DE9F041D8
:10402000184C0F46054666692068001D00F070FABE
:1040300038B9206890F82C1001208840A16981438C
:10404000A161681C07D137B12168BDE8F0410E4875
:10405000091D00F097BA20683544B54245602168D3
:1040600005D2A068BDE8F041091D00F073BA606890
:10407000091D00F06FFA206B854200D22563BDE870
:10408000F081000048000020780400202DE9F04174
:10409000054600F083FA2E4C2069401C2061206800
:1040A0002C4F10B1E06940B32DE025602069012854
:1040B00029D1002606EB860007EB800000F03CFAD1
:1040C000761C072EF6D323488C3000F035FA2148B1
:1040D000A03000F031FA1F48B43000F02DFA1D482E
:1040E000C83000F029FA1B48DC3000F025FA1948E6
:1040F0008C3060601430A06005E02068E96AC06A16
:10410000884200D82560E06A401CE062E96A01202C
:10411000A26988401043A06101EB810007EB800099
:10412000291D00F02FFA00F059FAE06900280CD0A0
:104130002068E96AC06A884207D207494FF0805078
:104140000860BFF34F8FBFF36F8FBDE8F0810000B1
:10415000480000209C03002004ED00E010B5044658
:10416000006B00F04FFA2046BDE8104000F04ABA5C
:104170000F4842F21071420705D0C01D0C4A20F0D2
:104180000700821A891A0B4A00230144C2E900037E
:104190000839103A21F0070111604B600B600B1ACF
:1041A000C0E9001393604FF000405360D060704747
:1041B0008C04002094000020154E164CA6F1C80770
:1041C0004FF08058DFF8509012E000BF00F0E6F9A1
:1041D000F068C568281D00F09BF92069401E206129
:1041E000E068401EE06000F0F9F92846FFF7B6FFEE
:1041F000E0680028EAD13868012805D9C9F80080AC
:10420000BFF34F8FBFF36F8F00F095F9F0E7000019
:10421000640400204800002004ED00E02DE9F04790
:104220009A46DDE9098481466FF00303206B03EBB6
:1042300082021044089D20F00706700707D0502026
:1042400080F31188BFF34F8FBFF36F8FFEE7231802
:104250000A5C83F834200A5C12B1401C1028F6D3A3
:10426000002784F84370072D00D30625E562C4E9D2
:104270001157201D00F06BF904F1180000F067F9E8
:104280002461C5F107006462A061E76484F850709E
:1042900052464946304600F0BFF82060B8F1000FA2
:1042A00001D0C8F80040BDE8F087000030B51149E2
:1042B00000E011460A688242FBD34B685C188442D6
:1042C00003D1406818444860084643681C1894426B
:1042D00009D1084C103C2468A24209D052681A4403
:1042E00042600A6812680260814200D0086030BDF6
:1042F0000460F9E79400002006484168096829B184
:104300004168C968C9684968016370474FF0FF3167
:10431000FAE700004800002008484068401C4FF0C1
:10432000500080F3118804D0BFF34F8FBFF36F8F1D
:10433000FEE7BFF34F8FBFF36F8FFEE79C000020B7
:104340002DE9F0410546002700F0F6F9314E3068BE
:1043500008B9FFF70DFFF06805424BD1C5B308352A
:1043600068070ED005F00700C0F108000544680793
:1043700007D0502080F31188BFF34F8FBFF36F8FAA
:10438000FEE72DB37068854234D8224810300146CC
:104390000C6801E020460C466168A94202D22168FF
:1043A0000029F7D131688C4224D007682168016068
:1043B00060680837411B10290FD96019420708D0DF
:1043C000502080F31188BFF34F8FBFF36F8FFEE74C
:1043D00010E041606560FFF769FF61687068401A2E
:1043E0007060B268904200D2B060F0680143002073
:1043F000C4E9000100F0E2FA780707D0502080F30A
:104400001188BFF34F8FBFF36F8FFEE73846BDE8CB
:10441000F08100008400002010B5031F4FF080746D
:104420001C601B1F21F001011960191F044B0B6058
:1044300014390A60091F6FF0020244380A6010BD87
:1044400019430008044C207E616911B1FEF7D4FBCA
:10445000F9E7FEF7CDFBF6E7C00000207CB50D467E
:10446000094C01461022201DFBF772FF07206561F1
:1044700020760220CDE90004C201234603A10848AA
:1044800000F00AFA7CBD0000C000002055534552E0
:1044900020434F4D4D414E44205441534B000000AA
:1044A00045440008074C00BFFCF74AFA054660691E
:1044B0000028284603D0FEF79FFB2576F4E7FEF799
:1044C00097FBFAE7DC0000207CB50D46094C01465D
:1044D0001022201DFBF73CFF07206561207602209B
:1044E000CDE90004C201234603A1084800F0D4F935
:1044F0007CBD0000DC0000205553455220434F4D49
:104500004D414E44205441534B000000A544000847
:10451000D0E9013201699A60D0E901235A604A6802
:10452000824201D182684A60002202610868401E0E
:10453000086008687047704700F108014FF0FF32CB
:10454000C0E90112C16001610021016070470021D2
:104550000161704730B50B685A1C02D000F10802A7
:1045600002E0026904E02246546825689D42FAD9B7
:1045700053684B6099608A60516008610168491C0A
:10458000016030BD42684A6093688B6093685960EF
:10459000916008610168491C01607047502080F3F8
:1045A0001188BFF34F8FBFF36F8F0A494868401CD3
:1045B000486001280CD10848006810F0FF0F07D0B0
:1045C000502080F31188BFF34F8FBFF36F8FFEE74A
:1045D000704700009C00002004ED00E00849486896
:1045E00028B1401E486001D180F3118870475020E7
:1045F00080F31188BFF34F8FBFF36F8FFEE700008A
:104600009C00002070B5002827D0144DA0F10804AC
:104610006168E868014207D1502080F31188BFF338
:104620004F8FBFF36F8FFEE722683AB1502080F3BF
:104630001188BFF34F8FBFF36F8FFEE78143616037
:1046400000F07AF860686968084468602046FFF7FF
:104650002DFEBDE8704000F0B1B970BD84000020AF
:104660004FF0E02000210161816105494FF47A7229
:104670000968B1FBF2F1491E4161072101617047F0
:104680000C00002010B5020014D00F48806B38B128
:10469000502080F31188BFF34F8FBFF36F8FFEE779
:1046A00000F04AF800211046FFF7B8FC00F086F948
:1046B000002807D105494FF080500860BFF34F8FA5
:1046C000BFF36F8F10BD00004800002004ED00E034
:1046D0001CB515480024CDE900402346802213A1D3
:1046E000144800F0D9F8012809D0401C1AD15020F4
:1046F00080F31188BFF34F8FBFF36F8FFEE7502019
:1047000080F31188BFF34F8FBFF36F8F06484FF0D0
:10471000FF31343801630121C1614461BDE81C40AF
:1047200000F040B81CBD00007C00002049444C450E
:1047300000000000B94100080248816B491C8163F8
:1047400070470000480000201448816B11B101211E
:1047500041627047002141628169B1FA81F1C1F182
:104760001F0101EB81020E4951F822306BB101EBC0
:10477000820101F108034A6852684A609A4201D1F5
:1047800052684A60D16801607047502080F31188F8
:10479000BFF34F8FBFF36F8FFEE70000480000208C
:1047A0009C0300201CB537480168374A914207D165
:1047B000502080F31188BFF34F8FBFF36F8FFEE758
:1047C00000683149491E884207D1502080F3118882
:1047D000BFF34F8FBFF36F8FFEE72C49087801902E
:1047E000FF20087008788DF800009DF800009DF803
:1047F000002000F0F000904207D0502080F3118894
:10480000BFF34F8FBFF36F8FFEE79DF80000204B83
:1048100000F0500018700720986005E09DF8002017
:1048200052008DF80020401E9DF800201206F5D49D
:104830009860032807D0502080F31188BFF34F8F72
:10484000BFF36F8FFEE74FF44070986001980870D7
:104850000C482030016841F470010160016841F0AA
:1048600070410160FFF7FCFE00205860FBF7BAFCC6
:104870000848016841F040410160FBF79FFC0020BF
:104880001CBD000000ED00E071C20F4100E400E03B
:104890009C00002034EF00E02DE9FF5F8346DDE956
:1048A0000E87994616468A469000FFF749FD050097
:1048B0001AD05420FFF744FD040012D025630021D4
:1048C000CDE90241CDE900874B4632465146584674
:1048D000FFF7A4FC2046FFF7D9FB012004B000F04D
:1048E00006B82846FFF78EFE4FF0FF30F6E730BCE3
:1048F000BDE8C09F2DE9F0412E4C0027A06B40B1D0
:10490000206A401C2062606A00B101273846BDE879
:10491000F0816669761C666113D16068006838B101
:10492000502080F31188BFF34F8FBFF36F8FFEE7E6
:104930006068A1686160A060A06A401CA062FFF787
:10494000DBFC206BDFF87080864209D3606800686A
:1049500080B16068C068C568686886420DD220630F
:104960002068C06A00EB800158F821000128CAD9EC
:104970000127C8E74FF0FF30F1E7281DFFF7C8FD1A
:10498000A86A18B105F11800FFF7C2FDE86A012115
:10499000A26981401143A16100EB800108EB810015
:1049A000291DFFF7EFFDE86A2168C96A8842CDD367
:1049B0000127CBE7480000209C0300202DE9F047A9
:1049C0002C4D00242746A86B38B1FFF7E7FDA86BF4
:1049D000401EA863A86B40B146E0502080F31188C8
:1049E000BFF34F8FBFF36F8FFEE72969224E01207F
:1049F000D1B3A6F1B40980463068E8B1F068C46864
:104A000004F11800FFF784FD201DFFF781FDE06A27
:104A1000AA6908FA00F11143A96100EB800109EBD2
:104A20008100211DFFF7AEFDE06A2968C96A88424E
:104A3000E2D3C5F82480DFE70CB1FFF75DFC2C6AF8
:104A400044B14646FFF756FF00B16E62641EF9D1CD
:104A500000202862686A38B10849012738070860D1
:104A6000BFF34F8FBFF36F8FFFF7B8FD3846BDE838
:104A7000F0870000480000205004002004ED00E012
:104A8000DC4A0008012C00080000000000000000C3
:104A9000800000000000000000000000010203048C
:104AA00006070809A0860100400D0300801A0600D1
:104AB00000350C0040420F0080841E0000093D00BC
:104AC00000127A000024F40000366E010048E8016C
:104AD000006CDC02000000000102030464656661F2
:104AE000756C745461736B00084B00080000002063
:104AF000A800000040330008B04B0008A8000020C8
:104B0000F81A010050330008000000000000000007
:104B10000000000000093D0000000000C92400085A
:104B2000AD23000809250008ED250008F72400083A
:104B300077240008E7230008AF23000800000000E6
:104B4000000000004F240008272400082125000849
:104B50000000000000000000000000000000000055
:104B60000000000000000000000000000000000045
:104B70000000000000000000000000000000000035
:104B80000000000000000000000000000000000025
:104B90000000000000000000000000000000000015
:104BA0000000000000000000AAAAAAAA000000005D
:040000050800018965
:00000001FF
